S00B00004156522E7372656330
S11300004CC0000068C000000C94800C64C0000068
S113001062C0000060C000005EC000005CC0000060
S11300205AC0000058C0000056C0000054C0000070
S113003052C0000050C000004EC000000C942E0BB3
S11300404AC0000048C0000046C0000044C0000090
S113005042C0000040C000003EC000003CC00000A0
S11300603AC0000038C0000036C0000034C00000B0
S113007032C0000030C000002EC000002CC00000C0
S11300802AC0000028C0000026C00000F60E150F8C
S1130090340F530F720F910FB00F11241FBECFEF07
S11300A0D0E1DEBFCDBF15E0A0E0B1E0E2E2F4E2D2
S11300B000E00BBF02C007900D92A03BB107D9F737
S11300C026E0A0EBB5E001C01D92AF30B207E1F726
S11300D003D00C940F1294CF0E94410C0E947C0E0A
S11300E0F9D3FCD20E94090B68D20E943F0A0E94F5
S11300F0630AFDCFBC0180910501823089F480E060
S113010090E00E94D6102AE939E949E550E40E94BA
S1130110641120E030E446E654E40C943D10089564
S113012080E090E00E94D6102AE939E54DEA53E4D4
S11301300E94641120E030E446E654E40C943D103F
S11301400895CF92DF92EF92FF920F931F93CF9374
S1130150DF9300D000D0CDB7DEB781E09091B80531
S1130160911180E08093B80581E040D20E94A510EF
S11301706B017C014AE0BE016F5F7F4FC6010E94A4
S1130180DC1161E080E00E94F80C80910001823073
S113019049F0833061F0813079F48BE194E00E947E
S11301A0130D0EC08FE194E00E94130D09C083E289
S11301B094E00E94130D04C087E294E00E94130DA2
S11301C061E084E00E94F80C8091B905882361F015
S11301D08091B805882321F08FE00E94110D0FC093
S11301E089E00E94110D0BC08091B805882321F08D
S11301F087E00E94110D03C089E00E94110D61E0A7
S113020087E00E94F80C8091BA05882361F0809100
S1130210B805882321F081E20E94110D07C080E215
S11302200E94110D03C082E00E94110D62E085E07E
S11302300E94F80C8601C6015DDF0E94270D63E071
S113024083E00E94F80C8091B6059091B705019661
S11302509093B7058093B605CC9769F48091B40563
S11302609091B50501969093B5058093B4051092CD
S1130270B7051092B6058091B4059091B505CC9759
S113028069F48091B2059091B30501969093B305FA
S11302908093B2051092B5051092B4054091B20551
S11302A05091B3054831510549F48091B0059091BE
S11302B0B10501969093B1058093B005E090B40523
S11302C0F090B505EBE2F4E09701ADECBCEC0E94D4
S11302D0CD119695879596958795969587959C01CA
S11302E0220F331F880F991F880F991F880F991F9A
S11302F0820F931F9701281B390BC901805D8783E7
S113030097010E94CD119695879596958795969518
S11303108795805D86839A010E94CD119695879575
S113032096958795969587959C01220F331F880F84
S1130330991F880F991F880F991F820F931F9A0185
S1130340281B390BC901805D84839A010E94CD1159
S1130350969587959695879596958795805D8383E1
S11303604091B0055091B1059A010E94CD11969526
S1130370879596958795969587959C01220F331FAF
S1130380880F991F880F991F880F991F820F931F39
S11303909A01281B390BC901805D81839A010E944F
S11303A0CD11969587959695879596958795805DB9
S11303B08083CF010E94130D809103019091040169
S11303C08017910728F46BD281E08093B9050AC0A5
S11303D080910101909102010817190718F470D255
S11303E01092B9050F900F900F900F90DF91CF915D
S11303F01F910F91FF90EF90DF90CF90089562E0EE
S113040085E00E94F80C809103019091040172DE52
S11304100E94270D63E085E00E94F80C80910101A1
S11304209091020167DE0C94270D089580910301D9
S1130430909104010396873B23E0920720F4909364
S113044004018093030108958091030190910401B4
S1130450039720910101309102018217930720F044
S11304609093040180930301089580910101909178
S1130470020103962091030130910401821793072E
S113048020F4909302018093010108958091010169
S11304909091020103978436910520F09093020114
S11304A080930101089580910301909104014E9677
S11304B0873B23E0920720F4909304018093030187
S11304C0089580910301909104014E9720910101B8
S11304D0309102018217930720F0909304018093D6
S11304E00301089580910101909102014E9620919B
S11304F00301309104018217930720F490930201C1
S113050080930101089580910101909102014E9719
S11305108436910520F0909302018093010108959F
S11305208091030190910401845D9E4F873B23E0F9
S1130530920720F49093040180930301089580911D
S11305400301909104018C5291402091010130915A
S113055002018217930720F0909304018093030112
S113056008958091010190910201845D9E4F209134
S11305700301309104018217930720F49093020140
S113058080930101089580910101909102018C52A0
S113059091408436910520F09093020180930101EB
S11305A0089580910501823021F481E08093050152
S11305B0089582E0809305010895E1E6F0E08081EA
S11305C08C7F808386E886B980E187B93598089561
S11305D0369A349BFECF86EF8A95F1F724B185B124
S11305E090E0982F8827820F911D0895CF92DF9273
S11305F0EF92FF92CF93833089F028F4813041F059
S1130600823049F037C0843061F0853069F032C0FF
S113061080E187B92FC084E087B92CC085E087B911
S113062029C086E087B926C087E087B923C0D0DF18
S1130630BC0180E090E00E94D6109B01AC01C70190
S1130640B6010E94D90F6B017C01C15081F720E0F3
S113065030E040E05EE30E94641120E030E040E8D6
S11306605AE30E94641120E030E04AE754E40E9417
S1130670641105C0C8E0C12CD12C7601D8CFCF912C
S1130680FF90EF90DF90CF900895809108019091B2
S1130690090120E1E5E6F0E0992314F4C59A01C0CC
S11306A0C598880F991F38E13A95F1F700C0308159
S11306B03860308338E13A95F1F700C03081377FF4
S11306C0308338E13A95F1F700C0215029F7C79AF1
S11306D088E18A95F1F700C0C798089587B3806EC2
S11306E087BBE4E6F0E0808188618083E5E6F0E0A2
S11306F08081877F8083C798808180618083C6984A
S1130700C4CF0895813198F421E030E0A90102C0FA
S1130710440F551F8A95E2F7CA01209108013091D0
S11307200901822B932B9093090180930801ADCF8B
S113073008958131A8F421E030E0A90102C0440FFA
S1130740551F8A95E2F7CA0180959095209108017A
S11307503091090182239323909309018093080126
S113076094CF08958091C005811128C08091BE0561
S11307709091BF05892B11F58091BC059091BD0521
S1130780892BE1F480E0D5DF81E08093BB05809183
S1130790BE059091BF0501969093BF058093BE0559
S11307A0309107012DEC329F212D11242695269599
S11307B0269530E082179307B1F527C04091BB0519
S11307C04423B9F08091BE059091BF0501969093A2
S11307D0BF058093BE05309107012DEC329F212D7A
S11307E0112426952695269530E082179307D9F48F
S11307F00AC08091BC059091BD0501969093BD05FA
S11308008093BC0510C0413071F48091C0057ADF3B
S11308101092BB051092BF051092BE058091C005D1
S11308208F5F8093C0052091060184E6289F900184
S113083011248091BC059091BD052817390771F4E6
S11308408091BB0581110AC08091C00572DF81E0EF
S11308508093BB051092BD051092BC058091C00524
S11308608031E1F41092C0051092BD051092BC05D0
S11308701092BF051092BE058091C9059091CA05DA
S113088001969093CA058093C9058091C105811191
S113089005C082EB93E0A2D780E033C00895809135
S11308A0C10581110BC081E08093C1052AD06AE0A3
S11308B070E082EB93E03DD780E0089581E00895F5
S11308C08091C105882321F01092C10580E008952C
S11308D081E00895B89AE1E6F0E080818860808341
S11308E0E4E6F0E0808181608083C09AE2E6F0E093
S11308F0808188608083E5E6F0E080818E7F80835C
S11309000895882331F0E2E6F0E08081877F8083D8
S11309100895E2E6F0E080818860808308950E9473
S1130920EE0C61E080E00E94F80C8091CB05909180
S1130930CC050E94130D62E080E00E94F80C8091C7
S1130940CD059091CE050E94130D63E080E00E94D6
S1130950F80C8091CF059091D0050E94130D64E0AE
S113096080E00E94F80C8091D1059091D2050E94FC
S1130970130D4091D5056091D4058091D3050C9455
S1130980A00E089520910A0130910B012817390710
S113099059F0E2E2F1E021E030E0B9014081518117
S11309A04817590791F402C060E070E0CB01880F4A
S11309B0991F680F791FCB01880F991F880F991F02
S11309C0880F991F865F9E4F08952F5F3F4F78963B
S11309D02D31310511F780E090E00895E091C405D0
S11309E0F091C50580819181823020E3920709F45A
S11309F082C2E0F5813020E2920709F464C1D0F4A8
S1130A00823020E1920709F4BEC040F4009709F453
S1130A106BC08130904109F48EC01AC5843020E146
S1130A20920709F400C108F4D6C08530904109F456
S1130A3022C10EC5843020E2920709F4BCC150F4EF
S1130A40823020E2920709F466C18330904209F4AF
S1130A508AC1FEC4863020E2920709F4FCC108F47E
S1130A60D2C18130904309F41EC2F2C4843021E320
S1130A70920709F47FC3E0F4853020E3920709F478
S1130A80B2C250F4833020E3920709F45CC284308C
S1130A90904309F480C2DCC4823021E3920709F454
S1130AA0FFC208F032C38130914309F4C4C2D0C4F8
S1130AB0833121E3920709F4F3C350F4813121E334
S1130AC0920709F482C38231914309F4B4C3C0C4C8
S1130AD0853121E3920709F44FC408F417C4863121
S1130AE0914309F47FC4B4C48091C2039091C303B9
S1130AF09093CC058093CB058091C4039091C5035A
S1130B009093CE058093CD058091C6039091C70341
S1130B109093D0058093CF058091C8039091C90329
S1130B209093D2058093D1051092D3051092D405E9
S1130B301092D50508958091CC039091CD039093A4
S1130B40CC058093CB058091CE039091CF039093F5
S1130B50CE058093CD058091D0039091D1039093DD
S1130B60D0058093CF058091FA039091FB03909375
S1130B70D2058093D1051092D30581E08093D405EA
S1130B801092D50508958091CC039091CD03909354
S1130B90CC058093CB058091CE039091CF039093A5
S1130BA0CE058093CD058091D0039091D10390938D
S1130BB0D0058093CF058091FA039091FB03909325
S1130BC0D2058093D1051092D30582E08093D40599
S1130BD01092D50508958091CC039091CD03909304
S1130BE0CC058093CB058091CE039091CF03909355
S1130BF0CE058093CD058091D0039091D10390933D
S1130C00D0058093CF058091FA039091FB039093D4
S1130C10D2058093D1051092D30583E08093D40547
S1130C201092D50508958091D2039091D3039093A7
S1130C30CC058093CB058091D4039091D5039093F8
S1130C40CE058093CD058091C2039091C303909308
S1130C50D0058093CF058091FA039091FB03909384
S1130C60D2058093D1051092D30581E08093D405F9
S1130C701092D50508958091D2039091D303909357
S1130C80CC058093CB058091D4039091D5039093A8
S1130C90CE058093CD058091C2039091C3039093B8
S1130CA0D0058093CF058091FA039091FB03909334
S1130CB0D2058093D1051092D30582E08093D405A8
S1130CC01092D50508958091D6039091D7039093FF
S1130CD0CC058093CB058091D8039091D903909350
S1130CE0CE058093CD058091DA039091DB03909338
S1130CF0D0058093CF058091FA039091FB039093E4
S1130D00D2058093D1051092D30581E08093D40558
S1130D101092D50508958091D6039091D7039093AE
S1130D20CC058093CB058091D8039091D9039093FF
S1130D30CE058093CD058091DA039091DB039093E7
S1130D40D0058093CF058091FA039091FB03909393
S1130D50D2058093D1051092D30582E08093D40507
S1130D601092D50508958091D6039091D70390935E
S1130D70CC058093CB058091D8039091D9039093AF
S1130D80CE058093CD058091DA039091DB03909397
S1130D90D0058093CF058091FA039091FB03909343
S1130DA0D2058093D1051092D30583E08093D405B6
S1130DB01092D50508958091DC039091DD03909302
S1130DC0CC058093CB058091DE039091DF03909353
S1130DD0CE058093CD058091E0039091E10390933B
S1130DE0D0058093CF058091FA039091FB039093F3
S1130DF0D2058093D1051092D30581E08093D40568
S1130E001092D50508958091DC039091DD039093B1
S1130E10CC058093CB058091DE039091DF03909302
S1130E20CE058093CD058091E0039091E1039093EA
S1130E30D0058093CF058091FA039091FB039093A2
S1130E40D2058093D1051092D30582E08093D40516
S1130E501092D50508958091DC039091DD03909361
S1130E60CC058093CB058091DE039091DF039093B2
S1130E70CE058093CD058091E0039091E10390939A
S1130E80D0058093CF058091FA039091FB03909352
S1130E90D2058093D1051092D30583E08093D405C5
S1130EA01092D50508958091E2039091E303909305
S1130EB0CC058093CB058091E4039091E503909356
S1130EC0CE058093CD058091E6039091E70390933E
S1130ED0D0058093CF058091FA039091FB03909302
S1130EE0D2058093D1051092D30581E08093D40577
S1130EF01092D50508958091E2039091E3039093B5
S1130F00CC058093CB058091E4039091E503909305
S1130F10CE058093CD058091E6039091E7039093ED
S1130F20D0058093CF058091FA039091FB039093B1
S1130F30D2058093D1051092D30582E08093D40525
S1130F401092D50508958091E2039091E303909364
S1130F50CC058093CB058091E4039091E5039093B5
S1130F60CE058093CD058091E6039091E70390939D
S1130F70D0058093CF058091FA039091FB03909361
S1130F80D2058093D1051092D30583E08093D405D4
S1130F901092D50508958091E8039091E903909308
S1130FA0CC058093CB058091EA039091EB03909359
S1130FB0CE058093CD058091C2039091C303909395
S1130FC0D0058093CF058091FA039091FB03909311
S1130FD0D2058093D1051092D30581E08093D40586
S1130FE01092D50508958091E8039091E9039093B8
S1130FF0CC058093CB058091EA039091EB03909309
S1131000CE058093CD058091C2039091C303909344
S1131010D0058093CF058091FA039091FB039093C0
S1131020D2058093D1051092D30582E08093D40534
S11310301092D505089580910001813049F4809182
S1131040EC039091ED039093CC058093CB0508C0FD
S11310508091EE039091EF039093CC058093CB05A0
S11310608091F0039091F1039093CE058093CD0588
S11310708091F2039091F3039093D0058093CF0570
S11310808091FA039091FB039093D2058093D1054C
S11310901092D30581E08093D4051092D50508956C
S11310A080910001813049F48091EC039091ED032B
S11310B09093CC058093CB0508C08091EE0390916A
S11310C0EF039093CC058093CB058091F00390912E
S11310D0F1039093CE058093CD058091F203909116
S11310E0F3039093D0058093CF058091FA039091F8
S11310F0FB039093D2058093D1051092D30582E02F
S11311008093D4051092D505089580910001813013
S113111049F48091EC039091ED039093CC05809376
S1131120CB0508C08091EE039091EF039093CC051A
S11311308093CB058091F0039091F1039093CE05B9
S11311408093CD058091F2039091F3039093D005A1
S11311508093CF058091FA039091FB039093D2057D
S11311608093D1051092D30583E08093D405109227
S1131170D505089580910501823049F48091FC03DE
S11311809091FD039093CC058093CB050AC08130E8
S113119041F48091FE039091FF039093CC058093DA
S11311A0CB058091C2039091C3039093CE058093A5
S11311B0CD059093D0058093CF051092D30581E09F
S11311C08093D4051092D505089580910001813053
S11311D049F48091EC039091ED039093CC058093B6
S11311E0CB0508C08091EE039091EF039093CC055A
S11311F08093CB058091F0039091F1039093CE05F9
S11312008093CD058091F2039091F3039093D005E0
S11312108093CF058091FA039091FB039093D205BC
S11312208093D1051092D30582E08093D40581E0A8
S11312308093D505089580910001813049F480910F
S1131240EC039091ED039093CC058093CB0508C0FB
S11312508091EE039091EF039093CC058093CB059E
S11312608091F0039091F1039093CE058093CD0586
S11312708091F2039091F3039093D0058093CF056E
S11312808091FA039091FB039093D2058093D1054A
S11312901092D30582E08093D4058093D5050895F8
S11312A080910001813049F48091EC039091ED0329
S11312B09093CC058093CB0508C08091EE03909168
S11312C0EF039093CC058093CB058091F00390912C
S11312D0F1039093CE058093CD058091F203909114
S11312E0F3039093D0058093CF058091FA039091F6
S11312F0FB039093D2058093D1051092D30582E02D
S11313008093D40583E08093D505089580910001EE
S1131310813049F48091EC039091ED039093CC05D6
S11313208093CB0508C08091EE039091EF039093D6
S1131330CC058093CB058091F0039091F1039093B9
S1131340CE058093CD058091F2039091F3039093A1
S1131350D0058093CF058091FA039091FB0390937D
S1131360D2058093D1051092D30583E08093D405F0
S113137084E08093D505089580910001813049F47B
S11313808091EC039091ED039093CC058093CB0571
S113139008C08091EE039091EF039093CC05809365
S11313A0CB058091F0039091F1039093CE05809347
S11313B0CD058091F2039091F3039093D00580932F
S11313C0CF058091FA039091FB039093D20580930B
S11313D0D1051092D30583E08093D40585E08093F2
S11313E0D505089580910001813049F48091EC0382
S11313F09091ED039093CC058093CB0508C0809128
S1131400EE039091EF039093CC058093CB058091EC
S1131410F0039091F1039093CE058093CD058091D4
S1131420F2039091F3039093D0058093CF058091BC
S1131430FA039091FB039093D2058093D105109207
S1131440D30583E08093D40586E08093D505089581
S113145080910004909101049093CC058093CB0576
S11314608091C2039091C3039093CE058093CD05E0
S11314709093D0058093CF051092D505089580E010
S113148090E080DA9093C5058093C405ECD3E09195
S1131490C405F091C5050688F789E02DF093C305CE
S11314A0E093C2050995E091C405F091C50568EE85
S11314B073E0868997893DD191DA31DA40E060E0C2
S11314C080E03EC4089545D2823071F038F4882318
S11314D009F43AC0813009F44FC07EC08330E1F092
S11314E0843009F461C078C0E091C405F091C50569
S11314F00288F389E02D309709F00995E091C4053D
S1131500F091C505808591853DDA9093C50580935A
S1131510C40564DA04DA62C0E091C405F091C5053B
S11315200088F189E02D309709F00995E091C40510
S1131530F091C5058681978125DA9093C50580933E
S1131540C4054CDAECD94AC0E091C405F091C50554
S11315500484F585E02D309709F00995E091C405E0
S1131560F091C505828193810DDA9093C50580932E
S1131570C40534DAD4D932C0E091C405F091C5056C
S11315800684F785E02D309709F00995E091C405AC
S1131590F091C50584819581F5D99093C505809313
S11315A0C4051CDABCD91AC0E091C405F091C50584
S11315B00488F589E02D309709F00995E091C40578
S11315C0F091C50582859385DDD99093C5058093F7
S11315D0C40504DAA4D902C08F3FD1F08091C205BA
S11315E09091C305FBD0E091C405F091C505068830
S11315F0F789E02DF093C305E093C205309741F0DD
S1131600099568EE73E08091C2059091C30591C07D
S11316100895EEEDF5E08EE096E0118210821382DB
S11316201282158214823696E817F907B1F7E6EDAF
S1131630F5E08EED95E02FEF2193E817F907E1F738
S113164013BE83B7876083BF88EB82BF86B7816090
S113165086BF87B7826087BF789408951F920F92E0
S11316600FB60F9211240BB60F920F931F932F9363
S11316703F934F935F936F937F938F939F93AF9316
S1131680BF93CF93DF93EF93FF9388EB82BFCEEDAD
S1131690D5E00EE016E088819981892B81F08C8158
S11316A09D812A813B818217930731F41D821C821C
S11316B0E881F981099503C001969D838C83269660
S11316C0C017D10741F78091C6059091C7059C01C9
S11316D02F5F3F4F3093C7052093C605843691058D
S11316E089F4E6EDF5E08EED95E0208121502E3F62
S11316F008F420833196E817F907B9F71092C70563
S11317001092C605FF91EF91DF91CF91BF91AF91F8
S11317109F918F917F916F915F914F913F912F9105
S11317201F910F910F900BBE0F900FBE0F901F9043
S11317301895CF93DF936A30710510F46AE070E076
S1131740C091DE05D091DF05C817D90709F43EC062
S1131750AEE0B6E0E4EEF5E0408151814817590768
S1131760B9F13696EA17FB07B9F7CD2B51F0E4EE41
S1131770F5E041E050E0EA01A081B181AB2BF9F43E
S113178002C0C0E0D0E0AE01440F551FFA01EC0FD7
S1131790FD1FEE0FFF1FE252FA4F918380839B01DE
S11317A0ADECBCECFAD5969587959695879596956C
S11317B08795938382831582148281E00CC04F5FE6
S11317C05F4F369648305105B1F604C081E003C03E
S11317D081E001C080E0DF91CF9108952091DE0582
S11317E03091DF052817390759F0E4EEF5E021E0E0
S11317F030E0B9014081518148175907E1F402C032
S113180060E070E0CB01880F991FFC01E60FF71F21
S1131810EE0FFF1FE252FA4F1182108213821282DE
S1131820680F791FFB01EE0FFF1FE252FA4F15827A
S1131830148281E008952F5F3F4F3696283031059A
S1131840C1F680E008958091D6058F3F51F0E7ED11
S1131850F5E021E030E0822FA90191919F3F51F4FE
S113186003C040E050E080E0FA01EA52FA4F1082EF
S11318708F5F08952F5F3F4F2830310561F780E077
S113188008951ABA8FEF8BBBEAE6F0E08081886096
S1131890808389B7826089BF8998919A7894D3DFCD
S11318A080930E06089589B3809580FD15C081FD4F
S11318B015C082FD15C083FD15C084FD15C085FDCE
S11318C015C086FD15C08823D4F414C09093060473
S11318D081E08093C805089595E00DC097E00BC0A2
S11318E094E009C096E007C092E005C093E003C00D
S11318F090E001C091E08091C805882339F30895F0
S11319001F920F920FB60F9211240BB60F922F93C2
S11319103F934F935F936F937F938F939F93AF9373
S1131920BF93EF93FF93F894BEDF7894FF91EF9108
S1131930BF91AF919F918F917F916F915F914F91E3
S11319403F912F910F900BBE0F900FBE0F901F90E1
S11319501895F8948091C805882329F0809106048D
S11319601092C80501C08FEF7894089598E01B98F1
S1131970882314F41C9A01C01C98880F00000000EE
S113198000001B9A00000000915089F7089580E040
S113199090E00196883B9105E1F70895CF93C82F15
S11319A01E9A8AEFE3DF8C2F807FE0DF8C2F8295F5
S11319B0807FDCDF1E98EBDFCF910895CF93C82F93
S11319C01E9A88EFD3DF8C2F807FD0DF8C2F8295F7
S11319D0807FCCDFDCDF1E98CF91089581E0EEDFBD
S11319E080E090E00196811520E39207D9F70895ED
S11319F0623089F018F4613031F00BC0633029F0A3
S1131A00643029F006C090E807C098E805C098E95A
S1131A1003C098E901C090E9813110F4892BCECF3D
S1131A200895BCCF08951F93CF93DF93EC01888171
S1131A30882349F010E0B2DF1F5FFE01E10FF11DC2
S1131A4080818111F8CFDF91CF911F9108958F92FA
S1131A509F92AF92BF92CF92DF92EF92FF924B018F
S1131A605C0173D36B017C014AE06DEA75E0C60149
S1131A70A3D48DEA95E0D7DF8EE290DFB601882704
S1131A8077FD8095982F94D39B01AC01C501B401D7
S1131A908FD220E030E048EC52E416D456D3DC0177
S1131AA0CB014AE06DEA75E087D48DEA95E0BBDFAF
S1131AB0FF90EF90DF90CF90BF90AF909F908F906A
S1131AC00895DF92EF92FF920F931F93CF93DF93CA
S1131AD0D82F142F653008F064E0662309F4B6C0EB
S1131AE0C1E02111C0E0C195623099F018F4613071
S1131AF091F505C06330C1F0643009F12CC08D2F1D
S1131B0086956894FF24F7F8F80E6894EE24E7F8B5
S1131B1024C08D2F86956894FF24F7F8F80E0F2EB5
S1131B20F0E9EF2EF02D19C08D2F86950F2EF8E8D1
S1131B30FF2EF02DF80E6894EE24E7F80EC08D2FDA
S1131B4086950F2EF8E8FF2EF02DF80E0F2EF0E9F3
S1131B50EF2EF02D02C0E12CF12C84E32FDF8D2F2A
S1131B608170912F9170D12BD0FD16C0169500E095
S1131B70D12C802F8E0D22DF8F2D20DF112341F0F9
S1131B80DD2D8C2F0BDF8C2F09DFDF5FD113F9CF15
S1131B900F5F003171F757C081111DC0992309F4FB
S1131BA052C0169500E0D12C802F8E0D07DF8F2DAB
S1131BB005DF112341F0DD2D8C2FF0DE8C2FEEDEBE
S1131BC0DF5FD113F9CF8C2FE9DE8D2DE7DE0F5FB8
S1131BD0003151F738C091111EC01695115000E024
S1131BE0802F8E0DEBDE8F2DE9DE80E0D7DE8C2F8B
S1131BF0D5DE112341F0D0E08C2FD0DE8C2FCEDE49
S1131C00DF5F1D13F9CF8C2FC9DE80E0C7DE0F5FC5
S1131C10003131F718C0169500E0802F8E0DCEDE0E
S1131C208F2DCCDE80E0BADE8C2FB8DE112341F09C
S1131C30D0E08C2FB3DE8C2FB1DEDF5FD113F9CF70
S1131C400F5F003151F780E3B9DE05C0C1E0211117
S1131C50C0E0C19554CFDF91CF911F910F91FF90B8
S1131C60EF90DF9008951F93CF93DF9384E3A6DE74
S1131C70D0E810E18D2FA2DE80E8A0DEC12F80E045
S1131C808DDE80E08BDEC150D1F7DF5FD03991F774
S1131C9010E18D2F93DE80E891DEC12F80E07EDE9F
S1131CA080E07CDEC150D1F7DF5FD03A91F7D0E815
S1131CB010E18D2F83DE88E881DEC12F80E06EDEA7
S1131CC080E06CDEC150D1F7DF5FD03991F710E1CD
S1131CD08D2F74DE88E872DEC12F80E05FDE80E045
S1131CE05DDEC150D1F7DF5FD03A91F780E366DE65
S1131CF0DF91CF911F91089582B1886F82B91D98A9
S1131D0080E090E00196811520EF9207D9F71D9AA3
S1131D101F9880E090E00196811520E39207D9F79F
S1131D2080E34CDE8CE04ADE81E048DE82E046DE81
S1131D3080E844DE84E042DE8CE040DE94CF089507
S1131D401F93CF93DF93C82F162FD42F80910804AD
S1131D50C81731F1CC2319F0C13089F01FC020E03D
S1131D6044E064E080E0ADDE20E044E064E086E04E
S1131D70A8DE20E044E064E08CE0A3DE0FC020E0B5
S1131D8044E064E080E09DDE21E044E064E086E03D
S1131D9098DE21E044E064E08CE093DEC093080424
S1131DA0123051F0133071F0113089F461E080E0A9
S1131DB01FDE8AE2F3DD0BC062E080E019DE8AE216
S1131DC0EDDD05C063E080E013DE8AE2E7DD8091AB
S1131DD007048D1709F4E4C08D2F90E08730910536
S1131DE008F0DCC0FC01EA5BFF4FD1C221E041E016
S1131DF062E08CE066DE21E041E062E08AE061DEE0
S1131E0021E041E063E08DE05CDE21E041E063E05D
S1131E108CE057DE21E041E063E08AE052DE21E01D
S1131E2041E062E08DE04DDEB9C021E041E062E0D6
S1131E308CE047DE21E041E062E08AE042DE21E01E
S1131E4041E063E08DE03DDE21E041E063E08CE0D1
S1131E5038DE21E041E063E08AE033DE20E041E067
S1131E6062E08DE02EDE9AC021E041E062E08DE088
S1131E7028DE21E041E062E08AE023DE21E041E067
S1131E8063E08DE01EDE21E041E063E08CE019DEDA
S1131E9021E041E063E08AE014DE20E041E062E01A
S1131EA08CE00FDE7BC021E041E062E08DE009DEE2
S1131EB021E041E062E08CE004DE21E041E063E007
S1131EC08DE0FFDD21E041E063E08CE0FADD21E01C
S1131ED041E063E08AE0F5DD20E041E062E08AE091
S1131EE0F0DD5CC021E041E062E08DE0EADD21E06C
S1131EF041E062E08CE0E5DD21E041E062E08AE07F
S1131F00E0DD21E041E063E08CE0DBDD21E041E065
S1131F1063E08AE0D6DD20E041E063E08DE0D1DDDE
S1131F203DC021E041E062E08DE0CBDD21E041E015
S1131F3062E08CE0C6DD21E041E062E08AE0C1DDE0
S1131F4021E041E063E08DE0BCDD21E041E063E0BD
S1131F508AE0B7DD20E041E063E08CE0B2DD1EC042
S1131F6021E041E062E08DE0ACDD21E041E062E0AF
S1131F708CE0A7DD21E041E062E08AE0A2DD21E01F
S1131F8041E063E08DE09DDD21E041E063E08CE031
S1131F9098DD20E041E063E08AE093DDD09307041C
S1131FA086E30CDD80E30ADDDF91CF911F91089574
S1131FB05058BB27AA270ED04DC13ED130F043D193
S1131FC020F031F49F3F11F41EF433C10EF4E09578
S1131FD0E7FB29C1E92F4FD180F3BA1762077307D2
S1131FE08407950718F071F49EF567C10EF4E09527
S1131FF00B2EBA2FA02D0B01B90190010C01CA01BF
S1132000A0011124FF27591B99F0593F50F4503E69
S113201068F11A16F040A22F232F342F4427585F5B
S1132020F3CF469537952795A795F0405395C9F773
S11320307EF41F16BA0B620B730B840BBAF091502B
S1132040A1F0FF0FBB1F661F771F881FC2F70EC0CA
S1132050BA0F621F731F841F48F48795779567959D
S1132060B795F7959E3F08F0B3CF9395880F08F086
S11320709927EE0F9795879508950CD0EBC0E3D080
S113208040F0DAD030F021F45F3F19F0CCC05111A8
S113209015C1CFC0F0D098F39923C9F35523B1F3F8
S11320A0951B550BBB27AA2762177307840738F0C3
S11320B09F5F5F4F220F331F441FAA1FA9F333D022
S11320C00E2E3AF0E0E830D091505040E695001CD6
S11320D0CAF729D0FE2F27D0660F771F881FBB1F92
S11320E0261737074807AB07B0E809F0BB0B802D6C
S11320F0BF01FF2793585F4F2AF09E3F510568F0B8
S113210092C0DCC05F3FECF3983EDCF38695779594
S11321106795B795F7959F5FC9F7880F911D9695B9
S1132120879597F90895E1E0660F771F881FBB1F15
S1132130621773078407BA0720F0621B730B840BC2
S1132140BA0BEE1F88F7E095089504D06894B11196
S1132150B5C0089598D088F09F5790F0B92F99276B
S1132160B751A0F0D1F0660F771F881F991F1AF09E
S1132170BA95C9F712C0B13081F09FD0B1E008958B
S11321809CC0672F782F8827B85F39F0B93FCCF30C
S1132190869577956795B395D9F73EF49095809594
S11321A0709561957F4F8F4F9F4F0895E89409C0B4
S11321B097FB3EF490958095709561957F4F8F4F76
S11321C09F4F9923A9F0F92F96E9BB279395F6958C
S11321D0879577956795B795F111F8CFFAF4BB0F0A
S11321E011F460FF1BC06F5F7F4F8F4F9F4F16C06E
S11321F0882311F096E911C0772321F09EE8872FF8
S1132200762F05C0662371F096E8862F70E060E0B3
S11322102AF09A95660F771F881FDAF7880F96952C
S1132220879597F9089597F99F6780E870E060E0D3
S113223008959FEF80EC089500240A94161617065B
S113224018060906089500240A94121613061406A3
S113225005060895092E0394000C11F4882352F006
S1132260BB0F40F4BF2B11F460FF04C06F5F7F4FBE
S11322708F4F9F4F089557FD9058440F551F59F0A5
S11322805F3F71F04795880F97FB991F61F09F3F5F
S113229079F087950895121613061406551FF2CF88
S11322A04695F1DF08C0161617061806991FF1CFD8
S11322B086957105610508940895E894BB276627FF
S11322C07727CB0197F908950BD0C4CFB5DF28F059
S11322D0BADF18F0952309F0A6CFABCF1124EECFC7
S11322E0CADFA0F3959FD1F3950F50E0551F629F6D
S11322F0F001729FBB27F00DB11D639FAA27F00D5B
S1132300B11DAA1F649F6627B00DA11D661F829F81
S11323102227B00DA11D621F739FB00DA11D621F66
S1132320839FA00D611D221F749F3327A00D611D83
S1132330231F849F600D211D822F762F6A2F112465
S11323409F5750408AF0E1F088234AF0EE0FFF1FB8
S1132350BB1F661F771F881F91505040A9F79E3FEF
S1132360510570F060CFAACF5F3FECF3983EDCF3E9
S1132370869577956795B795F795E7959F5FC1F72C
S1132380FE2B880F911D9695879597F90895EE0F6A
S1132390FF1F0590F491E02D0994A29FB001B39F13
S11323A0C001A39F700D811D1124911DB29F700D5A
S11323B0811D1124911D0895BB274A3031F49923BE
S11323C022F4BDE2909581959F4F01C0BB27FB018C
S11323D05527AA27880F991FAA1FA41710F0A41B1A
S11323E083955051B9F7A05DAA3308F0A95DA19374
S11323F0009779F7B111B1931192CB0100C0DC01C0
S1132400FC01672F71917723E1F7329704C07C9127
S11324106D9370836291AE17BF07C8F30895F89463
S1052420FFCFE8
S113242201FE01FC03020164FFFF00000000000042
S11324320000000001100000000000000000000085
S1132442A10001100110021000000110012000007F
S11324520000000000000000000002100110031040
S11324620000021001300000000000000000000023
S113247200000310021004100000031003100000F7
S1132482000000000000000000000410031005100A
S1132492000004100410000000000000000000000E
S11324A200000510041005100000051000000000D3
S11324B200000000000000000000012001200220B2
S11324C201100120012000000000000000000000B3
S11324D2000002200120032001100220022000003B
S11324E2000000000000000000000320022004207D
S11324F2011003200320000000000000000000007F
S11325020000042003200520011004200420000000
S11325120000000000000000000005200420052047
S1132522011005200520000000000000000000004A
S1132532000001300130023002100130013100008C
S113254200000000000000000000023001300330EF
S113255202100230013200000000000000000000FE
S11325620000033002300430021003300133000053
S113257200000000000000000000043003300430BA
S113258202100430043000000000000000000000CB
S11325920000013104310231013001310131000006
S11325A20000000000000000FF010231013103318C
S11325B2013002311131000000000000000000006F
S11325C2FF010331023104310130033114310000BF
S11325D20000000000000000FF010431033101315A
S11325E20130043104310000000000000000D10277
S11325F2000011311131113112311331023116023D
S11326022402000000000000FF01123112311231D5
S11326121331113102315302610200000000000043
S1132622FF0113311331133111311231023190028E
S11326329F02000000000000FF0114311431143124
S11326421531163103313502460200000000000044
S1132652FF0115311531153116311431033172026E
S11326628302000000000000FF011631163116310A
S1132672143115310331B102C3020000000000001D
S1132682FF01000000000000000000000000000044
S11326920000000000000000000000000000000034
S11326A20000000000000000000000000000000024
S11326B20000000000000000000000000000000014
S11326C20000000000000000000000000000000004
S11326D200000000000000000000000000000000F4
S11326E20000090435043F04450456045B046604EF
S11326F271047C0487049204A104AC04B704C204E8
S1132702CD04D604E304F004FD040C051B052605E0
S11327122F053A0545055605650574058505900599
S11327229E0500000000FFFFFF2020202020202023
S113273220202020202020202000005B315D005B2F
S1132742325D005B335D005B585D003030643030D5
S11327526830306D00B5B1C7B0D1B9B2EE3A00CA33
S1132762B1BCE43A00D7B4CCAC2020B2CBB5A5209E
S113277220B1A8BEAF00B7B5BBD8003E20CFB5CDBF
S1132782B3D7B4CCAC003E20B9A4D7F7C4A3CABD16
S1132792003E20C5E7B4B5C9E8D6C3003E20B1A8BF
S11327A2BEAFC9E8D6C3003E20CDCBB3F6B2CBB59B
S11327B2A5003E20CFB5CDB3D4CBD0D0CAB1BCE4B2
S11327C2003E20C5E7B4B5B4CECAFD003E20B9D858
S11327D2D3DAB1BEBBFA003E20C9E8D6C3CBF8B601
S11327E2A8003E20B5A5CEBBC9E8D6C3003E20C092
S11327F2A9D5B9B0E5003E20D1B9B2EEC4A3CABD91
S1132802D2BB003E20D1B9B2EEC4A3CABDB6FE000B
S11328123E20D1B9B2EEC4A3CABDC8FD003E20CA4F
S1132822B1D0F2BFD8D6C6C4A3CABD003E20B1E01F
S1132832B3CCC5E7B4B5C4A3CABD003E20D5FDD40C
S1132842DAC6F4D3C3003E20B9D8B1D5D6D0003EFF
S113285220D1B9B2EEC9CFCFDE003E20D1B9B2EE5B
S1132862CFC2CFDE003E20D1B9B2EECFC2CFDEB0AE
S1132872D9B7D6B1C8003E20D7EED0A1C5E7B4B5CA
S1132882C6B5C2CA003E20C5E7B4B5CAB1BCE4BCF1
S1132892E4B8F400B7B5BBD82020C8B7C8CF20200D
S11328A2B0EFD6FA003E20B5A5CEBB3A2050610067
S11328B23E20B5A5CEBB3A206D6D48324F003E2076
S11328C2BDA8C9E8D6D02E2E2E002020202000003C
S9030000FC
