S00B00004156522E7372656330
S113000045C0000061C000000C94AE085DC0000053
S11300105BC0000059C0000057C0000055C000007C
S113002053C0000051C000004FC000004DC000008C
S11300304BC0000049C0000047C000003DC700009D
S113004043C0000041C000003FC000003DC00000AC
S11300503BC0000039C0000037C0000035C00000BC
S113006033C0000031C000002FC000002DC00000CC
S11300702BC0000029C0000027C0000025C00000DC
S113008023C0000021C000001FC0000011241FBEB7
S1130090CFEFD0E1DEBFCDBF14E0A0E0B1E0EEEAE7
S11300A0F7E100E00BBF02C007900D92AA39B10737
S11300B0D9F724E0AAE9B4E001C01D92AE3EB2072C
S11300C0E1F703D00C94D50B9BCF0E946F080E94DC
S11300D00E0924D20FD2CBD67DD106D620E048E03B
S11300E061E082E00E94700921E048E062E082E081
S11300F00E94700916D6FECFCF92DF92EF92FF9244
S11301000F931F93CF93DF9300D000D0CDB7DEB70A
S11301101091200381E09091A204911180E08093DA
S1130120A20481E070D10E94710A6B017C014AE053
S1130130BE016F5F7F4FC6010E94A20B61E080E0A9
S11301400E942B09123049F0133061F0113079F418
S113015082E293E00E9454090EC086E293E00E947A
S1130160540909C08AE293E00E94540904C08EE253
S113017093E00E94540961E084E00E942B0980917D
S1130180A304882361F08091A204882321F08FE0E6
S11301900E9444090FC089E00E9444090BC0809169
S11301A0A204882321F087E00E94440903C089E067
S11301B00E94440961E087E00E942B098091A40415
S11301C0882361F08091A204882321F081E20E94B7
S11301D0440907C080E20E94440903C082E00E94EF
S11301E0440962E085E00E942B09CE0101960E9439
S11301F0540963E083E00E942B098091A00490914C
S1130200A10401969093A1048093A004CC9769F46F
S113021080919E0490919F04019690939F048093F3
S11302209E041092A1041092A00480919E049091C7
S11302309F04CC9769F480919C0490919D0401964D
S113024090939D0480939C0410929F0410929E04AA
S113025040919C0450919D044831510549F480918A
S11302609A0490919B04019690939B0480939A0422
S113027000919E0410919F04E2E3F3E09801ADEC39
S1130280BCEC0E94930B96958795969587959695C9
S113029087959C01220F331F880F991F880F991F80
S11302A0880F991F820F931F9801281B390BC901CE
S11302B0805D878398010E94930B96958795969508
S11302C0879596958795805D86839A010E94930B06
S11302D09695879596958795969587959C01220F77
S11302E0331F880F991F880F991F880F991F820F3A
S11302F0931F9A01281B390BC901805D84839A01DD
S11303000E94930B969587959695879596958795D4
S1130310805D838340919A0450919B049A010E94CA
S1130320930B9695879596958795969587959C01B9
S1130330220F331F880F991F880F991F880F991F49
S1130340820F931F9A01281B390BC901805D818399
S11303509A010E94930B9695879596958795969505
S11303608795805D8083CF019FD780911E039091F4
S11303701F038C159D0528F481E08093A404E5D027
S11303800BC080911C0390911D03C816D90620F45C
S11303901092A40480E0D9D00F900F900F900F908A
S11303A0DF91CF911F910F91FF90EF90DF90CF904D
S11303B0089562E086E04FD780911E0390911F0359
S11303C087D763E086E047D780911C0390911D0393
S11303D07FC70895E1E6F0E080818C7F808386E822
S11303E086B980E187B935980895369A349BFECF53
S11303F086EF8A95F1F724B185B190E0982F88278C
S1130400820F911D0895CF92DF92EF92FF92CF93C6
S1130410833089F028F4813041F0823049F036C0CD
S1130420843061F0853069F031C080E187B92EC035
S113043084E087B92BC085E087B928C086E087B9F6
S113044025C087E087B922C0D0DFBC0180E090E0FE
S11304500E94A20A9B01AC01C701B601DED76B0161
S11304607C01C15089F720E030E040E05EE30E9467
S1130470300B20E030E040E85AE30E94300B20E0EB
S113048030E04AE754E40E94300B05C0C8E0C12CB8
S1130490D12C7601D9CFCF91FF90EF90DF90CF9000
S11304A00895809100019091010120E1E5E6F0E0DA
S11304B0992314F4C59A01C0C598880F991F38E18F
S11304C03A95F1F700C030813860308338E13A95CD
S11304D0F1F700C03081377F308338E13A95F1F786
S11304E000C0215029F7C79A88E18A95F1F700C026
S11304F0C798089587B3806E87BBE4E6F0E08081F7
S113050088618083E5E6F0E08081877F8083C798F7
S1130510808180618083C698C4CF0895B89AE1E64B
S1130520F0E0808188608083E4E6F0E0808181608F
S11305308083C09AE2E6F0E0808188608083E5E60B
S1130540F0E080818E7F80830895882311F0C09825
S11305500895C09A08957BD661E080E07CD68091AE
S1130560AC049091AD04A0D662E080E074D6809192
S1130570AE049091AF0498D663E080E06CD680918D
S1130580B0049091B10490D664E080E064D6809188
S1130590B2049091B30488D68091B404823051F0AF
S11305A0833071F0813089F461E080E054D68AE2CE
S11305B06BC6089562E080E04ED68AE265C608956F
S11305C063E080E048D68AE25FC608952091020184
S11305D0309103012817390759F0EAE1F1E021E0ED
S11305E030E0B901408151814817590791F402C0A4
S11305F060E070E0CB01880F991F680F791FCB0171
S1130600880F991F880F991F880F991F8E5F9E4F1F
S113061008952F5F3F4F78962431310511F780E01C
S113062090E00895E091A704F091A804808191815D
S1130630843020E2920709F4A4C178F5843020E1E3
S1130640920709F4EAC0A0F4813020E1920709F48A
S113065078C020F4892B09F451C00895823020E138
S1130660920709F492C08330904109F4B2C008950E
S1130670813020E2920709F418C128F485309041B2
S113068009F4EFC00895823020E2920709F431C1E1
S11306908330904209F451C10895833020E39207D6
S11306A009F423C288F4863020E2920709F4B1C128
S11306B008F48BC1813020E3920709F4CEC1823063
S11306C0904309F4EEC10895813021E3920709F4BF
S11306D078C250F4843020E3920709F42AC28530AA
S11306E0904309F44AC20895823021E3920709F441
S11306F099C28330914309F4C6C208958091E202FD
S11307009091E3029093AD048093AC048091E40251
S11307109091E5029093AF048093AE048091E60239
S11307209091E7029093B1048093B0048091E80221
S11307309091E9029093B3048093B2041092B404AC
S113074008958091EC029091ED029093AD04809312
S1130750AC048091EE029091EF029093AF048093E9
S1130760AE048091F0029091F1029093B1048093D1
S1130770B00480911A0390911B039093B304809367
S1130780B20481E08093B40408958091EC029091C6
S1130790ED029093AD048093AC048091EE029091AD
S11307A0EF029093AF048093AE048091F002909195
S11307B0F1029093B1048093B00480911A03909154
S11307C01B039093B3048093B20482E08093B40437
S11307D008958091EC029091ED029093AD04809382
S11307E0AC048091EE029091EF029093AF04809359
S11307F0AE048091F0029091F1029093B104809341
S1130800B00480911A0390911B039093B3048093D6
S1130810B20483E08093B40408958091F20290912D
S1130820F3029093AD048093AC048091F402909110
S1130830F5029093AF048093AE048091E20290910C
S1130840E3029093B1048093B00480911A039091D1
S11308501B039093B3048093B20481E08093B404A7
S113086008958091F2029091F3029093AD048093E5
S1130870AC048091F4029091F5029093AF048093BC
S1130880AE048091E2029091E3029093B1048093CC
S1130890B00480911A0390911B039093B304809346
S11308A0B20482E08093B40408958091F60290919A
S11308B0F7029093AD048093AC048091F802909178
S11308C0F9029093AF048093AE048091FA02909160
S11308D0FB029093B1048093B00480911A03909129
S11308E01B039093B3048093B20481E08093B40417
S11308F008958091F6029091F7029093AD0480934D
S1130900AC048091F8029091F9029093AF04809323
S1130910AE048091FA029091FB029093B10480930B
S1130920B00480911A0390911B039093B3048093B5
S1130930B20482E08093B40408958091F602909109
S1130940F7029093AD048093AC048091F8029091E7
S1130950F9029093AF048093AE048091FA029091CF
S1130960FB029093B1048093B00480911A03909198
S11309701B039093B3048093B20483E08093B40484
S113098008958091FC029091FD029093AD048093B0
S1130990AC048091FE029091FF029093AF04809387
S11309A0AE0480910003909101039093B10480936D
S11309B0B00480911A0390911B039093B304809325
S11309C0B20481E08093B40408958091FC02909174
S11309D0FD029093AD048093AC048091FE0290914B
S11309E0FF029093AF048093AE0480910003909132
S11309F001039093B1048093B00480911A03909101
S1130A001B039093B3048093B20482E08093B404F4
S1130A1008958091FC029091FD029093AD0480931F
S1130A20AC048091FE029091FF029093AF048093F6
S1130A30AE0480910003909101039093B1048093DC
S1130A40B00480911A0390911B039093B304809394
S1130A50B20483E08093B4040895809102039091DA
S1130A6003039093AD048093AC04809104039091AC
S1130A7005039093AF048093AE0480910603909194
S1130A8007039093B1048093B00480911A0390916A
S1130A901B039093B3048093B20481E08093B40465
S1130AA0089580910203909103039093AD04809381
S1130AB0AC0480910403909105039093AF04809358
S1130AC0AE0480910603909107039093B104809340
S1130AD0B00480911A0390911B039093B304809304
S1130AE0B20482E08093B40408958091020390914B
S1130AF003039093AD048093AC048091040390911C
S1130B0005039093AF048093AE0480910603909103
S1130B1007039093B1048093B00480911A039091D9
S1130B201B039093B3048093B20483E08093B404D2
S1130B30089580910803909109039093AD048093E4
S1130B40AC0480910A0390910B039093AF048093BB
S1130B50AE048091E2029091E3029093B1048093F9
S1130B60B00480911A0390911B039093B304809373
S1130B70B20481E08093B4040895809108039091B5
S1130B8009039093AD048093AC0480910A0390917F
S1130B900B039093AF048093AE048091E202909192
S1130BA0E3029093B1048093B00480911A0390916E
S1130BB01B039093B3048093B20482E08093B40443
S1130BC0089580912003813049F480910C03909121
S1130BD00D039093AD048093AC0408C080910E0380
S1130BE090910F039093AD048093AC048091100313
S1130BF0909111039093AF048093AE0480911203FB
S1130C00909113039093B1048093B00480911A03DC
S1130C1090911B039093B3048093B20481E080937A
S1130C20B404089580912003813049F480910C0329
S1130C3090910D039093AD048093AC0408C080910F
S1130C400E0390910F039093AD048093AC048091B4
S1130C501003909111039093AF048093AE0480919C
S1130C601203909113039093B1048093B004809184
S1130C701A0390911B039093B3048093B20482E00F
S1130C808093B404089580912003813049F48091C5
S1130C900C0390910D039093AD048093AC0408C0B1
S1130CA080910E0390910F039093AD048093AC0454
S1130CB080911003909111039093AF048093AE043C
S1130CC080911203909113039093B1048093B00424
S1130CD080911A0390911B039093B3048093B20400
S1130CE083E08093B404089580E090E06FDC9093F7
S1130CF0A8048093A704DC015696ED91FC915797C4
S1130D00F093A604E093A5040995E091A704F0915B
S1130D10A80468EE73E08689978939D183DC1BCCFB
S1130D20089545D2823071F038F4882309F43AC02A
S1130D30813009F44FC07EC08330E1F0843009F47F
S1130D4061C078C0E091A704F091A8040288F389F7
S1130D50E02D309709F00995E091A704F091A804DB
S1130D608085918533DC9093A8048093A7045ADC92
S1130D70F2DB62C0E091A704F091A8040088F18935
S1130D80E02D309709F00995E091A704F091A804AB
S1130D90868197811BDC9093A8048093A70442DC8E
S1130DA0DADB4AC0E091A704F091A8040484F58535
S1130DB0E02D309709F00995E091A704F091A8047B
S1130DC08281938103DC9093A8048093A7042ADC96
S1130DD0C2DB32C0E091A704F091A8040684F78531
S1130DE0E02D309709F00995E091A704F091A8044B
S1130DF084819581EBDB9093A8048093A70412DC93
S1130E00AADB1AC0E091A704F091A8040488F5892C
S1130E10E02D309709F00995E091A704F091A8041A
S1130E2082859385D3DB9093A8048093A704FADB8F
S1130E3092DB02C08F3FD1F08091A5049091A6046B
S1130E40FBD0E091A704F091A8040688F789E02D6F
S1130E50F093A604E093A504309741F0099568EE59
S1130E6073E08091A5049091A60491C00895EDEBE0
S1130E70F4E08DEE94E011821082138212821582C6
S1130E8014823696E817F907B1F7E5EBF4E08DEB39
S1130E9094E02FEF2193E817F907E1F713BE83B726
S1130EA0876083BF88EB82BF86B7816086BF87B7C0
S1130EB0826087BF789408951F920F920FB60F92A5
S1130EC011240BB60F920F931F932F933F934F93BD
S1130ED05F936F937F938F939F93AF93BF93CF93BE
S1130EE0DF93EF93FF9388EB82BFCDEBD4E00DEE5D
S1130EF014E088819981892B81F08C819D812A81DC
S1130F003B818217930731F41D821C82E881F981A9
S1130F10099503C001969D838C832696C017D1073B
S1130F2041F78091A9049091AA049C012F5F3F4F3F
S1130F303093AA042093A9048436910589F4E5EB3F
S1130F40F4E08DEB94E0208121502E3F08F42083BF
S1130F503196E817F907B9F71092AA041092A90478
S1130F60FF91EF91DF91CF91BF91AF919F918F91BD
S1130F707F916F915F914F913F912F911F910F91AD
S1130F800F900BBE0F900FBE0F901F901895CF932C
S1130F90DF936A30710510F46AE070E0C091BD041B
S1130FA0D091BE04C817D90709F43EC0ADEEB4E031
S1130FB0E3ECF4E04081518148175907B9F13696C2
S1130FC0EA17FB07B9F7CD2B51F0E3ECF4E041E06D
S1130FD050E0EA01A081B181AB2BF9F402C0C0E07A
S1130FE0D0E0AE01440F551FFA01EC0FFD1FEE0FC8
S1130FF0FF1FE354FB4F918380839B01ADECBCEC5A
S113100092D396958795969587959695879593838C
S113101082831582148281E00CC04F5F5F4F369645
S113102048305105B1F604C081E003C081E001C03D
S113103080E0DF91CF9108952091BD043091BE04EA
S11310402817390759F0E3ECF4E021E030E0B90166
S11310504081518148175907E1F402C060E070E013
S1131060CB01880F991FFC01E60FF71FEE0FFF1F3E
S1131070E354FB4F1182108213821282680F791F8E
S1131080FB01EE0FFF1FE354FB4F1582148281E036
S113109008952F5F3F4F369628303105C1F680E022
S11310A008958091B5048F3F51F0E6EBF4E021E020
S11310B030E0822FA90191919F3F51F403C040E099
S11310C050E080E0FA01EB54FB4F10828F5F0895EB
S11310D02F5F3F4F2830310561F780E008951ABA39
S11310E08FEF8BBBEAE6F0E080818860808389B76C
S11310F0826089BF8998919A7894D3DF8093ED04B4
S1131100089589B3809580FD15C081FD15C082FDC9
S113111015C083FD15C084FD15C085FD15C086FD71
S113112015C08823D4F414C09093210381E08093E4
S1131130AB04089595E00DC097E00BC094E009C09E
S113114096E007C092E005C093E003C090E001C0C0
S113115091E08091AB04882339F308951F920F9294
S11311600FB60F9211240BB60F922F933F934F9308
S11311705F936F937F938F939F93AF93BF93EF93FB
S1131180FF93F894BEDF7894FF91EF91BF91AF91F4
S11311909F918F917F916F915F914F913F912F918B
S11311A00F900BBE0F900FBE0F901F901895F894E0
S11311B08091AB04882329F0809121031092AB0421
S11311C001C08FEF7894089598E0882314F41C9A52
S11311D001C01C98880F1B9A0000000000001B9897
S11311E0000000000000915081F7089580E090E035
S11311F00196873D23E09207D9F70895CF93C82F2E
S11312001E9A88EFE1DF8C2F807FDEDF8C2F8295A2
S1131210807FDADFEBDF1E98CF91089582B1886F6B
S113122082B91D9A1F9880E090E00196811520E311
S11312309207D9F780E3E2DF81E0E0DF82E0DEDFDE
S113124080E8DCDF86E0DADF8CE0D8CF089581E047
S1131250D5DFCCCF0895623089F018F4613031F0D5
S11312600BC0633029F0643029F006C090E807C051
S113127098E805C098E903C098E901C090E9813174
S113128010F4892BBBCF0895CF93C82F1E9AAEDFDD
S11312908AEF9ADF8C2F807F97DF8C2F8295807F57
S11312A093DF1E98CF9108951F93CF93DF93EC01A2
S11312B08881882349F010E0E7DF1F5FFE01E10F1A
S11312C0F11D80818111F8CFDF91CF911F91089595
S11312D04AE064E473E036D284E493E0E5CF089511
S11312E0CF92DF92EF92FF920F931F93CF93DF93EE
S11312F0C82F062FD42F122F84E380DF86E37EDFEE
S1131300DC1BDF5FDD0F602F053008F064E066232F
S113131059F06230A9F018F46130D1F505C063309A
S1131320E1F0643039F134C00F2EFFE7DF2EF02DE9
S1131330DC0E6894EE24E7F86894FF24F7F82BC0D9
S11313400F2EFFE7DF2EF02DDC0E6894EE24E7F875
S11313500F2EF0E9FF2EF02D1EC00F2EF7E8DF2E22
S1131360F02DDC0E0F2EF8E8EF2EF02D6894FF24FC
S1131370F7F811C00F2EF7E8DF2EF02DDC0E0F2E3C
S1131380F8E8EF2EF02D0F2EF0E9FF2EF02D03C01C
S1131390E12CF12CD12C111115C06894CC24C4F883
S11313A0CF0C8F2D01E0080F29DF8E2D27DFC0E23F
S11313B080E00ADF00000000C150D1F70C1511F0E5
S11313C0802FF0CF00006894CC24C4F8CF0C00E048
S11313D0EE24E394EF0C8F2D11DF8D2D0FDFDD2331
S11313E061F0C02F113019F4802FEEDE02C08FEFB0
S11313F0EBDE0000CF5FCD13F5CFEC1411F0FE2C23
S1131400E7CF80E3FBDEDF91CF911F910F91FF9037
S1131410EF90DF90CF9008955058BB27AA270ED0A5
S1131420E5C0D6D030F0DBD020F031F49F3F11F48A
S11314301EF4CBC00EF4E095E7FBC1C0E92FE7D062
S113144080F3BA17620773078407950718F071F4DD
S11314509EF5FFC00EF4E0950B2EBA2FA02D0B01C4
S1131460B90190010C01CA01A0011124FF27591BE5
S113147099F0593F50F4503E68F11A16F040A22FEB
S1131480232F342F4427585FF3CF4695379527955C
S1131490A795F0405395C9F77EF41F16BA0B620B5B
S11314A0730B840BBAF09150A1F0FF0FBB1F661FA2
S11314B0771F881FC2F70EC0BA0F621F731F841FE5
S11314C048F4879577956795B795F7959E3F08F00B
S11314D0B3CF9395880F08F09927EE0F97958795CA
S11314E0089504D06894B111B5C0089598D088F0D7
S11314F09F5790F0B92F9927B751A0F0D1F0660FFC
S1131500771F881F991F1AF0BA95C9F712C0B13016
S113151081F09FD0B1E008959CC0672F782F882771
S1131520B85F39F0B93FCCF3869577956795B39555
S1131530D9F73EF490958095709561957F4F8F4FC4
S11315409F4F0895E89409C097FB3EF490958095C9
S1131550709561957F4F8F4F9F4F9923A9F0F92F75
S113156096E9BB279395F695879577956795B795F3
S1131570F111F8CFFAF4BB0F11F460FF1BC06F5FD9
S11315807F4F8F4F9F4F16C0882311F096E911C0EB
S1131590772321F09EE8872F762F05C0662371F00C
S11315A096E8862F70E060E02AF09A95660F771F20
S11315B0881FDAF7880F9695879597F9089597F914
S11315C09F6780E870E060E008959FEF80EC0895E5
S11315D000240A941616170618060906089500240E
S11315E00A9412161306140605060895092E039488
S11315F0000C11F4882352F0BB0F40F4BF2B11F4FC
S113160060FF04C06F5F7F4F8F4F9F4F089557FD5A
S11316109058440F551F59F05F3F71F04795880F5C
S113162097FB991F61F09F3F79F0879508951216F3
S113163013061406551FF2CF4695F1DF08C016169F
S113164017061806991FF1CF869571056105089450
S11316500895E894BB2766277727CB0197F9089567
S11316600BD0C4CFB5DF28F0BADF18F0952309F00A
S1131670A6CFABCF1124EECFCADFA0F3959FD1F351
S1131680950F50E0551F629FF001729FBB27F00D2C
S1131690B11D639FAA27F00DB11DAA1F649F662781
S11316A0B00DA11D661F829F2227B00DA11D621FD0
S11316B0739FB00DA11D621F839FA00D611D221F8A
S11316C0749F3327A00D611D231F849F600D211D6E
S11316D0822F762F6A2F11249F5750408AF0E1F011
S11316E088234AF0EE0FFF1FBB1F661F771F881F5A
S11316F091505040A9F79E3F510570F060CFAACF9A
S11317005F3FECF3983EDCF3869577956795B79544
S1131710F795E7959F5FC1F7FE2B880F911D96956E
S1131720879597F90895A29FB001B39FC001A39F25
S1131730700D811D1124911DB29F700D811D112406
S1131740911D0895BB274A3031F4992322F4BDE258
S1131750909581959F4F01C0BB27FB015527AA2770
S1131760880F991FAA1FA41710F0A41B839550512A
S1131770B9F7A05DAA3308F0A95DA193009779F7A2
S1131780B111B1931192CB0100C0DC01FC01672FB0
S113179071917723E1F7329704C07C916D93708344
S11117A06291AE17BF07C8F30895F894FFCF07
S11317AEFFFF000000000000000000000110000018
S11317BE00000000000000007C0001100110021067
S11317CE00000110012000000000000000000000D5
S11317DE000002100110031000000210013000007E
S11317EE00000000000000000000031002100410AE
S11317FE00000310031000000000000000000000B1
S113180E0000041003100510000004100410000062
S113181E0000000000000000000005100410051078
S113182E0000051000000000000000000000000091
S113183E00000120012002200110012001200000DF
S113184E0000000000000000000002200120032020
S113185E0110022002200000000000000000000021
S113186E00000320022004200110032003200000A6
S113187E00000000000000000000042003200520EA
S113188E01100420042000000000000000000000ED
S113189E000005200420052001100520052000006D
S11318AE0000000000000000000001300130023092
S11318BE02100130013100000000000000000000A1
S11318CE00000230013003300210023001320000F9
S11318DE000000000000000000000330023004305D
S11318EE021003300133000000000000000000006D
S11318FE00000430033004300210043004300000C1
S113190E000000000000000000000131013102312E
S113191E0130013101310000000000000000000020
S113192ED90102310131033101300231023100009B
S113193E0000000000000000D90103310231033120
S113194E01300331033100000000000000000000EC
S113195ED90100000000000000000000000000009B
S113196E0000000000000000000000000000000065
S113197E0000000000000000000000000000000055
S113198E00003C034903530359036A036F037A03AC
S113199E850390039B03A603B503C003CB03D603B1
S11319AEE103EA03F7030404110420042F043A04A8
S11319BE43044E0459046A0479048804580220032B
S11319CE01FF5B315D005B325D005B335D005B5894
S11319DE5D0030306430306830306D0020202020BF
S11319EE202020202020202000B5B1C7B0D1B9B2CC
S11319FEEE3A00CAB1BCE43A00D7B4CCAC2020B263
S1131A0ECBB5A52020B1A8BEAF00B7B5BBD8003E5C
S1131A1E20CFB5CDB3D7B4CCAC003E20B9A4D7F704
S1131A2EC4A3CABD003E20C5E7B4B5C9E8D6C300F9
S1131A3E3E20B1A8BEAFC9E8D6C3003E20CDCBB37D
S1131A4EF6B2CBB5A5003E20CFB5CDB3D4CBD0D016
S1131A5ECAB1BCE4003E20C5E7B4B5B4CECAFD009D
S1131A6E3E20B9D8D3DAB1BEBBFA003E20C9E8D6BF
S1131A7EC3CBF8B6A8003E20B5A5CEBBC9E8D6C3E5
S1131A8E003E20C0A9D5B9B0E5003E20D1B9B2EED2
S1131A9EC4A3CABDD2BB003E20D1B9B2EEC4A3CA00
S1131AAEBDB6FE003E20D1B9B2EEC4A3CABDC8FD78
S1131ABE003E20CAB1D0F2BFD8D6C6C4A3CABD0058
S1131ACE3E20B1E0B3CCC5E7B4B5C4A3CABD003E55
S1131ADE20D5FDD4DAC6F4D3C3003E20B9D8B1D58F
S1131AEED6D0003E20D1B9B2EEC9CFCFDE003E2013
S1131AFED1B9B2EECFC2CFDE003E20D1B9B2EECF15
S1131B0EC2CFDEB0D9B7D6B1C8003E20D7EED0A131
S1131B1EC5E7B4B5C6B5C2CA003E20C5E7B4B5CA5A
S1131B2EB1BCE4BCE4B8F400B7B5BBD82020C8B748
S10D1B3EC8CF2020B0EFD6FA000053
S9030000FC
