S00B00004156522E7372656330
S11300004CC0000068C000000C94830F64C0000062
S113001062C0000060C000005EC000005CC0000060
S11300205AC0000058C0000056C0000054C0000070
S113003052C0000050C000004EC000000C94310EAD
S11300404AC0000048C0000046C0000044C0000090
S113005042C0000040C000003EC000003CC00000A0
S11300603AC0000038C0000036C0000034C00000B0
S113007032C0000030C000002EC000002CC00000C0
S11300802AC0000028C0000026C000000A1229125D
S1130090481267128612A512C41211241FBECFEF94
S11300A0D0E1DEBFCDBF16E0A0E0B1E0E2EAFAE2C3
S11300B000E00BBF02C007900D92AE31B107D9F733
S11300C026E0AEE1B6E001C01D92AF37B207E1F71A
S11300D003D00C944F1594CF0E94440F0E949011AA
S11300E0B1D6B4D50E940C0E20D50E942A0D0E94D0
S11300F04E0DFDCFBC0180910C01823059F480E09B
S113010090E00E94EE1324E43BE84CE650E40C94A7
S1130110A414089580E090E00E94EE1327EE30E0EE
S113012041EC5EE30C94A4140895CF92DF92EF9215
S1130130FF92CF93DF9381E090912606911180E0A6
S11301408093260681E00AD50E94BD136B017C01D1
S113015061E080E00E94FB0F80910301823049F04E
S1130160833061F0813079F486E294E00E941610C5
S11301700EC08AE294E00E94161009C08EE294E058
S11301800E94161004C082E394E00E94161061E0FD
S113019084E00E94FB0F809127068823E1F0809180
S11301A02906882361F080912606882321F08FE0B8
S11301B00E94141013C089E00E9414100FC0809193
S11301C02606882321F087E00E94141007C089E0E6
S11301D00E94141003C080E20E94141061E087E0C2
S11301E00E94FB0F80912A06882361F080912606E5
S11301F0882321F081E20E94141007C080E20E944B
S1130200141003C082E00E94141062E085E00E9492
S1130210FB0F80910C01823031F4C6016BDF40E0AA
S11302200E942A1005C0C60165DF41E00E942A1021
S113023063E083E00E94FB0F80912706882309F482
S1130240DFC080912406909125060196909325069F
S113025080932406CC9769F480912206909123061A
S113026001969093230680932206109225061092FD
S113027024068091220690912306CC9769F48091FC
S113028020069091210601969093210680932006E2
S113029010922306109222064091200650912106C6
S11302A04831510549F480911E0690911F0601962C
S11302B090931F0680931E06C0912206D0912306B8
S11302C0E6E3F4E09E01ADECBCEC0E940D159695BE
S11302D0879596958795969587959C01220F331F50
S11302E0880F991F880F991F880F991F820F931FDA
S11302F09E01281B390BC901805D87839E010E94E2
S11303000D15969587959695879596958795805D15
S113031086839A010E940D159695879596958795E3
S1130320969587959C01220F331F880F991F880F7C
S1130330991F880F991F820F931F9A01281B390B4D
S1130340C901805D84839A010E940D159695879555
S11303509695879596958795805D838340911E0633
S113036050911F069A010E940D15969587959695B2
S11303708795969587959C01220F331F880F991FA7
S1130380880F991F880F991F820F931F9A01281BAA
S1130390390BC901805D81839A010E940D159695E0
S11303A087959695879596958795805D8083CF01EF
S11303B00E941610C6019EDE6B017C01209108018B
S11303C03091090140910A0150910B010E94A0143F
S11303D018162CF41CD581E08093290611C02091B5
S11303E00401309105014091060150910701C701B4
S11303F0B6010E94511388231CF41AD510922906C1
S1130400DF91CF91FF90EF90DF90CF900895CF933D
S1130410C1E080910C01813009F0C0E062E085E028
S11304200E94FB0F609108017091090180910A01FB
S113043090910B014C2F0E942A1063E085E00E94EA
S1130440FB0F609104017091050180910601909168
S113045007014C2F0E942A10CF910895CF92DF926A
S1130460EF92FF9220E030E040E450E46091080114
S11304707091090180910A0190910B010E94ED1283
S11304806B017C0120E030E84DE654E40E945113F6
S1130490181644F0C0920801D0920901E0920A01B2
S11304A0F0920B01FF90EF90DF90CF900895CF92E0
S11304B0DF92EF92FF9220E030E040E450E460915C
S11304C008017091090180910A0190910B010E9429
S11304D0EC126B017C0120910401309105014091E3
S11304E00601509107010E94A014882344F0C09291
S11304F00801D0920901E0920A01F0920B01FF90E9
S1130500EF90DF90CF900895CF92DF92EF92FF9219
S113051020E030E040E450E4609104017091050172
S113052080910601909107010E94ED126B017C01FC
S1130530209108013091090140910A0150910B0169
S11305400E945113882344F4C0920401D0920501FF
S1130550E0920601F0920701FF90EF90DF90CF90B8
S11305600895CF92DF92EF92FF9220E030E040E4D2
S113057050E460910401709105018091060190910D
S113058007010E94EC126B017C0120E030E048EC92
S113059052E40E94A014882344F0C0920401D09233
S11305A00501E0920601F0920701FF90EF90DF90C1
S11305B0CF900895CF92DF92EF92FF9220E030E047
S11305C040EF51E4609108017091090180910A01A2
S11305D090910B010E94ED126B017C0120E030E848
S11305E04DE654E40E945113181644F0C0920801D9
S11305F0D0920901E0920A01F0920B01FF90EF9072
S1130600DF90CF900895CF92DF92EF92FF9220E097
S113061030E040EF51E4609108017091090180914C
S11306200A0190910B010E94EC126B017C01209154
S113063004013091050140910601509107010E9487
S1130640A014882344F0C0920801D0920901E092DA
S11306500A01F0920B01FF90EF90DF90CF90089584
S1130660CF92DF92EF92FF9220E030E040EF51E42E
S11306706091040170910501809106019091070138
S11306800E94ED126B017C01209108013091090157
S113069040910A0150910B010E945113882344F4A4
S11306A0C0920401D0920501E0920601F092070184
S11306B0FF90EF90DF90CF900895CF92DF92EF926A
S11306C0FF9220E030E040EF51E46091040170912A
S11306D0050180910601909107010E94EC126B01C3
S11306E07C0120E030E048EC52E40E94A01488230E
S11306F044F0C0920401D0920501E0920601F09208
S11307000701FF90EF90DF90CF900895CF92DF9292
S1130710EF92FF9220E030E046E953E46091080153
S11307207091090180910A0190910B010E94ED12D0
S11307306B017C0120E030E84DE654E40E94511343
S1130740181644F0C0920801D0920901E0920A01FF
S1130750F0920B01FF90EF90DF90CF900895CF922D
S1130760DF92EF92FF9220E030E046E953E460919B
S113077008017091090180910A0190910B010E9476
S1130780EC126B017C012091040130910501409130
S11307900601509107010E94A014882344F0C092DE
S11307A00801D0920901E0920A01F0920B01FF9036
S11307B0EF90DF90CF900895CF92DF92EF92FF9267
S11307C020E030E046E953E46091040170910501B2
S11307D080910601909107010E94ED126B017C014A
S11307E0209108013091090140910A0150910B01B7
S11307F00E945113882344F4C0920401D09205014D
S1130800E0920601F0920701FF90EF90DF90CF9005
S11308100895CF92DF92EF92FF9220E030E046E914
S113082053E4609104017091050180910601909157
S113083007010E94EC126B017C0120E030E048ECDF
S113084052E40E94A014882344F0C0920401D09280
S11308500501E0920601F0920701FF90EF90DF900E
S1130860CF90089580910C018230E1F581E080936E
S11308700C0124E43BE84CE650E4609108017091DB
S1130880090180910A0190910B010E94551327EEF2
S113089030E041EC5EE30E94A4146093080170937D
S11308A0090180930A0190930B0124E43BE84CE690
S11308B050E46091040170910501809106019091CA
S11308C007010E94551327EE30E041EC5EE30E94DD
S11308D0A41460930401709305018093060190931E
S11308E00701089582E080930C0127EE30E041EC8B
S11308F05EE3609108017091090180910A01909171
S11309000B010E94551324E43BE84CE650E40E949A
S1130910A414609308017093090180930A019093D1
S11309200B0127EE30E041EC5EE36091040170912D
S1130930050180910601909107010E94551324E45A
S11309403BE84CE650E40E94A414609304017093C5
S11309500501809306019093070108951F93CF9397
S1130960DF93EC01162F80E00E94FB0F8091C903F6
S11309709091CA030E941610612F80E00E94FB0F21
S1130980CE010E941610DF91CF911F910895FF921E
S11309900F931F93CF93DF9363E080E494E0DEDF53
S11309A080E090ECA2E1B0E00197A109B1090097C1
S11309B0A105B105C9F763E08DE494E0CFDF81E0E0
S11309C07FD2C0910201CC23C9F0F12C00EC12E1DA
S11309D0D0E063E087E00E94FB0F8C2F90E00E9440
S11309E06D108F2D902FA12FBD2F0197A109B10953
S11309F00097A105B105C9F7C15059F763E08BE52C
S1130A0094E0ACDF81E04FD2C0910101CC23C9F066
S1130A10F12C00EC12E1D0E063E087E00E94FB0FD0
S1130A208C2F90E00E946D108F2D902FA12FBD2F41
S1130A300197A109B1090097A105B105C9F7C150F2
S1130A4059F782E030D263E089E694E087DF80E002
S1130A5090E8A5E2B0E00197A109B1090097A105CA
S1130A60B105C9F763E087E794E078DF81E080931C
S1130A702706DF91CF911F910F91FF900895FF9268
S1130A800F931F93CF93DF9363E080E00E94FB0FEB
S1130A9063E08DE794E062DF1092270680E003D2E2
S1130AA080E090ECA2E1B0E00197A109B1090097C0
S1130AB0A105B105C9F7C0910001CC23C9F0F12CFF
S1130AC000EC12E1D0E063E087E00E94FB0F8C2F82
S1130AD090E00E946D108F2D902FA12FBD2F0197B4
S1130AE0A109B1090097A105B105C9F7C15059F78A
S1130AF063E089E894E032DF80E0E2D180E090E4D2
S1130B00A8E3B0E00197A109B1090097A105B105D7
S1130B10C9F763E086E994E021DF10922806DF91AB
S1130B20CF911F910F91FF900895E1E6F0E080814D
S1130B308C7F808386E886B980E187B935980895EB
S1130B40369A349BFECF86EF8A95F1F724B185B1AE
S1130B5090E0982F8827820F911D0895CF92DF92FD
S1130B60EF92FF92CF93833089F028F4813041F0E3
S1130B70823049F037C0843061F0853069F032C08A
S1130B8080E187B92FC084E087B92CC085E087B99C
S1130B9029C086E087B926C087E087B923C0D0DFA3
S1130BA0BC0180E090E00E94EE139B01AC01C70100
S1130BB0B6010E94ED126B017C01C15081F720E067
S1130BC030E040E05EE30E94A41420E030E040E81E
S1130BD05AE30E94A41420E030E04AE754E40E945F
S1130BE0A41405C0C8E0C12CD12C7601D8CFCF9174
S1130BF0FF90EF90DF90CF90089580910F01909136
S1130C00100120E1E5E6F0E0992314F4C59A01C04F
S1130C10C598880F991F38E13A95F1F700C03081E3
S1130C203860308338E13A95F1F700C03081377F7E
S1130C30308338E13A95F1F700C0215029F7C79A7B
S1130C4088E18A95F1F700C0C798089587B3806E4C
S1130C5087BBE4E6F0E0808188618083E5E6F0E02C
S1130C608081877F8083C798808180618083C698D4
S1130C70C4CF0895813198F421E030E0A90102C085
S1130C80440F551F8A95E2F7CA0120910F01309154
S1130C901001822B932B9093100180930F01ADCF01
S1130CA008958131A8F421E030E0A90102C0440F85
S1130CB0551F8A95E2F7CA018095909520910F01FE
S1130CC030911001822393239093100180930F019C
S1130CD094CF089580913006811128C080912E060A
S1130CE090912F06892B11F580912C0690912D0659
S1130CF0892BE1F480E0D5DF81E080932B0680919D
S1130D002E0690912F06019690932F0680932E061F
S1130D1030910E012DEC329F212D1124269526951C
S1130D20269530E082179307B1F527C040912B0632
S1130D304423B9F080912E0690912F06019690934A
S1130D402F0680932E0630910E012DEC329F212D1B
S1130D50112426952695269530E082179307D9F419
S1130D600AC080912C0690912D06019690932D0631
S1130D7080932C0610C0413071F4809130067ADFE4
S1130D8010922B0610922F0610922E068091300698
S1130D908F5F8093300620910D0184E6289F900197
S1130DA0112480912C0690912D062817390771F48F
S1130DB080912B0681110AC08091300672DF81E098
S1130DC080932B0610922D0610922C0680913006EB
S1130DD08031E1F41092300610922D0610922C0608
S1130DE010922F0610922E068091390690913A06A1
S1130DF0019690933A0680933906809131068111C9
S1130E0005C08AE696E0EDD780E03DC00895809164
S1130E10310681110BC081E08093310634D06AE041
S1130E2070E08AE696E088D780E0089581E008952E
S1130E3080913106882321F01092310680E00895D4
S1130E4081E00895B89AE1E6F0E0808188608083CB
S1130E50E4E6F0E08081816080838F9A8E9A8D9A97
S1130E608C9AC09AE2E6F0E0808188608083E5E6AF
S1130E70F0E080818E7F808382B38F7082BB84B3E5
S1130E80807F84BB0895882339F0E2E6F0E0808116
S1130E90877F8083979A0895E2E6F0E080818860F6
S1130EA0808397980895813019F4969A95980895B7
S1130EB0823019F49698959A08959598969808957D
S1130EC0813011F4949A08959498089583B382FB21
S1130ED0882780F991E0892708950E94F10F61E045
S1130EE080E00E94FB0F80913B0690913C060E949B
S1130EF0161062E080E00E94FB0F80913D06909105
S1130F003E060E94161063E080E00E94FB0F809171
S1130F103F06909140060E94161064E080E00E9413
S1130F20FB0F80914106909142060E941610409159
S1130F30450660914406809143060C94B4110895CB
S1130F4020911101309112012817390759F0E9E273
S1130F50F1E021E030E0B90140815181481759079F
S1130F6091F402C060E070E0CB01880F991F680F14
S1130F70791FCB01880F991F880F991F880F991F1C
S1130F808F5E9E4F08952F5F3F4F78962D31310528
S1130F9011F780E090E00895E0913406F091350671
S1130FA080819181823020E3920709F48FC2E0F5B9
S1130FB0813020E2920709F471C1D0F4823020E13B
S1130FC0920709F4CBC040F4009709F46BC0813058
S1130FD0904109F49BC027C5843020E1920709F4AD
S1130FE00DC108F4E3C08530904109F42FC11BC53D
S1130FF0843020E2920709F4C9C150F4823020E21F
S1131000920709F473C18330904209F497C10BC568
S1131010863020E2920709F409C208F4DFC1813066
S1131020904309F42BC2FFC4843021E3920709F4EE
S11310308CC3E0F4853020E3920709F4BFC250F476
S1131040833020E3920709F469C28430904309F4A1
S11310508DC2E9C4823021E3920709F40CC308F07D
S11310603FC38130914309F4D1C2DDC4833121E30C
S1131070920709F400C450F4813121E3920709F482
S11310808FC38231914309F4C1C3CDC4853121E3B7
S1131090920709F45CC408F424C48631914309F42A
S11310A08CC4C1C48091C9039091CA0390933C0637
S11310B080933B068091CB039091CC0390933E06A2
S11310C080933D0680912706882349F08091CD03C3
S11310D09091CE039093400680933F0608C0809180
S11310E0090490910A049093400680933F068091EE
S11310F0CF039091D00390934206809341061092BF
S11311004306109244061092450608958091D30335
S11311109091D40390933C0680933B068091D50331
S11311209091D60390933E0680933D068091D70319
S11311309091D8039093400680933F0680910104D8
S113114090910204909342068093410610924306C4
S113115081E0809344061092450608958091D3035C
S11311609091D40390933C0680933B068091D503E1
S11311709091D60390933E0680933D068091D703C9
S11311809091D8039093400680933F068091010488
S11311909091020490934206809341061092430674
S11311A082E0809344061092450608958091D3030B
S11311B09091D40390933C0680933B068091D50391
S11311C09091D60390933E0680933D068091D70379
S11311D09091D8039093400680933F068091010438
S11311E09091020490934206809341061092430624
S11311F083E0809344061092450608958091D903B4
S11312009091DA0390933C0680933B068091DB0334
S11312109091DC0390933E0680933D068091C90330
S11312209091CA039093400680933F0680910104F5
S113123090910204909342068093410610924306D3
S113124081E0809344061092450608958091D90365
S11312509091DA0390933C0680933B068091DB03E4
S11312609091DC0390933E0680933D068091C903E0
S11312709091CA039093400680933F0680910104A5
S11312809091020490934206809341061092430683
S113129082E0809344061092450608958091DD0310
S11312A09091DE0390933C0680933B068091DF038C
S11312B09091E00390933E0680933D068091E10374
S11312C09091E2039093400680933F06809101043D
S11312D09091020490934206809341061092430633
S11312E081E0809344061092450608958091DD03C1
S11312F09091DE0390933C0680933B068091DF033C
S11313009091E00390933E0680933D068091E10323
S11313109091E2039093400680933F0680910104EC
S113132090910204909342068093410610924306E2
S113133082E0809344061092450608958091DD036F
S11313409091DE0390933C0680933B068091DF03EB
S11313509091E00390933E0680933D068091E103D3
S11313609091E2039093400680933F06809101049C
S11313709091020490934206809341061092430692
S113138083E0809344061092450608958091E30318
S11313909091E40390933C0680933B068091E5038F
S11313A09091E60390933E0680933D068091E70377
S11313B09091E8039093400680933F068091010446
S11313C09091020490934206809341061092430642
S11313D081E0809344061092450608958091E303CA
S11313E09091E40390933C0680933B068091E5033F
S11313F09091E60390933E0680933D068091E70327
S11314009091E8039093400680933F0680910104F5
S113141090910204909342068093410610924306F1
S113142082E0809344061092450608958091E30378
S11314309091E40390933C0680933B068091E503EE
S11314409091E60390933E0680933D068091E703D6
S11314509091E8039093400680933F0680910104A5
S113146090910204909342068093410610924306A1
S113147083E0809344061092450608958091E90321
S11314809091EA0390933C0680933B068091EB0392
S11314909091EC0390933E0680933D068091ED037A
S11314A09091EE039093400680933F06809101044F
S11314B09091020490934206809341061092430651
S11314C081E0809344061092450608958091E903D3
S11314D09091EA0390933C0680933B068091EB0342
S11314E09091EC0390933E0680933D068091ED032A
S11314F09091EE039093400680933F0680910104FF
S11315009091020490934206809341061092430600
S113151082E0809344061092450608958091E90381
S11315209091EA0390933C0680933B068091EB03F1
S11315309091EC0390933E0680933D068091ED03D9
S11315409091EE039093400680933F0680910104AE
S113155090910204909342068093410610924306B0
S113156083E0809344061092450608958091EF032A
S11315709091F00390933C0680933B068091F10395
S11315809091F20390933E0680933D068091C903A7
S11315909091CA039093400680933F068091010482
S11315A09091020490934206809341061092430660
S11315B081E0809344061092450608958091EF03DC
S11315C09091F00390933C0680933B068091F10345
S11315D09091F20390933E0680933D068091C90357
S11315E09091CA039093400680933F068091010432
S11315F09091020490934206809341061092430610
S113160082E0809344061092450608958091030178
S1131610813049F48091F3039091F40390933C0654
S113162080933B0608C08091F5039091F603909354
S11316303C0680933B068091F7039091F8039093C6
S11316403E0680933D068091F9039091FA039093AE
S1131650400680933F068091010490910204909388
S11316604206809341061092430681E0809344062B
S113167010924506089580910301813049F48091C8
S1131680F3039091F40390933C0680933B0608C0C7
S11316908091F5039091F60390933C0680933B066A
S11316A08091F7039091F80390933E0680933D0652
S11316B08091F9039091FA039093400680933F063A
S11316C08091010490910204909342068093410614
S11316D01092430682E080934406109245060895D2
S11316E080910301813049F48091F3039091F403D4
S11316F090933C0680933B0608C08091F50390913B
S1131700F60390933C0680933B068091F7039091F7
S1131710F80390933E0680933D068091F9039091DF
S1131720FA039093400680933F06809101049091C0
S1131730020490934206809341061092430683E08C
S11317408093440610924506089580910C018230DE
S113175049F4809103049091040490933C0680938F
S11317603B060AC0813041F480910504909106043F
S113177090933C0680933B068091C9039091CA03E1
S113178090933E0680933D069093400680933F06D7
S11317901092430681E08093440610924506089512
S11317A080910301813049F48091F3039091F40313
S11317B090933C0680933B0608C08091F50390917A
S11317C0F60390933C0680933B068091F703909137
S11317D0F80390933E0680933D068091F90390911F
S11317E0FA039093400680933F0680910104909100
S11317F0020490934206809341061092430682E0CD
S11318008093440681E08093450608958091030106
S1131810813049F48091F3039091F40390933C0652
S113182080933B0608C08091F5039091F603909352
S11318303C0680933B068091F7039091F8039093C4
S11318403E0680933D068091F9039091FA039093AC
S1131850400680933F068091010490910204909386
S11318604206809341061092430682E08093440628
S113187080934506089580910301813049F4809155
S1131880F3039091F40390933C0680933B0608C0C5
S11318908091F5039091F60390933C0680933B0668
S11318A08091F7039091F80390933E0680933D0650
S11318B08091F9039091FA039093400680933F0638
S11318C08091010490910204909342068093410612
S11318D01092430682E08093440683E08093450699
S11318E0089580910301813049F48091F30390912C
S11318F0F40390933C0680933B0608C08091F50363
S11319009091F60390933C0680933B068091F703F5
S11319109091F80390933E0680933D068091F903DD
S11319209091FA039093400680933F0680910104BE
S113193090910204909342068093410610924306CC
S113194083E08093440684E0809345060895809163
S11319500301813049F48091F3039091F40390934F
S11319603C0680933B0608C08091F5039091F603F2
S113197090933C0680933B068091F7039091F80383
S113198090933E0680933D068091F9039091FA036B
S11319909093400680933F06809101049091020445
S11319A090934206809341061092430683E080930D
S11319B0440685E0809345060895809103018130B3
S11319C049F48091F3039091F40390933C0680933F
S11319D03B0608C08091F5039091F60390933C0672
S11319E080933B068091F7039091F80390933E0611
S11319F080933D068091F9039091FA0390934006F9
S1131A0080933F06809101049091020490934206D2
S1131A10809341061092430683E08093440686E057
S1131A20809345060895809107049091080490934B
S1131A303C0680933B068091C9039091CA0390931E
S1131A403E0680933D069093400680933F06109295
S1131A504506089580E090E073DA9093350680930C
S1131A60340615D4E0913406F09135060688F789DA
S1131A70E02DF0933306E09332060995E0913406A5
S1131A80F091350668EE73E08689978955D184DA3A
S1131A9024DA40E060E080E067C408955DD28230DB
S1131AA071F038F4882309F43AC0813009F44FC046
S1131AB07EC08330E1F0843009F461C078C0E091E5
S1131AC03406F09135060288F389E02D309709F049
S1131AD00995E0913406F09135068085918530DAD8
S1131AE0909335068093340657DAF7D962C0E091B3
S1131AF03406F09135060088F189E02D309709F01D
S1131B000995E0913406F09135068681978118DABB
S1131B1090933506809334063FDADFD94AC0E091CA
S1131B203406F09135060484F585E02D309709F0EC
S1131B300995E0913406F09135068281938100DAAB
S1131B40909335068093340627DAC7D932C0E091E2
S1131B503406F09135060684F785E02D309709F0B8
S1131B600995E0913406F091350684819581E8D990
S1131B7090933506809334060FDAAFD91AC0E091FA
S1131B803406F09135060488F589E02D309709F084
S1131B900995E0913406F091350682859385D0D974
S1131BA09093350680933406F7D997D902C08F3FB6
S1131BB0D1F0809132069091330613D1E09134062E
S1131BC0F09135060688F789E02DF0933306E0930B
S1131BD03206309741F0099568EE73E08091320641
S1131BE090913306A9D072D9882351F080912806A8
S1131BF0811111C081E0809328060C94C7040895D4
S1131C0080912706882319F00C943F05089580E0FD
S1131C104AD980E055C90895EEE4F6E08EE796E0EF
S1131C201182108213821282158214823696E8176A
S1131C30F907B1F7E6E4F6E08EE496E02FEF21939E
S1131C40E817F907E1F713BE83B7876083BF88EB12
S1131C5082BF86B7816086BF87B7826087BF78946A
S1131C6008951F920F920FB60F9211240BB60F9284
S1131C700F931F932F933F934F935F936F937F9390
S1131C808F939F93AF93BF93CF93DF93EF93FF9380
S1131C9088EB82BFCEE4D6E00EE716E08881998116
S1131CA0892B81F08C819D812A813B818217930746
S1131CB031F41D821C82E881F981099503C00196E3
S1131CC09D838C832696C017D10741F780913606F1
S1131CD0909137069C012F5F3F4F30933706209336
S1131CE036068436910589F4E6E4F6E08EE496E05F
S1131CF0208121502E3F08F420833196E817F907FC
S1131D00B9F71092370610923606FF91EF91DF91E2
S1131D10CF91BF91AF919F918F917F916F915F917F
S1131D204F913F912F911F910F910F900BBE0F90E8
S1131D300FBE0F901F901895CF93DF936A307105F3
S1131D4010F46AE070E0C0914E06D0914F06C817B7
S1131D50D90709F43EC0AEE7B6E0E4E5F6E0408119
S1131D60518148175907B9F13696EA17FB07B9F7B5
S1131D70CD2B51F0E4E5F6E041E050E0EA01A0812A
S1131D80B181AB2BF9F402C0C0E0D0E0AE01440F46
S1131D90551FFA01EC0FFD1FEE0FFF1FE25BF94F19
S1131DA0918380839B01ADECBCEC37D696958795E7
S1131DB09695879596958795938382831582148249
S1131DC081E00CC04F5F5F4F369648305105B1F645
S1131DD004C081E003C081E001C080E0DF91CF91C5
S1131DE0089520914E0630914F062817390759F06F
S1131DF0E4E5F6E021E030E0B90140815181481783
S1131E005907E1F402C060E070E0CB01880F991F2C
S1131E10FC01E60FF71FEE0FFF1FE25BF94F118283
S1131E20108213821282680F791FFB01EE0FFF1FCD
S1131E30E25BF94F1582148281E008952F5F3F4FD2
S1131E40369628303105C1F680E008958091460623
S1131E508F3F51F0E7E4F6E021E030E0822FA90162
S1131E6091919F3F51F403C040E050E080E0FA01BB
S1131E70EA5BF94F10828F5F08952F5F3F4F283040
S1131E80310561F780E008951ABA8FEF8BBBEAE65B
S1131E90F0E080818860808389B7826089BF8998F7
S1131EA0919A7894D3DF80937E06089589B38095C0
S1131EB080FD15C081FD15C082FD15C083FD15C0D0
S1131EC084FD15C085FD15C086FD15C08823D4F496
S1131ED014C09093110481E080933806089595E02E
S1131EE00DC097E00BC094E009C096E007C092E0F3
S1131EF005C093E003C090E001C091E080913806F2
S1131F00882339F308951F920F920FB60F9211246C
S1131F100BB60F922F933F934F935F936F937F93DF
S1131F208F939F93AF93BF93EF93FF93F894BEDF88
S1131F307894FF91EF91BF91AF919F918F917F9191
S1131F406F915F914F913F912F910F900BBE0F9026
S1131F500FBE0F901F901895F8948091380688232F
S1131F6029F0809111041092380601C08FEF789403
S1131F70089598E01B98882314F41C9A01C01C98B7
S1131F80880F0000000000001B9A00000000915020
S1131F9089F7089580E090E00196883B9105E1F788
S1131FA00895CF93C82F1E9A8AEFE3DF8C2F807F8A
S1131FB0E0DF8C2F8295807FDCDF1E98EBDFCF91F2
S1131FC00895CF93C82F1E9A88EFD3DF8C2F807F7C
S1131FD0D0DF8C2F8295807FCCDFDCDF1E98CF9101
S1131FE0089581E0EEDF80E090E00196811520E322
S1131FF09207D9F70895623089F018F4613031F00E
S11320000BC0633029F0643029F006C090E807C0A3
S113201098E805C098E903C098E901C090E98131C6
S113202010F4892BCECF0895BCCF08951F93CF937E
S1132030DF93EC018881882349F010E0B2DF1F5F51
S1132040FE01E10FF11D80818111F8CFDF91CF9165
S11320501F9108958F929F92AF92BF92CF92DF9279
S1132060EF92FF92CF934B015C01C42F86D36B0197
S11320707C014AE06BE176E0C601DED48BE196E0B8
S1132080D5DFCC2301F18EE28CDFB601882777FD02
S11320908095982FA5D39B01AC01C501B4019CD2B6
S11320A0F12C20E030E040E251E44ED4F394FC12F1
S11320B0F8CF63D3DC01CB014AE06BE176E0BCD41A
S11320C08BE196E0B3DFCF91FF90EF90DF90CF905C
S11320D0BF90AF909F908F9008954AE068E176E0BA
S11320E0ABD488E196E0A2CF0895DF92EF92FF92FD
S11320F00F931F93CF93DF93D82F142F653008F0DD
S113210064E0662309F4B6C0C1E02111C0E0C195C2
S1132110623099F018F4613091F505C06330C1F074
S1132120643009F12CC08D2F86956894FF24F7F84C
S1132130F80E6894EE24E7F824C08D2F86956894F1
S1132140FF24F7F8F80E0F2EF0E9EF2EF02D19C04A
S11321508D2F86950F2EF8E8FF2EF02DF80E68943B
S1132160EE24E7F80EC08D2F86950F2EF8E8FF2E8B
S1132170F02DF80E0F2EF0E9EF2EF02D02C0E12C19
S1132180F12C84E31EDF8D2F8170912F9170D12B60
S1132190D0FD16C0169500E0D12C802F8E0D11DFD6
S11321A08F2D0FDF112341F0DD2D8C2FFADE8C2FC4
S11321B0F8DEDF5FD113F9CF0F5F003171F757C03D
S11321C081111DC0992309F452C0169500E0D12C49
S11321D0802F8E0DF6DE8F2DF4DE112341F0DD2DE0
S11321E08C2FDFDE8C2FDDDEDF5FD113F9CF8C2F58
S11321F0D8DE8D2DD6DE0F5F003151F738C0911136
S11322001EC01695115000E0802F8E0DDADE8F2D42
S1132210D8DE80E0C6DE8C2FC4DE112341F0D0E08E
S11322208C2FBFDE8C2FBDDEDF5F1D13F9CF8C2F0B
S1132230B8DE80E0B6DE0F5F003131F718C01695C6
S113224000E0802F8E0DBDDE8F2DBBDE80E0A9DE89
S11322508C2FA7DE112341F0D0E08C2FA2DE8C2F2F
S1132260A0DEDF5FD113F9CF0F5F003151F780E3B8
S1132270A8DE05C0C1E02111C0E0C19554CFDF91B3
S1132280CF911F910F91FF90EF90DF9008951F93CE
S1132290CF93DF9384E395DED0E810E18D2F91DEB8
S11322A080E88FDEC12F80E07CDE80E07ADEC150E2
S11322B0D1F7DF5FD03991F710E18D2F82DE80E80E
S11322C080DEC12F80E06DDE80E06BDEC150D1F78F
S11322D0DF5FD03A91F7D0E810E18D2F72DE88E805
S11322E070DEC12F80E05DDE80E05BDEC150D1F79F
S11322F0DF5FD03991F710E18D2F63DE88E861DE6E
S1132300C12F80E04EDE80E04CDEC150D1F7DF5FAC
S1132310D03A91F780E355DEDF91CF911F91089574
S113232082B1886F82B91D9880E090E00196811592
S113233020EF9207D9F71D9A1F9880E090E001964C
S1132340811520E39207D9F780E33BDE8CE039DE88
S113235081E037DE82E035DE80E833DE84E031DEA2
S11323608CE02FDE94CF08951F93CF93DF93C82F73
S1132370162FD42F80911304C81731F1CC2319F0F0
S1132380C13089F01FC020E044E064E080E0ADDEAD
S113239020E044E064E086E0A8DE20E044E064E07D
S11323A08CE0A3DE0FC020E044E064E080E09DDE2A
S11323B021E044E064E086E098DE21E044E064E06B
S11323C08CE093DEC0931304123051F0133071F09B
S11323D0113089F461E080E00EDE8AE2E2DD0BC0B8
S11323E062E080E008DE8AE2DCDD05C063E080E0D4
S11323F002DE8AE2D6DD809112048D1709F4E4C06E
S11324008D2F90E08730910508F0DCC0FC01EA5B79
S1132410FF4FFDC221E041E062E08CE066DE21E096
S113242041E062E08AE061DE21E041E063E08DE0CA
S11324305CDE21E041E063E08CE057DE21E041E036
S113244063E08AE052DE21E041E062E08DE04DDEAF
S1132450B9C021E041E062E08CE047DE21E041E0E8
S113246062E08AE042DE21E041E063E08DE03DDEAF
S113247021E041E063E08CE038DE21E041E063E00C
S11324808AE033DE20E041E062E08DE02EDE9AC097
S113249021E041E062E08DE028DE21E041E062E0FD
S11324A08AE023DE21E041E063E08DE01EDE21E0EE
S11324B041E063E08CE019DE21E041E063E08AE082
S11324C014DE20E041E062E08CE00FDE7BC021E01E
S11324D041E062E08DE009DE21E041E062E08CE071
S11324E004DE21E041E063E08DE0FFDD21E041E036
S11324F063E08CE0FADD21E041E063E08AE0F5DDB1
S113250020E041E062E08AE0F0DD5CC021E041E0EF
S113251062E08DE0EADD21E041E062E08CE0E5DDAF
S113252021E041E062E08AE0E0DD21E041E063E0B7
S11325308CE0DBDD21E041E063E08AE0D6DD20E0F1
S113254041E063E08DE0D1DD3DC021E041E062E0A7
S11325508DE0CBDD21E041E062E08CE0C6DD21E0EE
S113256041E062E08AE0C1DD21E041E063E08DE02A
S1132570BCDD21E041E063E08AE0B7DD20E041E03A
S113258063E08CE0B2DD1EC021E041E062E08DE05A
S1132590ACDD21E041E062E08CE0A7DD21E041E038
S11325A062E08AE0A2DD21E041E063E08DE09DDDB0
S11325B021E041E063E08CE098DD20E041E063E06D
S11325C08AE093DDD093120486E3FBDC80E3F9DC3C
S11325D0DF91CF911F9108955058BB27AA270ED0A1
S11325E075C166D130F06BD120F031F49F3F11F406
S11325F01EF45BC10EF4E095E7FB51C1E92F77D1DE
S113260080F3BA17620773078407950718F071F40B
S11326109EF58FC10EF4E0950B2EBA2FA02D0B0161
S1132620B90190010C01CA01A0011124FF27591B13
S113263099F0593F50F4503E68F11A16F040A22F19
S1132640232F342F4427585FF3CF4695379527958A
S1132650A795F0405395C9F77EF41F16BA0B620B89
S1132660730B840BBAF09150A1F0FF0FBB1F661FD0
S1132670771F881FC2F70EC0BA0F621F731F841F13
S113268048F4879577956795B795F7959E3F08F039
S1132690B3CF9395880F08F09927EE0F97958795F8
S11326A00895D9D008F481E008950CD00FC107D162
S11326B040F0FED030F021F45F3F19F0F0C051112A
S11326C039C1F3C014D198F39923C9F35523B1F355
S11326D0951B550BBB27AA2762177307840738F08D
S11326E09F5F5F4F220F331F441FAA1FA9F333D0EC
S11326F00E2E3AF0E0E830D091505040E695001CA0
S1132700CAF729D0FE2F27D0660F771F881FBB1F5B
S1132710261737074807AB07B0E809F0BB0B802D35
S1132720BF01FF2793585F4F2AF09E3F510568F081
S1132730B6C000C15F3FECF3983EDCF38695779515
S11327406795B795F7959F5FC9F7880F911D969583
S1132750879597F90895E1E0660F771F881FBB1FDF
S1132760621773078407BA0720F0621B730B840B8C
S1132770BA0BEE1F88F7E095089504D06894B11160
S1132780D9C00895BCD088F09F5790F0B92F9927ED
S1132790B751A0F0D1F0660F771F881F991F1AF068
S11327A0BA95C9F712C0B13081F0C3D0B1E0089531
S11327B0C0C0672F782F8827B85F39F0B93FCCF3B2
S11327C0869577956795B395D9F73EF4909580955E
S11327D0709561957F4F8F4F9F4F0895E89409C07E
S11327E097FB3EF490958095709561957F4F8F4F40
S11327F09F4F9923A9F0F92F96E9BB279395F69556
S1132800879577956795B795F111F8CFFAF4BB0FD3
S113281011F460FF1BC06F5F7F4F8F4F9F4F16C037
S1132820882311F096E911C0772321F09EE8872FC1
S1132830762F05C0662371F096E8862F70E060E07D
S11328402AF09A95660F771F881FDAF7880F9695F6
S1132850879597F90895990F0008550FAA0BE0E89A
S1132860FEEF16161706E807F907C0F0121613064E
S1132870E407F50798F0621B730B840B950B39F48E
S11328800A2661F0232B242B252B21F408950A26F4
S113289009F4A140A6958FEF811D811D089597F934
S11328A09F6780E870E060E008959FEF80EC0895F2
S11328B000240A941616170618060906089500241B
S11328C00A9412161306140605060895092E039495
S11328D0000C11F4882352F0BB0F40F4BF2B11F409
S11328E060FF04C06F5F7F4F8F4F9F4F089557FD68
S11328F09058440F551F59F05F3F71F04795880F6A
S113290097FB991F61F09F3F79F087950895121600
S113291013061406551FF2CF4695F1DF08C01616AC
S113292017061806991FF1CF86957105610508945D
S11329300895E894BB2766277727CB0197F9089574
S11329408ADF08F48FEF08950BD0C0CFB1DF28F0F1
S1132950B6DF18F0952309F0A2CFA7CF1124EACF50
S1132960C6DFA0F3959FD1F3950F50E0551F629FEA
S1132970F001729FBB27F00DB11D639FAA27F00DD4
S1132980B11DAA1F649F6627B00DA11D661F829FFB
S11329902227B00DA11D621F739FB00DA11D621FE0
S11329A0839FA00D611D221F749F3327A00D611DFD
S11329B0231F849F600D211D822F762F6A2F1124DF
S11329C09F5750408AF0E1F088234AF0EE0FFF1F32
S11329D0BB1F661F771F881F91505040A9F79E3F69
S11329E0510570F05CCFA6CF5F3FECF3983EDCF36B
S11329F0869577956795B795F795E7959F5FC1F7A6
S1132A00FE2B880F911D9695879597F90895EE0FE3
S1132A10FF1F0590F491E02D0994A29FB001B39F8C
S1132A20C001A39F700D811D1124911DB29F700DD3
S1132A30811D1124911D0895BB274A3031F4992337
S1132A4022F4BDE2909581959F4F01C0BB27FB0105
S1132A505527AA27880F991FAA1FA41710F0A41B93
S1132A6083955051B9F7A05DAA3308F0A95DA193ED
S1132A70009779F7B111B1931192CB0100C0DC0139
S1132A80FC01672F71917723E1F7329704C07C91A1
S1132A906D9370836291AE17BF07C8F30895F894DD
S1052AA0FFCF62
S1132AA2050505010000FA4300009644020164FF93
S1132AB2FF00000000000000000000011000000000
S1132AC20000000000000095000110011002100037
S1132AD200011001200000000000000000000000BE
S1132AE20002100110031000000210013000000067
S1132AF20000000000000000000310021004100097
S1132B020003100310000000000000000000000099
S1132B12000410031005100000041004100000004B
S1132B220000000000000000000510041005100061
S1132B32000510000000000000000000000000007A
S1132B4200012001200220011001200120000000C8
S1132B520000000000000000000220012003200108
S1132B62100220022000000000000000000000000B
S1132B72000320022004200110032003200000008F
S1132B8200000000000000000004200320052001D2
S1132B9210042004200000000000000000000000D7
S1132BA20005200420052001100520052000000056
S1132BB20000000000000000000130013002300279
S1132BC2100130013100000000000000000000008C
S1132BD200023001300330021002300132000000E2
S1132BE20000000000000000000330023004300244
S1132BF21003300133000000000000000000000058
S1132C0200043003300430021004300430000000A9
S1132C120000000000000000000131043102310113
S1132C223001310131000000000000000000000703
S1132C32020231013103310130023111310000004D
S1132C4200000000000000070203310231043101D8
S1132C5230033114310000000000000000000007BE
S1132C620204310331013101300431043100000026
S1132C720000000000320400001131113111311240
S1132C8231133102312E0257020000000000000706
S1132C9202123112311231133111310231DA0203CB
S1132CA20300000000000007021331133113311135
S1132CB231123102318603AF030000000000000725
S1132CC2021431143114311531163103318402B135
S1132CD202000000000000070215311531153116FB
S1132CE2311431033130035D03000000000000079A
S1132CF202163116311631143115310331DC030950
S1132D0204000000000000070200000000000000B0
S1132D1200000000000000000000000000000000AD
S1132D22000000000000000000000000000000009D
S1132D32000000000000000000000000000000008D
S1132D42000000000000000000000000000000007D
S1132D52000000000000000000000000000000006D
S1132D6200000000000000000014049F047704A97E
S1132D7204BA04BF04CA04D504E004EB04F604054F
S1132D820510051B05260531053A0547055405615D
S1132D920570057F058A0593059E05A905BA05C92F
S1132DA205D805E905F40501060D0600000000003A
S1132DB200FFFFFF20202020202020202020202090
S1132DC22020202000005B315D005B325D005B331C
S1132DD25D005B585D0030306430306830306D0027
S1132DE2CFB5CDB3C6F4B6AF2E2E2E2000D0B6BBCF
S1132DF2D2B7A7C6F4B6AF2E2E2E00B7E7BBFAC6DB
S1132E02F4B6AF535441522000B7E7BBFAC6F4B646
S1132E12AF44454C544100CAB1BCE43A00B7E7BBE5
S1132E22FACDA3BBFA2E2E2E00D0B6BBD2B7A7CDB5
S1132E32A3D6B9A3A100CFB5CDB3CDA3BBFA00B538
S1132E42B1C7B0D1B9B2EE3A00D7B4CCAC2020B2FB
S1132E52CBB5A52020B1A8BEAF00B7B5BBD8003E04
S1132E6220CFB5CDB3D7B4CCAC003E20B9A4D7F7AC
S1132E72C4A3CABD003E20C5E7B4B5C9E8D6C300A1
S1132E823E20B1A8BEAFC9E8D6C3003E20CDCBB325
S1132E92F6B2CBB5A5003E20CFB5CDB3D4CBD0D0BE
S1132EA2CAB1BCE4003E20C5E7B4B5B4CECAFD0045
S1132EB23E20B9D8D3DAB1BEBBFA003E20C9E8D667
S1132EC2C3CBF8B6A8003E20B5A5CEBBC9E8D6C38D
S1132ED2003E20C0A9D5B9B0E5003E20D1B9B2EE7A
S1132EE2C4A3CABDD2BB003E20D1B9B2EEC4A3CAA8
S1132EF2BDB6FE003E20D1B9B2EEC4A3CABDC8FD20
S1132F02003E20CAB1D0F2BFD8D6C6C4A3CABD00FF
S1132F123E20B1E0B3CCC5E7B4B5C4A3CABD003EFC
S1132F2220D5FDD4DAC6F4D3C3003E20B9D8B1D536
S1132F32D6D0003E20D1B9B2EEC9CFCFDE003E20BA
S1132F42D1B9B2EECFC2CFDE003E20D1B9B2EECFBC
S1132F52C2CFDEB0D9B7D6B1C8003E20D7EED0A1D9
S1132F62C5E7B4B5C6B5C2CA003E20C5E7B4B5CA02
S1132F72B1BCE4BCE4B8F400B7B5BBD82020C8B7F0
S1132F82C8CF2020B0EFD6FA003E20B5A5CEBB3A7A
S1132F92205061003E20B5A5CEBB3A206D6D574747
S1132FA2003E20BDA8C9E8D6D02E2E2E00CFB5CD26
S1112FB2B3CDA3BBFAA3A10020202020000071
S9030000FC
