S00B00004156522E7372656330
S113000045C0000061C000000C9427085DC00000DA
S11300105BC0000059C0000057C0000055C000007C
S113002053C0000051C000004FC000004DC000008C
S11300304BC0000049C0000047C00000B6C6000025
S113004043C0000041C000003FC000003DC00000AC
S11300503BC0000039C0000037C0000035C00000BC
S113006033C0000031C000002FC000002DC00000CC
S11300702BC0000029C0000027C0000025C00000DC
S113008023C0000021C000001FC0000011241FBEB7
S1130090CFEFD0E1DEBFCDBF14E0A0E0B1E0EAE4F1
S11300A0F5E100E00BBF02C007900D92A439B1073F
S11300B0D9F724E0A4E9B4E001C01D92A83EB20738
S11300C0E1F703D00C94A30A9BCF82D70E94840843
S11300D0B1D19DD145D635D18DD59CD5FECF0F93C9
S11300E01F93CF93DF9300D000D0CDB7DEB710912C
S11300F01A0381E090919C04911180E080939C0408
S113010081E038D10E943F09DC01CB014AE0BE0105
S11301106F5F7F4F0E94700A61E080E00E949D083B
S1130120123049F0133061F0113079F48CE193E02E
S11301300E94C6080EC080E293E00E94C60809C06F
S113014084E293E00E94C60804C088E293E00E941F
S1130150C60861E084E0F1D780919D04882359F0BA
S113016080919C04882321F08FE00E94B6080CC083
S113017089E0FCD709C080919C04882319F087E0AA
S1130180F5D702C089E0F2D761E087E0D6D7809145
S11301909E04882351F080919C04882319F081E205
S11301A0E5D705C080E0E2D702C082E0DFD762E095
S11301B085E0C3D7CE010196E9D763E083E0BDD7DC
S11301C080919A0490919B04019690939B04809350
S11301D09A04CC9769F480919804909199040196BB
S11301E0909399048093980410929B0410929A041B
S11301F08091980490919904CC9769F48091960425
S1130200909197040196909397048093960410928A
S1130210990410929804409196045091970448319F
S1130220510549F48091940490919504019690931A
S11302309504809394040091980410919904ECE23D
S1130240F3E09801ADECBCEC0E94610A96958795A9
S113025096958795969587959C01220F331F880F55
S1130260991F880F991F880F991F820F931F980158
S1130270281B390BC901805D878398010E94610A9C
S1130280969587959695879596958795805D8683AF
S11302909A010E94610A96958795969587959695F9
S11302A087959C01220F331F880F991F880F991F70
S11302B0880F991F820F931F9A01281B390BC901BC
S11302C0805D84839A010E94610A9695879596952C
S11302D0879596958795805D83834091940450918A
S11302E095049A010E94610A96958795969587953B
S11302F0969587959C01220F331F880F991F880FAD
S1130300991F880F991F820F931F9A01281B390B7D
S1130310C901805D81839A010E94610A969587953F
S11303209695879596958795805D8083CF012ED786
S11303300F900F900F900F90DF91CF911F910F911D
S11303400895E1E6F0E080818C7F808386E886B9B9
S113035080E187B935980895369A349BFECF86EFAD
S11303608A95F1F724B185B190E0982F8827820F00
S1130370911D0895CF92DF92EF92FF92CF93833035
S113038089F028F4813041F0823049F035C084305E
S113039061F0853069F030C080E187B92DC084E018
S11303A087B92AC085E087B927C086E087B924C009
S11303B087E087B921C0D0DFBC0180E090E090D70E
S11303C09B01AC01C701B601F6D66B017C01C1509B
S11303D091F720E030E040E05EE30E94FE0920E077
S11303E030E040E85AE30E94FE0920E030E04AE7AA
S11303F054E40E94FE0905C0C8E0C12CD12C76014A
S1130400DACFCF91FF90EF90DF90CF90089587B32C
S1130410806E87BBE4E6F0E0808188618083E5E656
S1130420F0E08081877F8083C798808180618083AA
S1130430C6980895B89AE1E6F0E0808188608083E8
S1130440E4E6F0E0808181608083C09AE2E6F0E037
S1130450808188608083E5E6F0E080818E7F808300
S1130460089567D661E080E068D68091A6049091F3
S1130470A7048CD662E080E060D68091A8049091B5
S1130480A90484D663E080E058D68091AA049091B0
S1130490AB047CD664E080E050D68091AC049091AB
S11304A0AD0474D68091AE04823051F0833071F083
S11304B0813089F461E080E040D68AE257C608952D
S11304C062E080E03AD68AE251C6089563E080E0B3
S11304D034D68AE24BC6089520910001309101017F
S11304E02817390759F0E8E1F1E021E030E0B901DB
S11304F0408151814817590791F402C060E070E0CF
S1130500CB01880F991F680F791FCB01880F991FA2
S1130510880F991F880F991F80509F4F08952F5F50
S11305203F4F78962431310511F780E090E008952B
S1130530E091A104F091A20480819181843020E2B1
S1130540920709F4A4C178F5843020E1920709F4F4
S1130550EAC0A0F4813020E1920709F478C020F4C5
S1130560892B09F451C00895823020E1920709F4DF
S113057092C08330904109F4B2C00895813020E2E2
S1130580920709F418C128F48530904109F4EFC0AA
S11305900895823020E2920709F431C183309042F9
S11305A009F451C10895833020E3920709F423C26A
S11305B088F4863020E2920709F4B1C108F48BC1B3
S11305C0813020E3920709F4CEC18230904309F4CC
S11305D0EEC10895813021E3920709F478C250F402
S11305E0843020E3920709F42AC28530904309F449
S11305F04AC20895823021E3920709F499C28330F4
S1130600914309F4C6C208958091E0029091E102F9
S11306109093A7048093A6048091E2029091E30250
S11306209093A9048093A8048091E4029091E50238
S11306309093AB048093AA048091E6029091E70220
S11306409093AD048093AC041092AE04089580910D
S1130650EA029091EB029093A7048093A604809100
S1130660EC029091ED029093A9048093A8048091E8
S1130670EE029091EF029093AB048093AA048091D0
S11306801803909119039093AD048093AC0481E016
S11306908093AE0408958091EA029091EB029093C6
S11306A0A7048093A6048091EC029091ED029093AC
S11306B0A9048093A8048091EE029091EF02909394
S11306C0AB048093AA04809118039091190390932A
S11306D0AD048093AC0482E08093AE0408958091CD
S11306E0EA029091EB029093A7048093A604809170
S11306F0EC029091ED029093A9048093A804809158
S1130700EE029091EF029093AB048093AA0480913F
S11307101803909119039093AD048093AC0483E083
S11307208093AE0408958091F0029091F102909329
S1130730A7048093A6048091F2029091F30290930F
S1130740A9048093A8048091E0029091E10290931F
S1130750AB048093AA048091180390911903909399
S1130760AD048093AC0481E08093AE04089580913D
S1130770F0029091F1029093A7048093A6048091D3
S1130780F2029091F3029093A9048093A8048091BB
S1130790E0029091E1029093AB048093AA048091CB
S11307A01803909119039093AD048093AC0482E0F4
S11307B08093AE0408958091F4029091F502909391
S11307C0A7048093A6048091F6029091F702909377
S11307D0A9048093A8048091F8029091F90290935F
S11307E0AB048093AA048091180390911903909309
S11307F0AD048093AC0481E08093AE0408958091AD
S1130800F4029091F5029093A7048093A60480913A
S1130810F6029091F7029093A9048093A804809122
S1130820F8029091F9029093AB048093AA0480910A
S11308301803909119039093AD048093AC0482E063
S11308408093AE0408958091F4029091F502909300
S1130850A7048093A6048091F6029091F7029093E6
S1130860A9048093A8048091F8029091F9029093CE
S1130870AB048093AA048091180390911903909378
S1130880AD048093AC0483E08093AE04089580911A
S1130890FA029091FB029093A7048093A60480919E
S11308A0FC029091FD029093A9048093A804809186
S11308B0FE029091FF029093AB048093AA0480916E
S11308C01803909119039093AD048093AC0481E0D4
S11308D08093AE0408958091FA029091FB02909364
S11308E0A7048093A6048091FC029091FD0290934A
S11308F0A9048093A8048091FE029091FF02909332
S1130900AB048093AA0480911803909119039093E7
S1130910AD048093AC0482E08093AE04089580918A
S1130920FA029091FB029093A7048093A60480910D
S1130930FC029091FD029093A9048093A8048091F5
S1130940FE029091FF029093AB048093AA048091DD
S11309501803909119039093AD048093AC0483E041
S11309608093AE04089580910003909101039093C5
S1130970A7048093A60480910203909103039093AB
S1130980A9048093A8048091040390910503909393
S1130990AB048093AA048091180390911903909357
S11309A0AD048093AC0481E08093AE0408958091FB
S11309B00003909101039093A7048093A60480916F
S11309C00203909103039093A9048093A804809157
S11309D00403909105039093AB048093AA0480913F
S11309E01803909119039093AD048093AC0482E0B2
S11309F08093AE0408958091000390910103909335
S1130A00A7048093A604809102039091030390931A
S1130A10A9048093A8048091040390910503909302
S1130A20AB048093AA0480911803909119039093C6
S1130A30AD048093AC0483E08093AE040895809168
S1130A400603909107039093A7048093A6048091D2
S1130A500803909109039093A9048093A8048091BA
S1130A60E0029091E1029093AB048093AA048091F8
S1130A701803909119039093AD048093AC0481E022
S1130A808093AE0408958091060390910703909398
S1130A90A7048093A604809108039091090390937E
S1130AA0A9048093A8048091E0029091E1029093BC
S1130AB0AB048093AA048091180390911903909336
S1130AC0AD048093AC0482E08093AE0408958091D9
S1130AD01A03813049F480910A0390910B03909397
S1130AE0A7048093A60408C080910C0390910D0381
S1130AF09093A7048093A60480910E0390910F0312
S1130B009093A9048093A8048091100390911103F9
S1130B109093AB048093AA048091180390911903D5
S1130B209093AD048093AC0481E08093AE04089567
S1130B3080911A03813049F480910A0390910B0348
S1130B409093A7048093A60408C080910C0390910D
S1130B500D039093A7048093A60480910E039091B3
S1130B600F039093A9048093A8048091100390919B
S1130B7011039093AB048093AA048091180390917D
S1130B8019039093AD048093AC0482E08093AE0487
S1130B90089580911A03813049F480910A03909159
S1130BA00B039093A7048093A60408C080910C03C0
S1130BB090910D039093A7048093A60480910E0353
S1130BC090910F039093A9048093A804809110033B
S1130BD0909111039093AB048093AA04809118031D
S1130BE0909119039093AD048093AC0483E08093B7
S1130BF0AE04089580E090E06FDC9093A2048093AB
S1130C00A10468EE73E0FC018689978939D190DCF0
S1130C1028CC089545D2823071F038F4882309F441
S1130C203AC0813009F44FC07EC08330E1F0843093
S1130C3009F461C078C0E091A104F091A204028893
S1130C40F389E02D309709F00995E091A104F09122
S1130C50A2048085918540DC9093A2048093A10432
S1130C6067DCFFDB62C0E091A104F091A20400887C
S1130C70F189E02D309709F00995E091A104F091F4
S1130C80A2048681978128DC9093A2048093A10416
S1130C904FDCE7DB4AC0E091A104F091A204048494
S1130CA0F585E02D309709F00995E091A104F091C4
S1130CB0A2048281938110DC9093A2048093A10406
S1130CC037DCCFDB32C0E091A104F091A2040684AA
S1130CD0F785E02D309709F00995E091A104F09192
S1130CE0A20484819581F8DB9093A2048093A104EB
S1130CF01FDCB7DB1AC0E091A104F091A2040488C0
S1130D00F589E02D309709F00995E091A104F0915F
S1130D10A20482859385E0DB9093A2048093A104CE
S1130D2007DC9FDB02C08F3FD1F080919F0490913C
S1130D30A004FBD0E091A104F091A2040688F789F5
S1130D40E02DF093A004E0939F04309741F00995BF
S1130D5068EE73E080919F049091A00491C008957F
S1130D60E7EBF4E087EE94E01182108213821282A2
S1130D70158214823696E817F907B1F7EFEAF4E022
S1130D8087EB94E02FEF2193E817F907E1F713BEFF
S1130D9083B7876083BF88EB82BF86B7816086BFD5
S1130DA087B7826087BF789408951F920F920FB619
S1130DB00F9211240BB60F920F931F932F933F930F
S1130DC04F935F936F937F938F939F93AF93BF934F
S1130DD0CF93DF93EF93FF9388EB82BFC7EBD4E00D
S1130DE007EE14E088819981892B81F08C819D81A3
S1130DF02A813B818217930731F41D821C82E8818A
S1130E00F981099503C001969D838C832696C017AA
S1130E10D10741F78091A3049091A4049C012F5F12
S1130E203F4F3093A4042093A3048436910589F49E
S1130E30EFEAF4E087EB94E0208121502E3F08F4A0
S1130E4020833196E817F907B9F71092A404109299
S1130E50A304FF91EF91DF91CF91BF91AF919F9147
S1130E608F917F916F915F914F913F912F911F913E
S1130E700F910F900BBE0F900FBE0F901F901895FF
S1130E80CF93DF936A30710510F46AE070E0C0918B
S1130E90B704D091B804C817D90709F43EC0A7EE27
S1130EA0B4E0EDEBF4E04081518148175907B9F102
S1130EB03696EA17FB07B9F7CD2B51F0EDEBF4E0CA
S1130EC041E050E0EA01A081B181AB2BF9F402C00A
S1130ED0C0E0D0E0AE01440F551FFA01EC0FFD1F36
S1130EE0EE0FFF1FE954FB4F918380839B01ADEC10
S1130EF0BCECE7D2969587959695879596958795B8
S1130F00938382831582148281E00CC04F5F5F4F0C
S1130F10369648305105B1F604C081E003C081E043
S1130F2001C080E0DF91CF9108952091B704309102
S1130F30B8042817390759F0EDEBF4E021E030E06C
S1130F40B9014081518148175907E1F402C060E0BA
S1130F5070E0CB01880F991FFC01E60FF71FEE0F1D
S1130F60FF1FE954FB4F1182108213821282680F13
S1130F70791FFB01EE0FFF1FE954FB4F158214820A
S1130F8081E008952F5F3F4F369628303105C1F632
S1130F9080E008958091AF048F3F51F0E0EBF4E0DE
S1130FA021E030E0822FA90191919F3F51F403C0C9
S1130FB040E050E080E0FA01E155FB4F10828F5F82
S1130FC008952F5F3F4F2830310561F780E0089581
S1130FD01ABA8FEF8BBBEAE6F0E0808188608083E9
S1130FE089B7826089BF8998919A7894D3DF809376
S1130FF0E704089589B3809580FD15C081FD15C06F
S113100082FD15C083FD15C084FD15C085FD15C086
S113101086FD15C08823D4F414C090931B0381E08B
S11310208093A504089595E00DC097E00BC094E06B
S113103009C096E007C092E005C093E003C090E0C9
S113104001C091E08091A504882339F308951F928B
S11310500F920FB60F9211240BB60F922F933F935A
S11310604F935F936F937F938F939F93AF93BF93AC
S1131070EF93FF93F894BEDF7894FF91EF91BF91C3
S1131080AF919F918F917F916F915F914F913F911C
S11310902F910F900BBE0F900FBE0F901F901895BD
S11310A0F8948091A504882329F080911B03109261
S11310B0A50401C08FEF7894089598E0882314F470
S11310C01C9A01C01C98880F1B9A000000000000A5
S11310D01B98915099F7089580E090E00196863628
S11310E022E09207D9F70895CF93C82F1E9AF4DF10
S11310F088EFE3DF8C2F807FE0DF8C2F8295807F69
S1131100DCDF1E98CF91089582B1886F82B91D9A51
S11311101F9880E090E00196811520E39207D9F7AB
S113112080E3E2DF81E0E0DF86E0DEDF8CE0DCCF3D
S1131130089581E0D9DFD0CF0895623089F018F4A2
S1131140613031F00BC0633029F0643029F006C0FF
S113115090E807C098E805C098E903C098E901C081
S113116090E9813110F4890FBFCF0895CF93C82F30
S11311701E9AB2DF8AEFA1DF8C2F807F9EDF8C2F37
S11311808295807F9ADF1E98CF9108951F93CF9305
S1131190DF93EC018881882349F010E0E7DF1F5FCB
S11311A0FE01E10FF11D80818111F8CFDF91CF9114
S11311B01F9108955058BB27AA270ED0E5C0D6D05A
S11311C030F0DBD020F031F49F3F11F41EF4CBC09B
S11311D00EF4E095E7FBC1C0E92FE7D080F3BA171E
S11311E0620773078407950718F071F49EF5FFC032
S11311F00EF4E0950B2EBA2FA02D0B01B90190012E
S11312000C01CA01A0011124FF27591B99F0593F71
S113121050F4503E68F11A16F040A22F232F342FB9
S11312204427585FF3CF469537952795A795F04007
S11312305395C9F77EF41F16BA0B620B730B840B1C
S1131240BAF09150A1F0FF0FBB1F661F771F881FD4
S1131250C2F70EC0BA0F621F731F841F48F487952C
S113126077956795B795F7959E3F08F0B3CF93951B
S1131270880F08F09927EE0F97958795089504D065
S11312806894B111B5C0089598D088F09F5790F034
S1131290B92F9927B751A0F0D1F0660F771F881F97
S11312A0991F1AF0BA95C9F712C0B13081F09FD0D6
S11312B0B1E008959CC0672F782F8827B85F39F074
S11312C0B93FCCF3869577956795B395D9F73EF4F6
S11312D090958095709561957F4F8F4F9F4F08959E
S11312E0E89409C097FB3EF49095809570956195BC
S11312F07F4F8F4F9F4F9923A9F0F92F96E9BB2772
S11313009395F695879577956795B795F111F8CFED
S1131310FAF4BB0F11F460FF1BC06F5F7F4F8F4F58
S11313209F4F16C0882311F096E911C0772321F04E
S11313309EE8872F762F05C0662371F096E8862FE6
S113134070E060E02AF09A95660F771F881FDAF73D
S1131350880F9695879597F9089597F99F6780E880
S113136070E060E008959FEF80EC089500240A94F3
S11313701616170618060906089500240A9412166C
S11313801306140605060895092E0394000C11F49F
S1131390882352F0BB0F40F4BF2B11F460FF04C04C
S11313A06F5F7F4F8F4F9F4F089557FD9058440FA5
S11313B0551F59F05F3F71F04795880F97FB991FB0
S11313C061F09F3F79F0879508951216130614066D
S11313D0551FF2CF4695F1DF08C0161617061806FA
S11313E0991FF1CF86957105610508940895E894D5
S11313F0BB2766277727CB0197F908950BD0C4CF75
S1131400B5DF28F0BADF18F0952309F0A6CFABCFEB
S11314101124EECFCADFA0F3959FD1F3950F50E0CE
S1131420551F629FF001729FBB27F00DB11D639F92
S1131430AA27F00DB11DAA1F649F6627B00DA11D38
S1131440661F829F2227B00DA11D621F739FB00DDE
S1131450A11D621F839FA00D611D221F749F33274E
S1131460A00D611D231F849F600D211D822F762FE7
S11314706A2F11249F5750408AF0E1F088234AF0E4
S1131480EE0FFF1FBB1F661F771F881F9150504030
S1131490A9F79E3F510570F060CFAACF5F3FECF3F0
S11314A0983EDCF3869577956795B795F795E7951C
S11314B09F5FC1F7FE2B880F911D9695879597F92D
S11314C00895A29FB001B39FC001A39F700D811D19
S11314D01124911DB29F700D811D1124911D089539
S11314E0BB274A3031F4992322F4BDE290958195CB
S11314F09F4F01C0BB27FB015527AA27880F991FBF
S1131500AA1FA41710F0A41B83955051B9F7A05D2E
S1131510AA3308F0A95DA193009779F7B111B193AB
S11315201192CB0100C0DC01FC01672F719177237C
S1131530E1F7329704C07C916D9370836291AE178A
S10D1540BF07C8F30895F894FFCF25
S113154A000000000000000000000110000000007C
S113155A0000000000006F000110011002100000DA
S113156A011001200000000000000000000000003B
S113157A02100110031000000210013000000000E4
S113158A0000000000000000031002100410000014
S113159A0310031000000000000000000000000017
S11315AA04100310051000000410041000000000C9
S11315BA00000000000000000510041005100000DF
S11315CA05100000000000000000000000000000F8
S11315DA0120012002200110012001200000000046
S11315EA0000000000000000022001200320011076
S11315FA0220022000000000000000000000000099
S113160A032002200420011003200320000000000C
S113161A000000000000000004200320052001103F
S113162A0420042000000000000000000000000064
S113163A05200420052001100520052000000000D3
S113164A00000000000000000130013002300210E6
S113165A0130013100000000000000000000000019
S113166A023001300330021002300132000000005F
S113167A00000000000000000330023004300210B1
S113168A03300133000000000000000000000000E5
S113169A0430033004300210043004300000000027
S11316AA0000000000000000013101310231013064
S11316BA01310131000000000000000000000000B8
S11316CA02310131033101300231023100000000DC
S11316DA0000000000000000033102310331013030
S11316EA0331033100000000000000000000000084
S11316FA00000000000000000000000000000000DC
S113170A00000000000000000000000000000000CB
S113171A00000000000000000000000000000000BB
S113172A360343034D0353036403690374037F03BA
S113173A8A039503A003AF03BA03C503D003DB03EB
S113174AE403F103FE030B041A04290434043D04DC
S113175A4804530464047304820401FF5B315D008A
S113176A5B325D005B335D005B585D003030643092
S113177A306830306D0020202020202020202020B6
S113178A202000B5B1C7B0D1B9B2EE3A00CAB1BC93
S113179AE43A00D7B4CCAC2020B2CBB5A52020B112
S11317AAA8BEAF00B7B5BBD8003E20CFB5CDB3D7DE
S11317BAB4CCAC003E20B9A4D7F7C4A3CABD003E3A
S11317CA20C5E7B4B5C9E8D6C3003E20B1A8BEAF68
S11317DAC9E8D6C3003E20CDCBB3F6B2CBB5A5003B
S11317EA3E20CFB5CDB3D4CBD0D0CAB1BCE4003EF1
S11317FA20C5E7B4B5B4CECAFD003E20B9D8D3DAC1
S113180AB1BEBBFA003E20C9E8D6C3CBF8B6A800DD
S113181A3E20B5A5CEBBC9E8D6C3003E20C0A9D593
S113182AB9B0E5003E20D1B9B2EEC4A3CABDD2BB59
S113183A003E20D1B9B2EEC4A3CABDB6FE003E2012
S113184AD1B9B2EEC4A3CABDC8FD003E20CAB1D004
S113185AF2BFD8D6C6C4A3CABD003E20B1E0B3CCF9
S113186AC5E7B4B5C4A3CABD003E20D5FDD4DAC6C3
S113187AF4D3C3003E20B9D8B1D5D6D0003E20D186
S113188AB9B2EEC9CFCFDE003E20D1B9B2EECFC293
S113189ACFDE003E20D1B9B2EECFC2CFDEB0D9B787
S11318AAD6B1C8003E20D7EED0A1C5E7B4B5C6B5B7
S11318BAC2CA003E20C5E7B4B5CAB1BCE4BCE4B8A8
S11318CAF400B7B5BBD82020C8B7C8CF2020B0EFE2
S10718DAD6FA000036
S9030000FC
