S00B00004156522E7372656330
S113000045C0000061C000000C94BF085DC0000042
S11300105BC0000059C0000057C0000055C000007C
S113002053C0000051C000004FC000004DC000008C
S11300304BC0000049C0000047C000004EC700008C
S113004043C0000041C000003FC000003DC00000AC
S11300503BC0000039C0000037C0000035C00000BC
S113006033C0000031C000002FC000002DC00000CC
S11300702BC0000029C0000027C0000025C00000DC
S113008023C0000021C000001FC0000011241FBEB7
S1130090CFEFD0E1DEBFCDBF15E0A0E0B1E0E4EFEB
S11300A0F8E100E00BBF02C007900D92A439B1073C
S11300B0D9F725E0A4E9B5E001C01D92A83EB20736
S11300C0E1F703D00C94780C9BCF0E9480080E9427
S11300D08B0A22D20DD2DCD67AD108D633D6FECF03
S11300E0CF92DF92EF92FF920F931F93CF93DF9300
S11300F000D000D0CDB7DEB781E090919C0591117E
S113010080E080939C0581E07BD10E94140B6B01FD
S11301107C014AE0BE016F5F7F4FC6010E94450C1F
S113012061E080E00E94370980910001823049F04B
S1130130833061F0813079F486E194E00E945209C1
S11301400EC08AE194E00E94520909C08EE194E055
S11301500E94520904C082E294E00E94520961E0C4
S113016084E00E94370980919D05882361F0809185
S11301709C05882321F08FE00E9450090FC089E07C
S11301800E9450090BC080919C05882321F087E0D0
S11301900E94500903C089E00E94500961E087E091
S11301A00E94370980919E05882361F080919C0507
S11301B0882321F081E20E94500907C080E20E9456
S11301C0500903C082E00E94500962E085E00E9469
S11301D03709CE0101960E94520963E083E00E9430
S11301E0370980919A0590919B05019690939B0500
S11301F080939A05CC9769F480919805909199051C
S11302000196909399058093980510929B051092FE
S11302109A058091980590919905CC9769F48091FD
S1130220960590919705019690939705809396056E
S11302301092990510929805409196055091970552
S11302404831510549F480919405909195050196A2
S113025090939505809394050091980510919905C4
S1130260E6E2F4E09801ADECBCEC0E94360C969505
S1130270879596958795969587959C01220F331FB0
S1130280880F991F880F991F880F991F820F931F3A
S11302909801281B390BC901805D878398010E944E
S11302A0360C969587959695879596958795805D56
S11302B086839A010E94360C969587959695879524
S11302C0969587959C01220F331F880F991F880FDD
S11302D0991F880F991F820F931F9A01281B390BAE
S11302E0C901805D84839A010E94360C9695879596
S11302F09695879596958795805D8383409194051F
S1130300509195059A010E94360C9695879596957D
S11303108795969587959C01220F331F880F991F07
S1130320880F991F880F991F820F931F9A01281B0A
S1130330390BC901805D81839A010E94360C969520
S113034087959695879596958795805D8083CF014F
S1130350A9D780910301909104018C159D0528F47F
S113036081E080939E05EFD00BC0809101019091B4
S11303700201C816D90620F410929E0580E0E3D04D
S11303800F900F900F900F90DF91CF911F910F91CD
S1130390FF90EF90DF90CF90089563E086E067D7F9
S11303A0809103019091040191D762E086E05FD7C8
S11303B0809101019091020189C7089508950895DB
S11303C00895089508950895089508950895E1E617
S11303D0F0E080818C7F808386E886B980E187B9EC
S11303E035980895369A349BFECF86EF8A95F1F7B7
S11303F024B185B190E0982F8827820F911D08952C
S1130400CF92DF92EF92FF92CF93833089F028F45A
S1130410813041F0823049F037C0843061F085305A
S113042069F032C080E187B92FC084E087B92CC05D
S113043085E087B929C086E087B926C087E087B9F7
S113044023C0D0DFBC0180E090E00E94450B9B01FB
S1130450AC01C701B6010E94B00A6B017C01C15016
S113046081F720E030E040E05EE30E94D30B20E01F
S113047030E040E85AE30E94D30B20E030E04AE742
S113048054E40E94D30B05C0C8E0C12CD12C7601E2
S1130490D8CFCF91FF90EF90DF90CF9008958091C7
S11304A005019091060120E1E5E6F0E0992314F4BA
S11304B0C59A01C0C598880F991F38E13A95F1F79C
S11304C000C030813860308338E13A95F1F700C0DC
S11304D03081377F308338E13A95F1F700C02150FD
S11304E029F7C79A88E18A95F1F700C0C79808955B
S11304F087B3806E87BBE4E6F0E080818861808307
S1130500E5E6F0E08081877F8083C7988081806101
S11305108083C698C4CF0895B89AE1E6F0E080815C
S113052088608083E4E6F0E0808181608083C09A03
S1130530E2E6F0E0808188608083E5E6F0E0808197
S11305408E7F80830895882311F0C0980895C09AFF
S1130550089583D661E080E08AD68091A6059091C3
S1130560A705A0D662E080E082D68091A80590918C
S1130570A90598D663E080E07AD68091AA05909187
S1130580AB0590D664E080E072D68091AC05909182
S1130590AD0588D68091AE05823051F0833071F07C
S11305A0813089F461E080E062D68AE279D60BC0BA
S11305B062E080E05CD68AE273D605C063E080E046
S11305C056D68AE26DD686E338D680E336C60895D9
S11305D020910701309108012817390759F0EFE1FC
S11305E0F1E021E030E0B901408151814817590719
S11305F091F402C060E070E0CB01880F991F680F8E
S1130600791FCB01880F991F880F991F880F991F95
S1130610895F9E4F08952F5F3F4F78962D313105A6
S113062011F780E090E00895E091A105F091A20512
S113063080819181843020E2920709F4A4C178F585
S1130640843020E1920709F4EAC0A0F4813020E16B
S1130650920709F478C020F4892B09F451C0089555
S1130660823020E1920709F492C08330904109F46A
S1130670B2C00895813020E2920709F418C128F429
S11306808530904109F4EFC00895823020E292074A
S113069009F431C18330904209F451C10895833083
S11306A020E3920709F423C288F4863020E29207FB
S11306B009F4B1C108F48BC1813020E3920709F435
S11306C0CEC18230904309F4EEC10895813021E314
S11306D0920709F478C250F4843020E3920709F4B5
S11306E02AC28530904309F44AC20895823021E336
S11306F0920709F499C28330914309F4C6C208955C
S11307008091BF039091C0039093A7058093A605A1
S11307108091C1039091C2039093A9058093A80589
S11307208091C3039091C4039093AB058093AA0571
S11307308091C5039091C6039093AD058093AC0559
S11307401092AE0508958091C9039091CA039093C5
S1130750A7058093A6058091CB039091CC03909339
S1130760A9058093A8058091CD039091CE03909321
S1130770AB058093AA058091F7039091F8039093B9
S1130780AD058093AC0581E08093AE05089580911A
S1130790C9039091CA039093A7058093A6058091FD
S11307A0CB039091CC039093A9058093A8058091E5
S11307B0CD039091CE039093AB058093AA058091CD
S11307C0F7039091F8039093AD058093AC0582E014
S11307D08093AE0508958091C9039091CA039093C4
S11307E0A7058093A6058091CB039091CC039093A9
S11307F0A9058093A8058091CD039091CE03909391
S1130800AB058093AA058091F7039091F803909328
S1130810AD058093AC0583E08093AE050895809187
S1130820CF039091D0039093A7058093A605809160
S1130830D1039091D2039093A9058093A805809148
S1130840BF039091C0039093AB058093AA05809158
S1130850F7039091F8039093AD058093AC0581E084
S11308608093AE0508958091CF039091D003909327
S1130870A7058093A6058091D1039091D20390930C
S1130880A9058093A8058091BF039091C00390931C
S1130890AB058093AA058091F7039091F803909398
S11308A0AD058093AC0582E08093AE0508958091F8
S11308B0D3039091D4039093A7058093A6058091C8
S11308C0D5039091D6039093A9058093A8058091B0
S11308D0D7039091D8039093AB058093AA05809198
S11308E0F7039091F8039093AD058093AC0581E0F4
S11308F08093AE0508958091D3039091D40390938F
S1130900A7058093A6058091D5039091D603909373
S1130910A9058093A8058091D7039091D80390935B
S1130920AB058093AA058091F7039091F803909307
S1130930AD058093AC0582E08093AE050895809167
S1130940D3039091D4039093A7058093A605809137
S1130950D5039091D6039093A9058093A80580911F
S1130960D7039091D8039093AB058093AA05809107
S1130970F7039091F8039093AD058093AC0583E061
S11309808093AE0508958091D9039091DA039093F2
S1130990A7058093A6058091DB039091DC039093D7
S11309A0A9058093A8058091DD039091DE039093BF
S11309B0AB058093AA058091F7039091F803909377
S11309C0AD058093AC0581E08093AE0508958091D8
S11309D0D9039091DA039093A7058093A60580919B
S11309E0DB039091DC039093A9058093A805809183
S11309F0DD039091DE039093AB058093AA0580916B
S1130A00F7039091F8039093AD058093AC0582E0D1
S1130A108093AE0508958091D9039091DA03909361
S1130A20A7058093A6058091DB039091DC03909346
S1130A30A9058093A8058091DD039091DE0390932E
S1130A40AB058093AA058091F7039091F8039093E6
S1130A50AD058093AC0583E08093AE050895809145
S1130A60DF039091E0039093A7058093A6058091FE
S1130A70E1039091E2039093A9058093A8058091E6
S1130A80E3039091E4039093AB058093AA058091CE
S1130A90F7039091F8039093AD058093AC0581E042
S1130AA08093AE0508958091DF039091E0039093C5
S1130AB0A7058093A6058091E1039091E2039093AA
S1130AC0A9058093A8058091E3039091E403909392
S1130AD0AB058093AA058091F7039091F803909356
S1130AE0AD058093AC0582E08093AE0508958091B6
S1130AF0DF039091E0039093A7058093A60580916E
S1130B00E1039091E2039093A9058093A805809155
S1130B10E3039091E4039093AB058093AA0580913D
S1130B20F7039091F8039093AD058093AC0583E0AF
S1130B308093AE0508958091E5039091E603909328
S1130B40A7058093A6058091E7039091E80390930D
S1130B50A9058093A8058091BF039091C003909349
S1130B60AB058093AA058091F7039091F8039093C5
S1130B70AD058093AC0581E08093AE050895809126
S1130B80E5039091E6039093A7058093A6058091D1
S1130B90E7039091E8039093A9058093A8058091B9
S1130BA0BF039091C0039093AB058093AA058091F5
S1130BB0F7039091F8039093AD058093AC0582E020
S1130BC08093AE05089580910001813049F48091AD
S1130BD0E9039091EA039093A7058093A60508C0C2
S1130BE08091EB039091EC039093A7058093A60565
S1130BF08091ED039091EE039093A9058093A8054D
S1130C008091EF039091F0039093AB058093AA0534
S1130C108091F7039091F8039093AD058093AC0510
S1130C2081E08093AE05089580910001813049F4FC
S1130C308091E9039091EA039093A7058093A60518
S1130C4008C08091EB039091EC039093A7058093E7
S1130C50A6058091ED039091EE039093A9058093EE
S1130C60A8058091EF039091F0039093AB058093D6
S1130C70AA058091F7039091F8039093AD058093B2
S1130C80AC0582E08093AE05089580910001813027
S1130C9049F48091E9039091EA039093A705809326
S1130CA0A60508C08091EB039091EC039093A705EF
S1130CB08093A6058091ED039091EE039093A9058E
S1130CC08093A8058091EF039091F0039093AB0576
S1130CD08093AA058091F7039091F8039093AD0552
S1130CE08093AC0583E08093AE05089580E090E0A6
S1130CF06FDC9093A2058093A105DC015696ED91DB
S1130D00FC915797F093A005E0939F050995E09116
S1130D10A105F091A20568EE73E08689978948D110
S1130D2083DC17DC20E044E064E080E0D7D220E0FC
S1130D3044E064E086E0D2D220E044E064E08CE069
S1130D40CDC2089545D2823071F038F4882309F475
S1130D503AC0813009F44FC07EC08330E1F0843062
S1130D6009F461C078C0E091A105F091A205028860
S1130D70F389E02D309709F00995E091A105F091F0
S1130D80A2058085918524DC9093A2058093A1051A
S1130D904BDCDFDB62C0E091A105F091A205008885
S1130DA0F189E02D309709F00995E091A105F091C2
S1130DB0A205868197810CDC9093A2058093A105FE
S1130DC033DCC7DB4AC0E091A105F091A20504849D
S1130DD0F585E02D309709F00995E091A105F09192
S1130DE0A20582819381F4DB9093A2058093A105EF
S1130DF01BDCAFDB32C0E091A105F091A2050684B3
S1130E00F785E02D309709F00995E091A105F0915F
S1130E10A20584819581DCDB9093A2058093A105D2
S1130E2003DC97DB1AC0E091A105F091A2050488C8
S1130E30F589E02D309709F00995E091A105F0912D
S1130E40A20582859385C4DB9093A2058093A105B6
S1130E50EBDB7FDB02C08F3FD1F080919F05909147
S1130E60A005FBD0E091A105F091A2050688F789C1
S1130E70E02DF093A005E0939F05309741F009958C
S1130E8068EE73E080919F059091A00591C008954C
S1130E90E7EBF5E087EE95E011821082138212826F
S1130EA0158214823696E817F907B1F7EFEAF5E0F0
S1130EB087EB95E02FEF2193E817F907E1F713BECD
S1130EC083B7876083BF88EB82BF86B7816086BFA4
S1130ED087B7826087BF789408951F920F920FB6E8
S1130EE00F9211240BB60F920F931F932F933F93DE
S1130EF04F935F936F937F938F939F93AF93BF931E
S1130F00CF93DF93EF93FF9388EB82BFC7EBD5E0DA
S1130F1007EE15E088819981892B81F08C819D8170
S1130F202A813B818217930731F41D821C82E88158
S1130F30F981099503C001969D838C832696C01779
S1130F40D10741F78091A3059091A4059C012F5FDF
S1130F503F4F3093A4052093A3058436910589F46B
S1130F60EFEAF5E087EB95E0208121502E3F08F46D
S1130F7020833196E817F907B9F71092A405109267
S1130F80A305FF91EF91DF91CF91BF91AF919F9115
S1130F908F917F916F915F914F913F912F911F910D
S1130FA00F910F900BBE0F900FBE0F901F901895CE
S1130FB0CF93DF936A30710510F46AE070E0C0915A
S1130FC0B705D091B805C817D90709F43EC0A7EEF4
S1130FD0B5E0EDEBF5E04081518148175907B9F1CF
S1130FE03696EA17FB07B9F7CD2B51F0EDEBF5E098
S1130FF041E050E0EA01A081B181AB2BF9F402C0D9
S1131000C0E0D0E0AE01440F551FFA01EC0FFD1F04
S1131010EE0FFF1FE954FA4F918380839B01ADECDF
S1131020BCEC24D496958795969587959695879547
S1131030938382831582148281E00CC04F5F5F4FDB
S1131040369648305105B1F604C081E003C081E012
S113105001C080E0DF91CF9108952091B7053091D0
S1131060B8052817390759F0EDEBF5E021E030E039
S1131070B9014081518148175907E1F402C060E089
S113108070E0CB01880F991FFC01E60FF71FEE0FEC
S1131090FF1FE954FA4F1182108213821282680FE3
S11310A0791FFB01EE0FFF1FE954FA4F15821482DA
S11310B081E008952F5F3F4F369628303105C1F601
S11310C080E008958091AF058F3F51F0E0EBF5E0AB
S11310D021E030E0822FA90191919F3F51F403C098
S11310E040E050E080E0FA01E155FA4F10828F5F52
S11310F008952F5F3F4F2830310561F780E0089550
S11311001ABA8FEF8BBBEAE6F0E0808188608083B7
S113111089B7826089BF8998919A7894D3DF809344
S1131120E705089589B3809580FD15C081FD15C03C
S113113082FD15C083FD15C084FD15C085FD15C055
S113114086FD15C08823D4F414C09093030481E071
S11311508093A505089595E00DC097E00BC094E039
S113116009C096E007C092E005C093E003C090E098
S113117001C091E08091A505882339F308951F9259
S11311800F920FB60F9211240BB60F922F933F9329
S11311904F935F936F937F938F939F93AF93BF937B
S11311A0EF93FF93F894BEDF7894FF91EF91BF9192
S11311B0AF919F918F917F916F915F914F913F91EB
S11311C02F910F900BBE0F900FBE0F901F9018958C
S11311D0F8948091A505882329F080910304109246
S11311E0A50501C08FEF7894089598E01B98882393
S11311F014F41C9A01C01C98880F00000000000021
S11312001B9A00000000915089F7089580E090E057
S11312100196883B9105E1F70895CF93C82F1E9A54
S11312208AEFE3DF8C2F807FE0DF8C2F8295807F35
S1131230DCDF1E98EBDFCF910895CF93C82F1E9A61
S113124088EFD3DF8C2F807FD0DF8C2F8295807F37
S1131250CCDFDCDF1E98CF91089581E0EEDF80E0E3
S113126090E00196811520E39207D9F70895623042
S113127089F018F4613031F00BC0633029F0643028
S113128029F006C090E807C098E805C098E903C0B3
S113129098E901C090E9813110F4892BCECF0895EB
S11312A0BCCF08951F93CF93DF93EC0188818823EB
S11312B049F010E0B2DF1F5FFE01E10FF11D8081F4
S11312C08111F8CFDF91CF911F9108954AE06EE824
S11312D075E0DBD28EE895E0E5CF0895DF92EF92DA
S11312E0FF920F931F93CF93DF93D82F142F653062
S11312F008F064E0662309F4B8C0C1E02111C0E03D
S1131300C195623099F018F4613091F505C06330ED
S1131310C1F0643009F12CC08D2F86956894FF24A8
S1131320F7F8F80E6894EE24E7F824C08D2F86951C
S11313306894FF24F7F8F80E0F2EF0E9EF2EF02D45
S113134019C08D2F86950F2EF8E8FF2EF02DF80E7C
S11313506894EE24E7F80EC08D2F86950F2EF8E8DA
S1131360FF2EF02DF80E0F2EF0E9EF2EF02D02C017
S1131370E12CF12C84E361DF8D2F8170912F91702A
S1131380D12BD0FD16C0169500E0D12C802F8E0DE8
S113139054DF8F2D52DF112341F0DD2D8C2F3DDFE3
S11313A08C2F3BDFDF5FD113F9CF0F5F003171F773
S11313B057C081111DC0992309F452C0169500E04D
S11313C0D12C802F8E0D39DF8F2D37DF112341F083
S11313D0DD2D8C2F22DF8C2F20DFDF5FD113F9CF9F
S11313E08C2F1BDF8D2D19DF0F5F003151F738C0B3
S11313F091111EC01695115000E0802F8E0D1DDF37
S11314008F2D1BDF80E009DF8C2F07DF112341F0D4
S1131410D0E08C2F02DF8C2F00DFDF5F1D13F9CFAC
S11314208C2FFBDE80E0F9DE0F5F003131F718C04E
S1131430169500E0802F8E0D00DF8F2DFEDE80E0FC
S1131440ECDE8C2FEADE112341F0D0E08C2FE5DEB8
S11314508C2FE3DEDF5FD113F9CF0F5F003151F73B
S113146086E3EBDE80E3E9DE05C0C1E02111C0E0E4
S1131470C19552CFDF91CF911F910F91FF90EF90C3
S1131480DF9008951F93CF93DF9384E3D6DED0E8F3
S113149010E18D2FD2DE80E8D0DEC12F80E0BDDEEA
S11314A080E0BBDEC150D1F7DF5FD03991F710E1A6
S11314B08D2FC3DE80E8C1DEC12F80E0AEDE80E088
S11314C0ACDEC150D1F7DF5FD03A91F7D0E810E13C
S11314D08D2FB3DE88E8B1DEC12F80E09EDE80E090
S11314E09CDEC150D1F7DF5FD03991F710E18D2F29
S11314F0A4DE88E8A2DEC12F80E08FDE80E08DDEEE
S1131500C150D1F7DF5FD03A91F780E396DEDF91E7
S1131510CF911F91089582B1886F82B91D9880E0A0
S113152090E00196811520EF9207D9F71D9A1F9834
S113153080E090E00196811520E39207D9F780E3DB
S11315407CDE8CE07ADE81E078DE82E076DE80E8A4
S113155074DE84E072DE8CE070DE94CF089550581F
S1131560BB27AA270ED0E5C0D6D030F0DBD020F0C0
S113157031F49F3F11F41EF4CBC00EF4E095E7FB69
S1131580C1C0E92FE7D080F3BA1762077307840755
S1131590950718F071F49EF5FFC00EF4E0950B2E3C
S11315A0BA2FA02D0B01B90190010C01CA01A001B1
S11315B01124FF27591B99F0593F50F4503E68F10C
S11315C01A16F040A22F232F342F4427585FF3CF4D
S11315D0469537952795A795F0405395C9F77EF41E
S11315E01F16BA0B620B730B840BBAF09150A1F067
S11315F0FF0FBB1F661F771F881FC2F70EC0BA0FED
S1131600621F731F841F48F4879577956795B79574
S1131610F7959E3F08F0B3CF9395880F08F099276C
S1131620EE0F97958795089504D06894B111B5C0CD
S1131630089598D088F09F5790F0B92F9927B75103
S1131640A0F0D1F0660F771F881F991F1AF0BA9582
S1131650C9F712C0B13081F09FD0B1E008959CC0A9
S1131660672F782F8827B85F39F0B93FCCF3869578
S113167077956795B395D9F73EF4909580957095D5
S113168061957F4F8F4F9F4F0895E89409C097FB52
S11316903EF490958095709561957F4F8F4F9F4F45
S11316A09923A9F0F92F96E9BB279395F695879589
S11316B077956795B795F111F8CFFAF4BB0F11F44C
S11316C060FF1BC06F5F7F4F8F4F9F4F16C08823F3
S11316D011F096E911C0772321F09EE8872F762F29
S11316E005C0662371F096E8862F70E060E02AF06A
S11316F09A95660F771F881FDAF7880F9695879556
S113170097F9089597F99F6780E870E060E008957D
S11317109FEF80EC089500240A9416161706180605
S11317200906089500240A941216130614060506E1
S11317300895092E0394000C11F4882352F0BB0F72
S113174040F4BF2B11F460FF04C06F5F7F4F8F4FD5
S11317509F4F089557FD9058440F551F59F05F3F10
S113176071F04795880F97FB991F61F09F3F79F0BF
S113177087950895121613061406551FF2CF469541
S1131780F1DF08C0161617061806991FF1CF8695C3
S11317907105610508940895E894BB2766277727A7
S11317A0CB0197F908950BD0C4CFB5DF28F0BADF89
S11317B018F0952309F0A6CFABCF1124EECFCADFE2
S11317C0A0F3959FD1F3950F50E0551F629FF00150
S11317D0729FBB27F00DB11D639FAA27F00DB11DA9
S11317E0AA1F649F6627B00DA11D661F829F222732
S11317F0B00DA11D621F739FB00DA11D621F839FB9
S1131800A00D611D221F749F3327A00D611D231F8E
S1131810849F600D211D822F762F6A2F11249F57DC
S113182050408AF0E1F088234AF0EE0FFF1FBB1FFF
S1131830661F771F881F91505040A9F79E3F51059E
S113184070F060CFAACF5F3FECF3983EDCF386954F
S113185077956795B795F795E7959F5FC1F7FE2B49
S1131860880F911D9695879597F90895A29FB001C9
S1131870B39FC001A39F700D811D1124911DB29FC0
S1131880700D811D1124911D0895BB274A3031F438
S1131890992322F4BDE2909581959F4F01C0BB2707
S11318A0FB015527AA27880F991FAA1FA41710F018
S11318B0A41B83955051B9F7A05DAA3308F0A95D24
S11318C0A193009779F7B111B1931192CB0100C0A4
S11318D0DC01FC01672F71917723E1F7329704C093
S11318E07C916D9370836291AE17BF07C8F308951E
S10718F0F894FFCF96
S11318F401FE01FC03FFFF000000000000000000E3
S1131904000110000000000000000000007000014D
S1131914100110021000000110012000000000005A
S11319240000000000000002100110031000000277
S1131934100130000000000000000000000000035B
S11319441002100410000003100310000000000033
S1131954000000000000000410031005100000043F
S11319641004100000000000000000000000000546
S11319741004100510000005100000000000000011
S113198400000000000000012001200220011001D9
S113199420012000000000000000000000000002FC
S11319A42001200320011002200220000000000076
S11319B400000000000000032002200420011003A2
S11319C420032000000000000000000000000004C8
S11319D4200320052001100420042000000000003E
S11319E4000000000000000520042005200110056B
S11319F42005200000000000000000000000000199
S1131A0430013002300210013001310000000000C6
S1131A140000000000000002300130033002100214
S1131A243001320000000000000000000000000348
S1131A34300230043002100330013300000000008F
S1131A4400000000000000043003300430021004DD
S1131A543004300000000000000000000000000119
S1131A643104310231013001310131000000000040
S1131A740000000000CD01023101310331013002C4
S1131A8431113100000000000000000000CD01030A
S1131A9431023104310130033114310000000000FB
S1131AA40000000000CD0104310331013101300490
S1131AB43104310000000000000000E401E60111DB
S1131AC43111311131123113310231DE01DF0100E0
S1131AD4000000E5010000123112311231133111FA
S1131AE4310231E001E10100000000E501000013CE
S1131AF43113311331113112310231E201E30100A6
S1131B04000000E5010000000000000000000000E7
S1131B1400000000000000000000000000000000BD
S1131B2400000000000000000000000000000000AD
S1131B34000000000000000000000000000000009D
S1131B44000000000000000000000000000000008D
S1131B54000000000000000000000000000000007D
S1131B64000000000000000000000000000000006D
S1131B74000000000000000000000000000000005D
S1131B84000000000000000000000000000000004D
S1131B94000000000000000000000000000000003D
S1131BA40000000000000000000000000000000429
S1131BB40430043A0440045104560461046C047768
S1131BC40482048D049C04A704B204BD04C804D193
S1131BD404DE04EB04F8040705160521052A05357B
S1131BE4054005510560056F0580058505880500D8
S1131BF4000000FF2020202020202020202020205E
S1131C042020202000005B315D005B325D005B33EB
S1131C145D005B585D0030306430306830306D00F6
S1131C24B5B1C7B0D1B9B2EE3A00CAB1BCE43A0016
S1131C34D7B4CCAC2020B2CBB5A52020B1A8BEAF7C
S1131C4400B7B5BBD8003E20CFB5CDB3D7B4CCAC28
S1131C54003E20B9A4D7F7C4A3CABD003E20C5E7FB
S1131C64B4B5C9E8D6C3003E20B1A8BEAFC9E8D60E
S1131C74C3003E20CDCBB3F6B2CBB5A5003E20CFF6
S1131C84B5CDB3D4CBD0D0CAB1BCE4003E20C5E7B3
S1131C94B4B5B4CECAFD003E20B9D8D3DAB1BEBBC4
S1131CA4FA003E20C9E8D6C3CBF8B6A8003E20B556
S1131CB4A5CEBBC9E8D6C3003E20C0A9D5B9B0E5BA
S1131CC4003E20D1B9B2EEC4A3CABDD2BB003E20AB
S1131CD4D1B9B2EEC4A3CABDB6FE003E20D1B9B296
S1131CE4EEC4A3CABDC8FD003E20CAB1D0F2BFD819
S1131CF4D6C6C4A3CABD003E20B1E0B3CCC5E7B484
S1131D04B5C4A3CABD003E20D5FDD4DAC6F4D3C3FA
S1131D14003E20B9D8B1D5D6D0003E20D1B9B2EE18
S1131D24C9CFCFDE003E20D1B9B2EECFC2CFDE00A0
S1131D343E20D1B9B2EECFC2CFDEB0D9B7D6B1C846
S1131D44003E20D7EED0A1C5E7B4B5C6B5C2CA00DB
S1131D543E20C5E7B4B5CAB1BCE4BCE4B8F400B7EA
S1131D64B5BBD82020C8B7C8CF2020B0EFD6FA001E
S1131D746D6D4867005061006D6D48324F0020203E
S1071D842020000017
S9030000FC
