S00B00004156522E7372656330
S113000045C0000060C000005EC000005CC000008D
S11300105AC000001EC1000047C1000070C10000AA
S113002099C1000050C000004EC000004CC0000048
S11300304AC0000048C0000046C000008BC0000059
S113004042C0000040C000003EC000003CC00000B0
S11300503AC0000038C0000036C0000034C00000C0
S113006032C0000030C000002EC000002CC00000D0
S11300702AC0000028C0000026C0000024C00000E0
S113008022C0000020C000001EC0000011241FBEBA
S1130090CFEFD0E1DEBFCDBF11E0A0E0B1E0ECEAEC
S11300A0F5E000E00BBF02C007900D92A634B10743
S11300B0D9F721E0A6E4B1E001C01D92A339B2074B
S11300C0E1F754D271C29CCF10928C0110928B0133
S11300D010928E0110928D011092900110928F0156
S11300E010929201109291018FEF80938701809377
S11300F088018093890180938A0187E083BF12BEBF
S113010086B7816086BF87B7826087BF7894089579
S11301100F931F93CF93DF93CBE8D1E003E911E072
S1130120E991F991309709F00995C017D107C1F702
S1130130E7E8F1E08BE891E0208121502E3F08F4BC
S113014020833196E817F907B9F7DF91CF911F9112
S11301500F9108951F920F920FB60F9211240BB6B0
S11301600F922F933F934F935F936F937F938F934C
S11301709F93AF93BF93EF93FF938091460191E0D8
S1130180980F909346018E3119F4C2DF1092460104
S1130190FF91EF91BF91AF919F918F917F916F915B
S11301A05F914F913F912F910F900BBE0F900FBE17
S11301B00F901F90189540918B0150918C01481716
S11301C0590781F120918D0130918E01281739074B
S11301D059F160918F01709190016817790731F19D
S11301E0E0919101F0919201E817F90709F1452B8B
S11301F079F0232B39F0672B41F0EF2BD9F4E3E0AE
S1130200F0E008C0E1E0F0E005C0E2E0F0E002C0A8
S1130210E0E0F0E0EE0FFF1FE557FE4F918380838F
S113022081E0089581E0089581E0089581E00895D2
S113023081E0089580E0089580EF82B983B1806FF2
S113024083B98AB78A6A8ABF89B7806F89BF78946D
S113025008951F920F920FB60F9211240BB60F92AE
S11302602F933F934F935F936F937F938F939F93BA
S1130270AF93BF93EF93FF93F89481E091E03DD166
S11302807894FF91EF91BF91AF919F918F917F915E
S11302906F915F914F913F912F910F900BBE0F90F3
S11302A00FBE0F901F9018951F920F920FB60F92CA
S11302B011240BB60F922F933F934F935F936F9339
S11302C07F938F939F93AF93BF93EF93FF93F89490
S11302D08DE091E012D17894FF91EF91BF91AF91AD
S11302E09F918F917F916F915F914F913F912F914A
S11302F00F900BBE0F900FBE0F901F9018951F927A
S11303000F920FB60F9211240BB60F922F933F93B7
S11303104F935F936F937F938F939F93AF93BF9309
S1130320EF93FF93F89489E191E0E7D07894FF91FB
S1130330EF91BF91AF919F918F917F916F915F9159
S11303404F913F912F910F900BBE0F900FBE0F90C6
S11303501F9018951F920F920FB60F9211240BB68F
S11303600F922F933F934F935F936F937F938F934A
S11303709F93AF93BF93EF93FF93F89485E291E03B
S1130380BCD07894FF91EF91BF91AF919F918F91E1
S11303907F916F915F914F913F912F910F900BBE81
S11303A00F900FBE0F901F90189598E0E5E6F0E0CF
S11303B0882324F420812860208303C02081277FA0
S11303C02083880F208120612083000020812F7EDC
S11303D02083915069F7089580E090E0019680327F
S11303E023E09207D9F708951F93CF93DF93182F33
S11303F0C5E6D0E0888184608883EEDF88EFD5DFAE
S1130400812F807FD2DF812F8295807FCEDF88810C
S11304108B7F8883DF91CF911F910895E4E6F0E00C
S113042080818E618083E5E6F0E080818D7F80832A
S113043080E090E00196853124E39207D9F780E3C8
S1130440D3DF81E0D1DF86E0CFDF8CE0CDCF08952C
S11304501F93CF93DF93182FC5E6D0E08881846083
S11304608883BADF8AEFA1DF812F807F9EDF812F0F
S11304708295807F9ADF88818B7F8883DF91CF91FB
S11304801F910895CF93C82F623089F018F461301A
S113049031F00BC0633029F0643029F006C080E8E5
S11304A007C088E805C088E903C088E901C080E97D
S11304B0C13168F42C2F30E02F5F3F4F35952795DD
S11304C02150820F91DFC0FD02C080E2C1DFCF91D5
S11304D008951F93CF93DF93EC018881882349F01B
S11304E010E0B6DF1F5FFE01E10FF11D8081811175
S11304F0F8CFDF91CF911F910895EF92FF920F9360
S11305001F93CF93DF937C0107E811E087E491E028
S1130510EC016096BE0141D0C017D10711F0CE01A5
S1130520F7CFB70187E791E038D0C7E4D1E010E016
S11305301F5F612F81E0A6DFCE01CBDF6096143010
S1130540B9F7DF91CF911F910F91FF90EF9008952C
S1130550089580910001882321F0A99A1092000146
S11305600895A99881E08093000108958FEF84BBDA
S113057085BBEEDF53DF60DE61E081E083DF81E392
S113058091E0A7DFA1DD89EA92E015DE811104C0C4
S11305908FE391E0B2DFFBCFFFCFFB01DC010190E1
S10F05A00D920020E1F70895F894FFCFBD
S11305AC01427574746F6E20494E54340042757454
S11305BC746F6E20494E543500427574746F6E20FE
S11305CC494E543600427574746F6E20494E54373C
S11305DC0048656C6C6F2C20576F726C642100653D
S10905EC72726F72000040
S9030000FC
