S00B00004156522E7372656330
S113000045C0000060C00000D2C500005CC0000014
S11300105AC0000058C0000056C0000054C0000080
S113002052C0000050C000004EC000004CC0000090
S11300304AC0000048C0000046C00000F2C40000EE
S113004042C0000040C000003EC000003CC00000B0
S11300503AC0000038C0000036C0000034C00000C0
S113006032C0000030C000002EC000002CC00000D0
S11300702AC0000028C0000026C0000024C00000E0
S113008022C0000020C000001EC0000011241FBEBA
S1130090CFEFD0E1DEBFCDBF14E0A0E0B1E0E4E4F7
S11300A0FDE000E00BBF02C007900D92A833B1073A
S11300B0D9F724E0A8E3B4E001C01D92AF37B2073A
S11300C0E1F736D63DC69CCF089587B3806E87BBD3
S11300D0E4E6F0E0808188618083E5E6F0E08081F9
S11300E0877F8083C798808180618083C6980895C4
S11300F0B89AE1E6F0E0808188608083E4E6F0E08D
S1130100808181608083C09AE2E6F0E0808188602B
S11301108083E5E6F0E080818E7F80830895B9D501
S113012061E081E0CAD580913D0490913E04ECD514
S113013062E081E0C2D580913F0490914004E4D50F
S113014063E081E0BAD58091410490914204DCD50A
S113015064E081E0B2D58091430490914404D4D505
S113016080914504823049F0833069F0813081F414
S113017061E0A3D58AE291C5089562E081E09DD54E
S11301808AE28BC5089563E081E097D58AE285C54C
S1130190089520910001309101012817390759F081
S11301A0E8E1F1E021E030E0B901408151814817F4
S11301B0590791F402C060E070E0CB01880F991FE9
S11301C0680F791FCB01880F991F880F991F880F1B
S11301D0991F80509F4F08952F5F3F4F789621318C
S11301E0310511F780E090E00895E0913804F09132
S11301F0390480819181843020E2920709F4A4C1FA
S113020078F5843020E1920709F4EAC0A0F4813043
S113021020E1920709F478C020F4892B09F451C035
S11302200895823020E1920709F492C0833090410E
S113023009F4B2C00895813020E2920709F418C18C
S113024028F48530904109F4EFC00895823020E20B
S1130250920709F431C18330904209F451C10895E1
S1130260833020E3920709F423C288F4863020E225
S1130270920709F4B1C108F48BC1813020E39207DD
S113028009F4CEC18230904309F4EEC1089581305F
S113029021E3920709F478C250F4843020E39207F2
S11302A009F42AC28530904309F44AC20895823081
S11302B021E3920709F499C28330914309F4C6C239
S11302C00895809198029091990290933E048093AE
S11302D03D0480919A0290919B02909340048093F4
S11302E03F0480919C0290919D02909342048093DC
S11302F0410480919E0290919F02909344048093C4
S113030043041092450408958091A2029091A3029F
S113031090933E0480933D048091A4029091A502A1
S11303209093400480933F048091A6029091A70289
S113033090934204809341048091CE029091CF0225
S1130340909344048093430481E08093450408958A
S11303508091A2029091A30290933E0480933D0465
S11303608091A4029091A5029093400480933F044D
S11303708091A6029091A702909342048093410435
S11303808091CE029091CF029093440480934304D1
S113039082E08093450408958091A2029091A30283
S11303A090933E0480933D048091A4029091A50211
S11303B09093400480933F048091A6029091A702F9
S11303C090934204809341048091D0029091D10291
S11303D0909344048093430483E0809345040895F8
S11303E08091A8029091A90290933E0480933D04C9
S11303F08091AA029091AB029093400480933F04B1
S113040080919802909199029093420480934104C0
S11304108091D0029091D10290934404809343043C
S113042081E08093450408958091A8029091A902E7
S113043090933E0480933D048091AA029091AB0274
S11304409093400480933F04809198029091990284
S113045090934204809341048091D0029091D10200
S1130460909344048093430482E080934504089568
S11304708091AC029091AD0290933E0480933D0430
S11304808091AE029091AF029093400480933F0418
S11304908091B0029091B102909342048093410400
S11304A08091D0029091D1029093440480934304AC
S11304B081E08093450408958091AC029091AD024F
S11304C090933E0480933D048091AE029091AF02DC
S11304D09093400480933F048091B0029091B102C4
S11304E090934204809341048091D0029091D10270
S11304F0909344048093430482E0809345040895D8
S11305008091AC029091AD0290933E0480933D049F
S11305108091AE029091AF029093400480933F0487
S11305208091B0029091B10290934204809341046F
S11305308091D0029091D10290934404809343041B
S113054083E08093450408958091B2029091B302B0
S113055090933E0480933D048091B4029091B5023F
S11305609093400480933F048091B6029091B70227
S113057090934204809341048091D0029091D102DF
S1130580909344048093430481E080934504089548
S11305908091B2029091B30290933E0480933D0403
S11305A08091B4029091B5029093400480933F04EB
S11305B08091B6029091B7029093420480934104D3
S11305C08091D0029091D10290934404809343048B
S11305D082E08093450408958091B2029091B30221
S11305E090933E0480933D048091B4029091B502AF
S11305F09093400480933F048091B6029091B70297
S113060090934204809341048091D0029091D1024E
S1130610909344048093430483E0809345040895B5
S11306208091B8029091B90290933E0480933D0466
S11306308091BA029091BB029093400480933F044E
S11306408091BC029091BD02909342048093410436
S11306508091D0029091D1029093440480934304FA
S113066081E08093450408958091B8029091B90285
S113067090933E0480933D048091BA029091BB0212
S11306809093400480933F048091BC029091BD02FA
S113069090934204809341048091D0029091D102BE
S11306A0909344048093430482E080934504089526
S11306B08091B8029091B90290933E0480933D04D6
S11306C08091BA029091BB029093400480933F04BE
S11306D08091BC029091BD029093420480934104A6
S11306E08091D0029091D10290934404809343046A
S11306F083E08093450408958091BE029091BF02E7
S113070090933E0480933D048091C0029091C10275
S11307109093400480933F048091980290919902B1
S113072090934204809341048091D0029091D1022D
S1130730909344048093430481E080934504089596
S11307408091BE029091BF0290933E0480933D0439
S11307508091C0029091C1029093400480933F0421
S1130760809198029091990290934204809341045D
S11307708091D0029091D1029093440480934304D9
S113078082E08093450408958091D202813049F437
S11307908091C2029091C30290933E0480933D04E1
S11307A008C08091C4029091C50290933E04809346
S11307B03D048091C6029091C702909340048093B7
S11307C03F048091C8029091C9029093420480939F
S11307D041048091D0029091D1029093440480937B
S11307E0430481E08093450408958091D2028130CE
S11307F049F48091C2029091C30290933E04809385
S11308003D0408C08091C4029091C50290933E04B7
S113081080933D048091C6029091C7029093400456
S113082080933F048091C8029091C902909342043E
S1130830809341048091D0029091D102909344041A
S11308408093430482E08093450408958091D2020A
S1130850813049F48091C2029091C30290933E0486
S113086080933D0408C08091C4029091C502909386
S11308703E0480933D048091C6029091C7029093F8
S1130880400480933F048091C8029091C9029093E0
S11308904204809341048091D0029091D1029093BC
S11308A044048093430481E080934504089580E0E8
S11308B090E06FDC909339048093380496DC2FCC5D
S11308C008959ED1823071F038F4882309F43FC032
S11308D0813009F454C00895833009F1843009F457
S11308E066C00895E0913804F09139040288F389D0
S11308F0E02D309709F00995E0913804F09139041E
S11309008085918546DC909339048093380461E0B6
S113091081E0D3D18EE3C1D168DC01CC0895E091AC
S11309203804F09139040088F189E02D309709F0FA
S11309300995E0913804F09139048681978129DC86
S1130940909339048093380450DCE9CB0895E09106
S11309503804F09139040484F585E02D309709F0CA
S11309600995E0913804F09139048281938111DC76
S1130970909339048093380438DCD1CB0895E09106
S11309803804F09139040684F785E02D309709F096
S11309900995E0913804F091390484819581F9DB5B
S11309A0909339048093380420DCB9CB0895E09106
S11309B03804F09139040688F789E02D309709F05E
S11309C00995E0913804F091390482859385E1DB3F
S11309D0909339048093380408DCA1CB0895EEE4A5
S11309E0F4E08EE794E01182108213821282158261
S11309F014823696E817F907B1F7E6E4F4E08EE4DA
S1130A0094E02FEF2193E817F907E1F788E483BF17
S1130A1012BE86B7816086BF87B7826087BF78942D
S1130A2008951F920F920FB60F9211240BB60F92D6
S1130A300F931F932F933F934F935F936F937F93E2
S1130A408F939F93AF93BF93CF93DF93EF93FF93D2
S1130A50CEE4D4E00EE714E088819981892B81F0FB
S1130A608C819D812A813B818217930731F41D82F9
S1130A701C82E881F981099503C001969D838C83CA
S1130A802696C017D10741F780913A0490913B0410
S1130A909C012F5F3F4F30933B0420933A048436EC
S1130AA0910589F4E6E4F4E08EE494E02081215099
S1130AB02E3F08F420833196E817F907B9F710920E
S1130AC03B0410923A04FF91EF91DF91CF91BF91D3
S1130AD0AF919F918F917F916F915F914F913F91D2
S1130AE02F911F910F910F900BBE0F900FBE0F907F
S1130AF01F901895809146048F3F51F0E7E4F4E08D
S1130B0021E030E0822FA90191919F3F51F403C06D
S1130B1040E050E080E0FA01EA5BFB4F10828F5F17
S1130B2008952F5F3F4F2830310561F780E0089525
S1130B301ABA8FEF8BBBEAE6F0E08081886080838D
S1130B4089B7826089BF8998919A7894D3DF80931A
S1130B507E04089589B3809580FD15C081FD15C07C
S1130B6082FD15C083FD15C084FD15C085FD15C02B
S1130B7086FD15C08823D4F414C09093D30281E079
S1130B8080933C04089595E00DC097E00BC094E079
S1130B9009C096E007C092E005C093E003C090E06E
S1130BA001C091E080913C04882339F308951F9299
S1130BB00F920FB60F9211240BB60F922F933F93FF
S1130BC04F935F936F937F938F939F93AF93BF9351
S1130BD0EF93FF93F894BEDF7894FF91EF91BF9168
S1130BE0AF919F918F917F916F915F914F913F91C1
S1130BF02F910F900BBE0F900FBE0F901F90189562
S1130C00F89480913C04882329F08091D3021092B7
S1130C103C0401C08FEF7894089598E0882314F47D
S1130C201C9A01C01C98880F1B9A00000000000049
S1130C301B98915099F7089580E090E00196813EC9
S1130C4022E09207D9F70895CF93C82F1E9AF4DFB4
S1130C5088EFE3DF8C2F807FE0DF8C2F8295807F0D
S1130C60DCDF1E98CF91089582B1886F82B91D9AF6
S1130C701F9880E090E00196811520E39207D9F750
S1130C8080E3E2DF81E0E0DF86E0DEDF8CE0DCCFE2
S1130C90089581E0D9DFD0CF0895CF93C82F1E9A4D
S1130CA0CBDF8AEFBADF8C2F807FB7DF8C2F829562
S1130CB0807FB3DF1E98CF910895CF93C82F623001
S1130CC089F018F4613031F00BC0633029F06430DE
S1130CD029F006C080E807C088E805C088E903C099
S1130CE088E901C080E9C13168F42C2F30E02F5F1E
S1130CF03F4F359527952150820FA6DFC0FD02C0D6
S1130D0080E2CBDFCF9108951F93CF93DF93EC0163
S1130D108881882349F010E0C0DF1F5FFE01E10FE6
S1130D20F11D80818111F8CFDF91CF911F9108953A
S1130D30FFDE9ADFDDD9C9D952DEB9DDC2DDFECFCF
S1070D40F894FFCF51
S1130D44000000000000000000000110000000008A
S1130D5400000000000064000110011002100110E2
S1130D640110012000000000000000000000000049
S1130D7402100110031002100210013000000000E0
S1130D84000000000000000003100210041003100F
S1130D940310031000000000000000000000000025
S1130DA404100310051004100410041000000000C3
S1130DB400000000000000000510041005100510D8
S1130DC40510000000000000000000000000000006
S1130DD40120012002200110012001200000000054
S1130DE40000000000000000022001200320011084
S1130DF402200220000000000000000000000000A7
S1130E04032002200420011003200320000000001A
S1130E14000000000000000004200320052001104D
S1130E240420042000000000000000000000000072
S1130E3405200420052001100520052000000000E1
S1130E4400000000000000000130013002300210F4
S1130E540130013100000000000000000000000027
S1130E64023001300330021002300132000000006D
S1130E7400000000000000000330023004300210BF
S1130E8403300133000000000000000000000000F3
S1130E940430033004300210043004300000000035
S1130EA40000000000000000013101310231013072
S1130EB401310131000000000000000000000000C6
S1130EC4000000000000000000000000000000001A
S1130ED40000000000000000D402E102EB02F10271
S1130EE4020308031803260330033A0352035D0381
S1130EF4680373037E0387039403A103AE03BD0352
S1130F04CC03D703E003EB03F60307041604000041
S1130F14000001FF20202020202020202020202049
S1130F2400B5B1C7B0D1B9B2EE3A00CAB1BCE43A23
S1130F3400D7B4CCAC2020B2CBB5A52020B1A8BE38
S1130F44AF0034B7B5BBD8003ECFB5CDB3D7B4CC1E
S1130F54ACBACDC9E8D6C3003EB9A4D7F7C4A3CA72
S1130F64BDD1A1D4F1003EC5E7B4B5C9E8D6C300E8
S1130F743EB1A8BEAFC9E8D6C3003ECDCBB3F6B2EA
S1130F84CBB5A53130CFB5CDB3D4CBD0D0CAB1BC59
S1130F94E4003131C5E7B4B5B4CECAFD003132B989
S1130FA4D8D3DAB1BEBBFA003133C9E8D6C3CBF81F
S1130FB4B6A8003134B5A5CEBBC9E8D6C3003135D3
S1130FC4C0A9D5B9B0E5003136D1B9B2EEC4A3CACB
S1130FD4BDD2BB003137D1B9B2EEC4A3CABDB6FE8B
S1130FE4003138D1B9B2EEC4A3CABDC8FD00313949
S1130FF4CAB1D0F2BFD8D6C6C4A3CABD003230B178
S1131004E0B3CCC5E7B4B5C4A3CABD003231D5FD41
S1131014D4DAC6F4D3C3003232B9D8B1D5D6D000A9
S11310243233D1B9B2EEC9CFCFDE003234D1B9B242
S1131034EECFC2CFDE003235D1B9B2EECFC2CFDEAD
S1131044B0D9B7D6B1C8003236D7EED0A1C5E7B40B
S1131054B5C6B5C2CA003237C5E7B4B5CAB1BCE433
S1131064BCE4B8F43238B7B5BBD8202020C8B7C81C
S10B1074CF2020B0EFD6FA00F2
S9030000FC
