S00B00004156522E7372656330
S113000045C0000060C0000072C100005CC0000078
S11300105AC0000058C0000056C0000054C0000080
S113002052C0000050C000004EC000004CC0000090
S11300304AC0000048C0000046C0000092C0000052
S113004042C0000040C000003EC000003CC00000B0
S11300503AC0000038C0000036C0000034C00000C0
S113006032C0000030C000002EC000002CC00000D0
S11300702AC0000028C0000026C0000024C00000E0
S113008022C0000020C000001EC0000011241FBEBA
S1130090CFEFD0E1DEBFCDBF11E0A0E0B1E0EAECEC
S11300A0F3E000E00BBF02C007900D92A230B1074D
S11300B0D9F721E0A2E0B1E001C01D92AE33B2074E
S11300C0E1F77AD180C19CCF87B3806E87BBE4E629
S11300D0F0E0808188618083E5E6F0E08081877FBD
S11300E08083C798808180618083C6980895B89A78
S11300F0E1E6F0E0808188608083E4E6F0E08081DE
S113010081608083C09AE2E6F0E080818860808329
S1130110E5E6F0E080818E7F808308950895EDE028
S1130120F1E08DE391E01182108213821282158234
S113013014823696E817F907B1F7E5E0F1E08DE0AF
S113014091E02FEF2193E817F907E1F788E483BFE3
S113015012BE86B7816086BF87B7826087BF7894F6
S113016008951F920F920FB60F9211240BB60F929F
S11301700F931F932F933F934F935F936F937F93AB
S11301808F939F93AF93BF93CF93DF93EF93FF939B
S1130190CDE0D1E00DE311E088819981892B81F0D4
S11301A08C819D812A813B818217930731F41D82C2
S11301B01C82E881F981099503C001969D838C8393
S11301C02696C017D10741F780910201909103014F
S11301D09C012F5F3F4F309303012093020184362B
S11301E0910589F4E5E0F1E08DE091E02081215072
S11301F02E3F08F420833196E817F907B9F71092D7
S1130200030110920201FF91EF91DF91CF91BF9111
S1130210AF919F918F917F916F915F914F913F919A
S11302202F911F910F910F900BBE0F900FBE0F9047
S11302301F901895809105018F3F51F0E6E0F1E0A1
S113024021E030E0822FA90191919F3F51F403C036
S113025040E050E080E0FA01EB5FFE4F10828F5FD8
S113026008952F5F3F4F2830310561F780E00895EE
S11302701ABA8FEF8BBBEAE6F0E080818860808356
S113028089B7826089BF8998919A7894D3DF8093E3
S11302903D01089589B3809580FD15C081FD15C089
S11302A082FD15C083FD15C084FD15C085FD15C0F4
S11302B086FD15C08823D4F414C09093000181E016
S11302C080930401089595E00DC097E00BC094E07D
S11302D009C096E007C092E005C093E003C090E037
S11302E001C091E080910401882339F308951F929D
S11302F00F920FB60F9211240BB60F922F933F93C8
S11303004F935F936F937F938F939F93AF93BF9319
S1130310EF93FF93F894BEDF7894FF91EF91BF9130
S1130320AF919F918F917F916F915F914F913F9189
S11303302F910F900BBE0F900FBE0F901F9018952A
S113034098E0882314F41C9A01C01C98880F1B9A07
S11303500000000000001B98915099F7089580E078
S113036090E00196813E22E09207D9F70895CF9359
S1130370C82F1E9AF4DF88EFE3DF8C2F807FE0DF45
S11303808C2F8295807FDCDF1E98CF91089582B1F7
S1130390886F82B91D9A1F9880E090E001968115BC
S11303A020E39207D9F780E3E2DF81E0E0DF86E033
S11303B0DEDF8CE0DCCF08955BDFE9DF98DE84DEEE
S10D03C0AEDEACDEFFCFF894FFCFF1
S10503CAFF002E
S9030000FC
