S00B00004156522E7372656330
S113000045C0000060C0000073C200005CC0000076
S11300105AC0000058C0000056C0000054C0000080
S113002052C0000050C000004EC000004CC0000090
S11300304AC0000048C0000046C0000082C1000061
S113004042C0000040C000003EC000003CC00000B0
S11300503AC0000038C0000036C0000034C00000C0
S113006032C0000030C000002EC000002CC00000D0
S11300702AC0000028C0000026C0000024C00000E0
S113008022C0000020C000001EC0000011241FBEBA
S1130090CFEFD0E1DEBFCDBF11E0A0E0B1E0E8E4F6
S11300A0FAE000E00BBF02C007900D92A632B10740
S11300B0D9F721E0A6E2B1E001C01D92A533B20751
S11300C0E1F700D3BFC49CCFE1E6F0E080818C7FF0
S11300D0808386E886B980E187B935980895369A91
S11300E0349BFECF86EF8A95F1F724B185B190E079
S11300F0982F8827820F911D0895CF92DF92EF9257
S1130100FF92CF93833089F028F4813041F082301C
S113011049F032C0843061F0853069F02DC080E14F
S113012087B92AC084E087B927C085E087B924C08D
S113013086E087B921C087E087B91EC0D0DFBC0143
S113014080E090E05BD39B01AC01C701B601C1D252
S11301506B017C01C15091F720E030E040E05EE3A8
S1130160DBD320E030E040E85AE3D6D320E030E0AF
S11301704AE754E4D1D305C0C8E0C12CD12C7601A0
S1130180DDCFCF91FF90EF90DF90CF900895B89A94
S1130190E1E6F0E0808188608083E4E6F0E080813D
S11301A081608083C09AE2E6F0E080818860808389
S11301B0E5E6F0E080818E7F80830895882339F01E
S11301C0C098E5E6F0E08081816080830895C09A5C
S11301D0E5E6F0E080818E7F80830895882331F006
S11301E0E2E6F0E08081877F80830895E2E6F0E034
S11301F080818860808308958F929F92AF92BF928E
S1130200CF92DF92EF92FF9281E077DF4B015C01A6
S113021082E073DF6B017C0162E087E0DED1C5011F
S1130220B40116D263E08BE0D8D1C701B60110D275
S113023080910001882339F081E0C0DF81E0CEDFC6
S11302401092000107C080E0B9DF80E0C7DF81E0E1
S113025080930001FF90EF90DF90CF90BF90AF901C
S11302609F908F90089530DF61E081E0B6D1809156
S11302700101805DA2D161E088E0AFD18FE09DD122
S113028061E08FE0AAD181E298D162E081E0A5D15A
S113029083E091E0C9D163E081E09FD189E091E0FE
S11302A0C3D164E081E099D183E191E0BDD18CEFC9
S11302B090E078C0089510922D0110922C011092B4
S11302C02F0110922E0110923101109230011092E0
S11302D03301109232018FEF80932801809329011A
S11302E080932A0180932B0187E083BF12BE86B7D7
S11302F0816086BF87B7826087BF789408950F9323
S11303001F93CF93DF93CCE2D1E004E311E0E991B2
S1130310F991309709F00995C017D107C1F7E8E2C0
S1130320F1E08CE291E0208121502E3F08F42083FB
S11303303196E817F907B9F7DF91CF911F910F9123
S113034008951F920F920FB60F9211240BB60F92BD
S11303502F933F934F935F936F937F938F939F93C9
S1130360AF93BF93EF93FF938091260191E0980F91
S1130370909326018E3119F4C2DF10922601FF9169
S1130380EF91BF91AF919F918F917F916F915F9109
S11303904F913F912F910F900BBE0F900FBE0F9076
S11303A01F90189540912C0150912D014817590721
S11303B081F120912E0130912F012817390759F12D
S11303C060913001709131016817790731F1E09142
S11303D03201F0913301E817F90709F1452B79F05F
S11303E0232B39F0672B41F0EF2BD9F4E3E0F0E055
S11303F008C0E1E0F0E005C0E2E0F0E002C0E0E0C7
S1130400F0E0EE0FFF1FE45DFE4F9183808381E0F7
S1130410089581E0089581E0089581E0089581E0E0
S1130420089580E00895809128018F3FC1F0809164
S113043029018F3F61F080912A018F3F61F0809103
S11304402B018F3FA1F483E0E3E0F0E00BC081E0F7
S1130450E1E0F0E007C082E0E2E0F0E003C0E0E0C9
S1130460F0E080E0E85DFE4F10828F5F089580E049
S113047008951ABA8FEF8BBBEAE6F0E080818860BA
S1130480808389B7826089BF8998919A7894CBDFF9
S113049080933401089589B3809580FD15C081FD52
S11304A015C082FD15C083FD15C084FD15C085FDF2
S11304B015C086FD15C08823D4F414C0909302019E
S11304C081E080932701089595E00DC097E00BC06B
S11304D094E009C096E007C092E005C093E003C031
S11304E090E001C091E080912701882339F30895B9
S11304F01F920F920FB60F9211240BB60F922F93E7
S11305003F934F935F936F937F938F939F93AF9397
S1130510BF93EF93FF93F894BEDF7894FF91EF912C
S1130520BF91AF919F918F917F916F915F914F9107
S11305303F912F910F900BBE0F900FBE0F901F9005
S1130540189598E0882314F41C9A01C01C98880F0D
S11305501B9A0000000000001B98915099F7089521
S113056080E090E00196813E22E09207D9F7089559
S1130570CF93C82F1E9AF4DF88EFE3DF8C2F807FA0
S1130580E0DF8C2F8295807FDCDF1E98CF91089569
S113059082B1886F82B91D9A1F9880E090E001961D
S11305A0811520E39207D9F780E3E2DF81E0E0DF01
S11305B086E0DEDF8CE0DCCF0895CF93C82F1E9A4F
S11305C0CFDF8AEFBEDF8C2F807FBBDF8C2F82953D
S11305D0807FB7DF1E98CF910895CF93C82F6230E4
S11305E089F018F4613031F00BC0633029F06430C5
S11305F029F006C080E807C088E805C088E903C080
S113060088E901C080E9C13168F42C2F30E02F5F04
S11306103F4F359527952150820FAADFC0FD02C0B8
S113062080E2CBDFCF9108951F93CF93DF93EC014A
S11306308881882349F010E0C0DF1F5FFE01E10FCD
S1130640F11D80818111F8CFDF91CF911F91089521
S11306508F929F92AF92BF92CF92DF92EF92FF92CE
S11306604B015C019AD06B017C014AE064E271E0C9
S1130670C601B5D184E291E0D7DF8EE29EDFB601F8
S1130680882777FD8095982FBBD09B01AC01C501CD
S1130690B4011ED020E030E048EC52E43DD17DD0DE
S11306A0DC01CB014AE064E271E099D184E291E09B
S11306B0BBDFFF90EF90DF90CF90BF90AF909F9003
S11306C08F900895D6DE64DF62DDF5DDCCDDFFCFEB
S11306D05058BB27AA270ED0E5C0D6D030F0DBD0C7
S11306E020F031F49F3F11F41EF4CBC00EF4E095DA
S11306F0E7FBC1C0E92FE7D080F3BA17620773079D
S11307008407950718F071F49EF5FFC00EF4E09588
S11307100B2EBA2FA02D0B01B90190010C01CA01B7
S1130720A0011124FF27591B99F0593F50F4503E62
S113073068F11A16F040A22F232F342F4427585F54
S1130740F3CF469537952795A795F0405395C9F76C
S11307507EF41F16BA0B620B730B840BBAF0915024
S1130760A1F0FF0FBB1F661F771F881FC2F70EC0C3
S1130770BA0F621F731F841F48F487957795679596
S1130780B795F7959E3F08F0B3CF9395880F08F07F
S11307909927EE0F97958795089504D06894B11121
S11307A0B5C0089598D088F09F5790F0B92F992735
S11307B0B751A0F0D1F0660F771F881F991F1AF068
S11307C0BA95C9F712C0B13081F09FD0B1E0089555
S11307D09CC0672F782F8827B85F39F0B93FCCF3D6
S11307E0869577956795B395D9F73EF4909580955E
S11307F0709561957F4F8F4F9F4F0895E89409C07E
S113080097FB3EF490958095709561957F4F8F4F3F
S11308109F4F9923A9F0F92F96E9BB279395F69555
S1130820879577956795B795F111F8CFFAF4BB0FD3
S113083011F460FF1BC06F5F7F4F8F4F9F4F16C037
S1130840882311F096E911C0772321F09EE8872FC1
S1130850762F05C0662371F096E8862F70E060E07D
S11308602AF09A95660F771F881FDAF7880F9695F6
S1130870879597F9089597F99F6780E870E060E09D
S113088008959FEF80EC089500240A941616170625
S113089018060906089500240A941216130614066D
S11308A005060895092E0394000C11F4882352F0D0
S11308B0BB0F40F4BF2B11F460FF04C06F5F7F4F88
S11308C08F4F9F4F089557FD9058440F551F59F06F
S11308D05F3F71F04795880F97FB991F61F09F3F29
S11308E079F087950895121613061406551FF2CF52
S11308F04695F1DF08C0161617061806991FF1CFA2
S113090086957105610508940895E894BB276627C8
S11309107727CB0197F908950BD0C4CFB5DF28F022
S1130920BADF18F0952309F0A6CFABCF1124EECF90
S1130930CADFA0F3959FD1F3950F50E0551F629F36
S1130940F001729FBB27F00DB11D639FAA27F00D24
S1130950B11DAA1F649F6627B00DA11D661F829F4B
S11309602227B00DA11D621F739FB00DA11D621F30
S1130970839FA00D611D221F749F3327A00D611D4D
S1130980231F849F600D211D822F762F6A2F11242F
S11309909F5750408AF0E1F088234AF0EE0FFF1F82
S11309A0BB1F661F771F881F91505040A9F79E3FB9
S11309B0510570F060CFAACF5F3FECF3983EDCF3B3
S11309C0869577956795B795F795E7959F5FC1F7F6
S11309D0FE2B880F911D9695879597F90895BB274F
S11309E04A3031F4992322F4BDE2909581959F4FCA
S11309F001C0BB27FB015527AA27880F991FAA1FEF
S1130A00A41710F0A41B83955051B9F7A05DAA3325
S1130A1008F0A95DA193009779F7B111B1931192F0
S1130A20CB0100C0DC01FC01672F71917723E1F752
S1130A30329704C07C916D9370836291AE17BF07A7
S10B0A40C8F30895F894FFCFF8
S1130A480101FFD1B9B2EE3A00C5E7B4B5B5E7C1C3
S1130A58F73A00D7B4CCAC2020B2CBB5A52020B14E
S1090A68A8BEAF0020004F
S9030000FC
