S00B00004156522E7372656330
S11300004CC0000068C000000C948F0F64C0000056
S113001062C0000060C000005EC000005CC0000060
S11300205AC0000058C0000056C0000054C0000070
S113003052C0000050C000004EC000000C943D0EA1
S11300404AC0000048C0000046C0000044C0000090
S113005042C0000040C000003EC000003CC00000A0
S11300603AC0000038C0000036C0000034C00000B0
S113007032C0000030C000002EC000002CC00000C0
S11300802AC0000028C0000026C000001612351245
S1130090541273129212B112D01211241FBECFEF58
S11300A0D0E1DEBFCDBF16E0A0E0B1E0EAEBFAE2BA
S11300B000E00BBF02C007900D92A832B107D9F738
S11300C026E0A8E2B6E001C01D92A938B207E1F724
S11300D003D00C945B1594CF0E94500F0E949C1186
S11300E0BDD6C0D50E94180E2CD50E94360D14BA68
S11300F00E945A0DFDCFBC0180910C01823059F44D
S113010080E090E00E94FA1324E43BE84CE650E4DB
S11301100C94B014089580E090E00E94FA1327EE46
S113012030E041EC5EE30C94B0140895CF92DF927A
S1130130EF92FF92CF93DF9381E09091300691117B
S113014080E08093300681E015D50E94C9136B01CD
S11301507C0161E080E00E940710809103018230FD
S113016049F0833061F0813079F482E294E00E94B6
S113017022100EC086E294E00E94221009C08AE296
S113018094E00E94221004C08EE294E00E942210A7
S113019061E084E00E940710809131068823E1F039
S11301A080913306882361F080913006882321F002
S11301B08FE00E94201013C089E00E9420100FC01D
S11301C080913006882321F087E00E94201007C028
S11301D089E00E94201003C080E20E94201061E0A8
S11301E087E00E94071080913406882361F0809193
S11301F03006882321F081E20E94201007C080E2AB
S11302000E94201003C082E00E94201062E085E07A
S11302100E94071080910C01823031F4C6016BDF1B
S113022040E00E94361005C0C60165DF41E00E942F
S1130230361063E083E00E94071080913106882322
S113024009F4DFC080912E0690912F0601969093B9
S11302502F0680932E06CC9769F480912C069091FA
S11302602D06019690932D0680932C0610922F064E
S113027010922E0680912C0690912D06CC9769F44D
S113028080912A0690912B06019690932B068093D9
S11302902A0610922D0610922C0640912A0650919F
S11302A02B064831510549F480912806909129067E
S11302B001969093290680932806C0912C06D0912C
S11302C02D06E2E3F4E09E01ADECBCEC0E941915AE
S11302D09695879596958795969587959C01220F77
S11302E0331F880F991F880F991F880F991F820F3A
S11302F0931F9E01281B390BC901805D87839E01D2
S11303000E94191596958795969587959695879544
S1130310805D86839A010E94191596958795969516
S11303208795969587959C01220F331F880F991FF7
S1130330880F991F880F991F820F931F9A01281BFA
S1130340390BC901805D84839A010E941915969521
S113035087959695879596958795805D838340913B
S11303602806509129069A010E9419159695879599
S113037096958795969587959C01220F331F880F34
S1130380991F880F991F880F991F820F931F9A0135
S1130390281B390BC901805D81839A010E941915BC
S11303A0969587959695879596958795805D808394
S11303B0CF010E942210C6019EDE6B017C012091B8
S11303C008013091090140910A0150910B010E94EA
S11303D0AC1418162CF427D581E08093330611C091
S11303E020910401309105014091060150910701CB
S11303F0C701B6010E945D1388231CF425D5109211
S11304003306DF91CF91FF90EF90DF90CF90089566
S1130410CF93C1E080910C01813009F0C0E062E02B
S113042085E00E9407106091080170910901809194
S11304300A0190910B014C2F0E94361063E085E075
S11304400E940710609104017091050180910601DA
S1130450909107014C2F0E943610CF910895CF92AE
S1130460DF92EF92FF9220E030E040E450E46091AC
S113047008017091090180910A0190910B010E9479
S1130480F9126B017C0120E030E84DE654E40E944F
S11304905D13181644F0C0920801D0920901E0924D
S11304A00A01F0920B01FF90EF90DF90CF90089536
S11304B0CF92DF92EF92FF9220E030E040E450E4EC
S11304C0609108017091090180910A0190910B01DA
S11304D00E94F8126B017C01209104013091050106
S11304E040910601509107010E94AC14882344F006
S11304F0C0920801D0920901E0920A01F0920B0126
S1130500FF90EF90DF90CF900895CF92DF92EF921B
S1130510FF9220E030E040E450E4609104017091E7
S1130520050180910601909107010E94F9126B0167
S11305307C01209108013091090140910A015091F8
S11305400B010E945D13882344F4C0920401D092ED
S11305500501E0920601F0920701FF90EF90DF9011
S1130560CF900895CF92DF92EF92FF9220E030E097
S113057040E450E46091040170910501809106010A
S1130580909107010E94F8126B017C0120E030E099
S113059048EC52E40E94AC14882344F0C092040155
S11305A0D0920501E0920601F0920701FF90EF90CE
S11305B0DF90CF900895CF92DF92EF92FF9220E0E8
S11305C030E040EF51E4609108017091090180919D
S11305D00A0190910B010E94F9126B017C0120E049
S11305E030E84DE654E40E945D13181644F0C092BE
S11305F00801D0920901E0920A01F0920B01FF90E8
S1130600EF90DF90CF900895CF92DF92EF92FF9218
S113061020E030E040EF51E460910801709109015D
S113062080910A0190910B010E94F8126B017C01E8
S11306302091040130910501409106015091070178
S11306400E94AC14882344F0C0920801D09209019E
S1130650E0920A01F0920B01FF90EF90DF90CF90AF
S11306600895CF92DF92EF92FF9220E030E040EFC6
S113067051E460910401709105018091060190910B
S113068007010E94F9126B017C012091080130914D
S1130690090140910A0150910B010E945D138823C6
S11306A044F4C0920401D0920501E0920601F09254
S11306B00701FF90EF90DF90CF900895CF92DF92E3
S11306C0EF92FF9220E030E040EF51E460910401AA
S11306D07091050180910601909107010E94F81222
S11306E06B017C0120E030E048EC52E40E94AC1441
S11306F0882344F0C0920401D0920501E0920601DF
S1130700F0920701FF90EF90DF90CF900895CF9281
S1130710DF92EF92FF9220E030E046E953E46091EB
S113072008017091090180910A0190910B010E94C6
S1130730F9126B017C0120E030E84DE654E40E949C
S11307405D13181644F0C0920801D0920901E0929A
S11307500A01F0920B01FF90EF90DF90CF90089583
S1130760CF92DF92EF92FF9220E030E046E953E42B
S1130770609108017091090180910A0190910B0127
S11307800E94F8126B017C01209104013091050153
S113079040910601509107010E94AC14882344F053
S11307A0C0920801D0920901E0920A01F0920B0173
S11307B0FF90EF90DF90CF900895CF92DF92EF9269
S11307C0FF9220E030E046E953E460910401709127
S11307D0050180910601909107010E94F9126B01B5
S11307E07C01209108013091090140910A01509146
S11307F00B010E945D13882344F4C0920401D0923B
S11308000501E0920601F0920701FF90EF90DF905E
S1130810CF900895CF92DF92EF92FF9220E030E0E4
S113082046E953E460910401709105018091060149
S1130830909107010E94F8126B017C0120E030E0E6
S113084048EC52E40E94AC14882344F0C0920401A2
S1130850D0920501E0920601F0920701FF90EF901B
S1130860DF90CF90089580910C018230E1F581E012
S113087080930C0124E43BE84CE650E460910801C9
S11308807091090180910A0190910B010E946113FA
S113089027EE30E041EC5EE30E94B014609308015F
S11308A07093090180930A0190930B0124E43BE8BF
S11308B04CE650E4609104017091050180910601B9
S11308C0909107010E94611327EE30E041EC5EE352
S11308D00E94B01460930401709305018093060193
S11308E090930701089582E080930C0127EE30E095
S11308F041EC5EE3609108017091090180910A0165
S113090090910B010E94611324E43BE84CE650E40F
S11309100E94B014609308017093090180930A0146
S113092090930B0127EE30E041EC5EE3609104010B
S11309307091050180910601909107010E94611355
S113094024E43BE84CE650E40E94B01460930401B4
S11309507093050180930601909307010895FF9217
S11309600F931F93CF93DF9363E080E00E940710FF
S11309708CE394E00E94221063E080E00E94071060
S11309808AE494E00E94221080E090ECA2E1B0E0BE
S11309900197A109B1090097A105B105C9F763E061
S11309A080E00E94071087E594E00E94221081E015
S11309B093D2C0910201CC23C9F0F12C00EC12E1D6
S11309C0D0E063E087E00E9407108C2F90E00E9443
S11309D079108F2D902FA12FBD2F0197A109B10957
S11309E00097A105B105C9F7C15059F763E080E04C
S11309F00E94071085E694E00E94221081E05FD2F5
S1130A00C0910101CC23C9F0F12C00EC12E1D0E03B
S1130A1063E087E00E9407108C2F90E00E94791019
S1130A208F2D902FA12FBD2F0197A109B1090097F8
S1130A30A105B105C9F7C15059F782E040D281E060
S1130A408093310663E080E00E94071083E794E01E
S1130A500E94221080E090E8A5E2B0E00197A1098D
S1130A60B1090097A105B105C9F763E080E00E94D0
S1130A70071081E894E00E942210DF91CF911F912A
S1130A800F91FF900895FF920F931F93CF93DF93DD
S1130A9063E080E00E94071087E894E00E9422103F
S1130AA01092310680E00BD280E090ECA2E1B0E03D
S1130AB00197A109B1090097A105B105C9F7C09132
S1130AC00001CC23C9F0F12C00EC12E1D0E063E08A
S1130AD087E00E9407108C2F90E00E9479108F2DE0
S1130AE0902FA12FBD2F0197A109B1090097A1054E
S1130AF0B105C9F7C15059F763E080E00E940710BF
S1130B0084E994E00E94221080E0E6D180E090E441
S1130B10A8E3B0E00197A109B1090097A105B105C7
S1130B20C9F763E080E00E94071081EA94E00E9424
S1130B30221010923206DF91CF911F910F91FF90F6
S1130B400895E1E6F0E080818C7F808386E886B9B1
S1130B5080E187B935980895369A349BFECF86EFA5
S1130B608A95F1F724B185B190E0982F8827820FF8
S1130B70911D0895CF92DF92EF92FF92CF9383302D
S1130B8089F028F4813041F0823049F037C0843054
S1130B9061F0853069F032C080E187B92FC084E00C
S1130BA087B92CC085E087B929C086E087B926C0FB
S1130BB087E087B923C0D0DFBC0180E090E00E94C9
S1130BC0FA139B01AC01C701B6010E94F9126B0133
S1130BD07C01C15081F720E030E040E05EE30E94F8
S1130BE0B01420E030E040E85AE30E94B01420E062
S1130BF030E04AE754E40E94B01405C0C8E0C12CB8
S1130C00D12C7601D8CFCF91FF90EF90DF90CF9089
S1130C10089580910F019091100120E1E5E6F0E044
S1130C20992314F4C59A01C0C598880F991F38E117
S1130C303A95F1F700C030813860308338E13A9555
S1130C40F1F700C03081377F308338E13A95F1F70E
S1130C5000C0215029F7C79A88E18A95F1F700C0AE
S1130C60C798089587B3806E87BBE4E6F0E080817F
S1130C7088618083E5E6F0E08081877F8083C79880
S1130C80808180618083C698C4CF0895813198F4AF
S1130C9021E030E0A90102C0440F551F8A95E2F714
S1130CA0CA0120910F0130911001822B932B909354
S1130CB0100180930F01ADCF08958131A8F421E094
S1130CC030E0A90102C0440F551F8A95E2F7CA011A
S1130CD08095909520910F013091100182239323E8
S1130CE09093100180930F0194CF089580913A0658
S1130CF0811128C08091380690913906892B11F50D
S1130D008091360690913706892BE1F480E0D5DF97
S1130D1081E08093350680913806909139060196DA
S1130D20909339068093380630910E012DEC329F52
S1130D30212D112426952695269530E082179307B8
S1130D40B1F527C0409135064423B9F080913806A7
S1130D509091390601969093390680933806309124
S1130D600E012DEC329F212D1124269526952695D2
S1130D7030E082179307D9F40AC080913606909127
S1130D8037060196909337068093360610C041309B
S1130D9071F480913A067ADF109235061092390682
S1130DA01092380680913A068F5F80933A0620911C
S1130DB00D0184E6289F90011124809136069091BC
S1130DC037062817390771F48091350681110AC056
S1130DD080913A0672DF81E08093350610923706DF
S1130DE01092360680913A068031E1F410923A0668
S1130DF01092370610923606109239061092380671
S1130E008091430690914406019690934406809302
S1130E10430680913B06811105C086E796E0EDD735
S1130E2080E03DC0089580913B0681110BC081E0B4
S1130E3080933B0634D06AE070E086E796E088D77A
S1130E4080E0089581E0089580913B06882321F095
S1130E5010923B0680E0089581E00895B89AE1E697
S1130E60F0E0808188608083E4E6F0E08081816046
S1130E7080838F9A8E9A8D9A8C9AC09AE2E6F0E0DB
S1130E80808188608083E5E6F0E080818E7F8083C6
S1130E9082B38F7082BB84B3807F84BB0895882320
S1130EA039F0E2E6F0E08081877F8083979A0895A5
S1130EB0E2E6F0E08081886080839798089581302D
S1130EC019F4969A95980895823019F49698959AFB
S1130ED00895959896980895813011F4949A0895F8
S1130EE09498089583B382FB882780F991E0892739
S1130EF008950E94FD0F61E080E00E940710809138
S1130F004506909146060E94221062E080E00E940D
S1130F10071080914706909148060E94221063E0D2
S1130F2080E00E9407108091490690914A060E9431
S1130F30221064E080E00E94071080914B0690919B
S1130F404C060E94221040914F0660914E068091FB
S1130F504D060C94C0110895209111013091120195
S1130F602817390759F0E9E2F1E021E030E0B9014E
S1130F70408151814817590791F402C060E070E044
S1130F80CB01880F991F680F791FCB01880F991F18
S1130F90880F991F880F991F8F5E9E4F08952F5FAA
S1130FA03F4F78962D31310511F780E090E0089598
S1130FB0E0913E06F0913F0680819181823020E3EA
S1130FC0920709F48FC2E0F5813020E2920709F418
S1130FD071C1D0F4823020E1920709F4CBC040F40F
S1130FE0009709F46BC08130904109F49BC027C578
S1130FF0843020E1920709F40DC108F4E3C0853080
S1131000904109F42FC11BC5843020E2920709F4F2
S1131010C9C150F4823020E2920709F473C18330CD
S1131020904209F497C10BC5863020E2920709F477
S113103009C208F4DFC18130904309F42BC2FFC414
S1131040843021E3920709F48CC3E0F4853020E373
S1131050920709F4BFC250F4833020E3920709F4E5
S113106069C28430904309F48DC2E9C4823021E31B
S1131070920709F40CC308F03FC38130914309F48B
S1131080D1C2DDC4833121E3920709F400C450F4D2
S1131090813121E3920709F48FC38231914309F42A
S11310A0C1C3CDC4853121E3920709F45CC408F4BB
S11310B024C48631914309F48CC4C1C48091C9030A
S11310C09091CA0390934606809345068091CB0382
S11310D09091CC0390934806809347068091310603
S11310E0882349F08091CD039091CE0390934A06D2
S11310F08093490608C08091090490910A04909352
S11311004A06809349068091CF039091D00390932F
S11311104C0680934B0610924D0610924E06109288
S11311204F0608958091D3039091D403909346067B
S1131130809345068091D5039091D60390934806F9
S1131140809347068091D7039091D80390934A06E1
S113115080934906809101049091020490934C0677
S113116080934B0610924D0681E080934E061092B8
S11311704F0608958091D3039091D403909346062B
S1131180809345068091D5039091D60390934806A9
S1131190809347068091D7039091D80390934A0691
S11311A080934906809101049091020490934C0627
S11311B080934B0610924D0682E080934E06109267
S11311C04F0608958091D3039091D40390934606DB
S11311D0809345068091D5039091D6039093480659
S11311E0809347068091D7039091D80390934A0641
S11311F080934906809101049091020490934C06D7
S113120080934B0610924D0683E080934E06109215
S11312104F0608958091D9039091DA03909346067E
S1131220809345068091DB039091DC0390934806FC
S1131230809347068091C9039091CA0390934A060C
S113124080934906809101049091020490934C0686
S113125080934B0610924D0681E080934E061092C7
S11312604F0608958091D9039091DA03909346062E
S1131270809345068091DB039091DC0390934806AC
S1131280809347068091C9039091CA0390934A06BC
S113129080934906809101049091020490934C0636
S11312A080934B0610924D0682E080934E06109276
S11312B04F0608958091DD039091DE0390934606D6
S11312C0809345068091DF039091E0039093480654
S11312D0809347068091E1039091E20390934A063C
S11312E080934906809101049091020490934C06E6
S11312F080934B0610924D0681E080934E06109227
S11313004F0608958091DD039091DE039093460685
S1131310809345068091DF039091E0039093480603
S1131320809347068091E1039091E20390934A06EB
S113133080934906809101049091020490934C0695
S113134080934B0610924D0682E080934E061092D5
S11313504F0608958091DD039091DE039093460635
S1131360809345068091DF039091E00390934806B3
S1131370809347068091E1039091E20390934A069B
S113138080934906809101049091020490934C0645
S113139080934B0610924D0683E080934E06109284
S11313A04F0608958091E3039091E40390934606D9
S11313B0809345068091E5039091E6039093480657
S11313C0809347068091E7039091E80390934A063F
S11313D080934906809101049091020490934C06F5
S11313E080934B0610924D0681E080934E06109236
S11313F04F0608958091E3039091E4039093460689
S1131400809345068091E5039091E6039093480606
S1131410809347068091E7039091E80390934A06EE
S113142080934906809101049091020490934C06A4
S113143080934B0610924D0682E080934E061092E4
S11314404F0608958091E3039091E4039093460638
S1131450809345068091E5039091E60390934806B6
S1131460809347068091E7039091E80390934A069E
S113147080934906809101049091020490934C0654
S113148080934B0610924D0683E080934E06109293
S11314904F0608958091E9039091EA0390934606DC
S11314A0809345068091EB039091EC03909348065A
S11314B0809347068091ED039091EE0390934A0642
S11314C080934906809101049091020490934C0604
S11314D080934B0610924D0681E080934E06109245
S11314E04F0608958091E9039091EA03909346068C
S11314F0809345068091EB039091EC03909348060A
S1131500809347068091ED039091EE0390934A06F1
S113151080934906809101049091020490934C06B3
S113152080934B0610924D0682E080934E061092F3
S11315304F0608958091E9039091EA03909346063B
S1131540809345068091EB039091EC0390934806B9
S1131550809347068091ED039091EE0390934A06A1
S113156080934906809101049091020490934C0663
S113157080934B0610924D0683E080934E061092A2
S11315804F0608958091EF039091F00390934606DF
S1131590809345068091F1039091F203909348065D
S11315A0809347068091C9039091CA0390934A0699
S11315B080934906809101049091020490934C0613
S11315C080934B0610924D0681E080934E06109254
S11315D04F0608958091EF039091F003909346068F
S11315E0809345068091F1039091F203909348060D
S11315F0809347068091C9039091CA0390934A0649
S113160080934906809101049091020490934C06C2
S113161080934B0610924D0682E080934E06109202
S11316204F06089580910301813049F48091F303BA
S11316309091F403909346068093450608C08091E8
S1131640F5039091F60390934606809345068091A6
S1131650F7039091F803909348068093470680918E
S1131660F9039091FA0390934A0680934906809176
S113167001049091020490934C0680934B061092BF
S11316804D0681E080934E0610924F060895809196
S11316900301813049F48091F3039091F403909312
S11316A046068093450608C08091F5039091F603A1
S11316B090934606809345068091F7039091F80332
S11316C090934806809347068091F9039091FA031A
S11316D090934A06809349068091010490910204F4
S11316E090934C0680934B0610924D0682E08093B3
S11316F04E0610924F06089580910301813049F4FB
S11317008091F3039091F4039093460680934506E9
S113171008C08091F5039091F60390934606809358
S113172045068091F7039091F803909348068093BF
S113173047068091F9039091FA0390934A068093A7
S11317404906809101049091020490934C06809381
S11317504B0610924D0683E080934E0610924F067E
S1131760089580910C01823049F480910304909192
S1131770040490934606809345060AC0813041F4E0
S11317808091050490910604909346068093450643
S11317908091C9039091CA039093480680934706A9
S11317A090934A068093490610924D0681E08093F7
S11317B04E0610924F06089580910301813049F43A
S11317C08091F3039091F403909346068093450629
S11317D008C08091F5039091F60390934606809398
S11317E045068091F7039091F803909348068093FF
S11317F047068091F9039091FA0390934A068093E7
S11318004906809101049091020490934C068093C0
S11318104B0610924D0682E080934E0681E0809341
S11318204F06089580910301813049F48091F303B8
S11318309091F403909346068093450608C08091E6
S1131840F5039091F60390934606809345068091A4
S1131850F7039091F803909348068093470680918C
S1131860F9039091FA0390934A0680934906809174
S113187001049091020490934C0680934B061092BD
S11318804D0682E080934E0680934F060895809122
S11318900301813049F48091F3039091F403909310
S11318A046068093450608C08091F5039091F6039F
S11318B090934606809345068091F7039091F80330
S11318C090934806809347068091F9039091FA0318
S11318D090934A06809349068091010490910204F2
S11318E090934C0680934B0610924D0682E08093B1
S11318F04E0683E080934F06089580910301813062
S113190049F48091F3039091F403909346068093F5
S1131910450608C08091F5039091F603909346061E
S1131920809345068091F7039091F80390934806BD
S1131930809347068091F9039091FA0390934A06A5
S113194080934906809101049091020490934C067F
S113195080934B0610924D0683E080934E0684E0FC
S113196080934F06089580910301813049F480915A
S1131970F3039091F403909346068093450608C0C0
S11319808091F5039091F603909346068093450663
S11319908091F7039091F80390934806809347064B
S11319A08091F9039091FA0390934A068093490633
S11319B0809101049091020490934C0680934B060D
S11319C010924D0683E080934E0685E080934F0687
S11319D0089580910301813049F48091F30390913B
S11319E0F403909346068093450608C08091F5035E
S11319F09091F60390934606809345068091F703F1
S1131A009091F80390934806809347068091F903D8
S1131A109091FA0390934A068093490680910104B9
S1131A209091020490934C0680934B0610924D06BD
S1131A3083E080934E0686E080934F06089580915C
S1131A40070490910804909346068093450680917C
S1131A50C9039091CA0390934806809347069093D4
S1131A604A068093490610924F06089580E090E05C
S1131A7073DA90933F0680933E0615D4E0913E06B8
S1131A80F0913F060688F789E02DF0933D06E09338
S1131A903C060995E0913E06F0913F0668EE73E03E
S1131AA08689978955D184DA24DA40E060E080E0C1
S1131AB067C408955DD2823071F038F4882309F444
S1131AC03AC0813009F44FC07EC08330E1F08430E5
S1131AD009F461C078C0E0913E06F0913F060288A7
S1131AE0F389E02D309709F00995E0913E06F091D5
S1131AF03F068085918530DA90933F0680933E06B9
S1131B0057DAF7D962C0E0913E06F0913F060088AB
S1131B10F189E02D309709F00995E0913E06F091A6
S1131B203F068681978118DA90933F0680933E069C
S1131B303FDADFD94AC0E0913E06F0913F060484C3
S1131B40F585E02D309709F00995E0913E06F09176
S1131B503F068281938100DA90933F0680933E068C
S1131B6027DAC7D932C0E0913E06F0913F060684D9
S1131B70F785E02D309709F00995E0913E06F09144
S1131B803F0684819581E8D990933F0680933E0671
S1131B900FDAAFD91AC0E0913E06F0913F060488EF
S1131BA0F589E02D309709F00995E0913E06F09112
S1131BB03F0682859385D0D990933F0680933E0655
S1131BC0F7D997D902C08F3FD1F080913C0690910C
S1131BD03D0613D1E0913E06F0913F060688F78951
S1131BE0E02DF0933D06E0933C06309741F00995D3
S1131BF068EE73E080913C0690913D06A9D072D9BD
S1131C00882351F080913206811111C081E08093C4
S1131C1032060C94AF04089580913106882319F09C
S1131C200C944305089580E04AD980E055C908958D
S1131C30E8E5F6E088E896E01182108213821282C9
S1131C40158214823696E817F907B1F7E0E5F6E055
S1131C5088E596E02FEF2193E817F907E1F713BE23
S1131C6083B7876083BF88EB82BF86B7816086BFF6
S1131C7087B7826087BF789408951F920F920FB63A
S1131C800F9211240BB60F920F931F932F933F9330
S1131C904F935F936F937F938F939F93AF93BF9370
S1131CA0CF93DF93EF93FF9388EB82BFC8E5D6E031
S1131CB008E816E088819981892B81F08C819D81C7
S1131CC02A813B818217930731F41D821C82E881AB
S1131CD0F981099503C001969D838C832696C017CC
S1131CE0D10741F780914006909141069C012F5FF6
S1131CF03F4F30934106209340068436910589F482
S1131D00E0E5F6E088E596E0208121502E3F08F4D6
S1131D1020833196E817F907B9F71092410610921B
S1131D204006FF91EF91DF91CF91BF91AF919F91C9
S1131D308F917F916F915F914F913F912F911F915F
S1131D400F910F900BBE0F900FBE0F901F90189520
S1131D50CF93DF936A30710510F46AE070E0C091AC
S1131D605806D0915906C817D90709F43EC0A8E807
S1131D70B6E0EEE5F6E04081518148175907B9F124
S1131D803696EA17FB07B9F7CD2B51F0EEE5F6E0EE
S1131D9041E050E0EA01A081B181AB2BF9F402C02B
S1131DA0C0E0D0E0AE01440F551FFA01EC0FFD1F57
S1131DB0EE0FFF1FE85AF94F918380839B01ADEC2E
S1131DC0BCEC37D696958795969587959695879585
S1131DD0938382831582148281E00CC04F5F5F4F2E
S1131DE0369648305105B1F604C081E003C081E065
S1131DF001C080E0DF91CF91089520915806309181
S1131E0059062817390759F0EEE5F6E021E030E0ED
S1131E10B9014081518148175907E1F402C060E0DB
S1131E2070E0CB01880F991FFC01E60FF71FEE0F3E
S1131E30FF1FE85AF94F1182108213821282680F31
S1131E40791FFB01EE0FFF1FE85AF94F1582148228
S1131E5081E008952F5F3F4F369628303105C1F653
S1131E6080E00895809150068F3F51F0E1E5F6E05F
S1131E7021E030E0822FA90191919F3F51F403C0EA
S1131E8040E050E080E0FA01E05BF94F10828F5FA0
S1131E9008952F5F3F4F2830310561F780E00895A2
S1131EA01ABA8FEF8BBBEAE6F0E08081886080830A
S1131EB089B7826089BF8998919A7894D3DF809397
S1131EC08806089589B3809580FD15C081FD15C0ED
S1131ED082FD15C083FD15C084FD15C085FD15C0A8
S1131EE086FD15C08823D4F414C090930D0481E0BA
S1131EF080934206089595E00DC097E00BC094E0EE
S1131F0009C096E007C092E005C093E003C090E0EA
S1131F1001C091E080914206882339F308951F920D
S1131F200F920FB60F9211240BB60F922F933F937B
S1131F304F935F936F937F938F939F93AF93BF93CD
S1131F40EF93FF93F894BEDF7894FF91EF91BF91E4
S1131F50AF919F918F917F916F915F914F913F913D
S1131F602F910F900BBE0F900FBE0F901F901895DE
S1131F70F89480914206882329F080910D041092F0
S1131F80420601C08FEF7894089598E01B98882347
S1131F9014F41C9A01C01C98880F00000000000073
S1131FA01B9A00000000915089F7089580E090E0AA
S1131FB00196883B9105E1F70895CF93C82F1E9AA7
S1131FC08AEFE3DF8C2F807FE0DF8C2F8295807F88
S1131FD0DCDF1E98EBDFCF910895CF93C82F1E9AB4
S1131FE088EFD3DF8C2F807FD0DF8C2F8295807F8A
S1131FF0CCDFDCDF1E98CF91089581E0EEDF80E036
S113200090E00196811520E39207D9F70895623094
S113201089F018F4613031F00BC0633029F064307A
S113202029F006C090E807C098E805C098E903C005
S113203098E901C090E9813110F4892BCECF08953D
S1132040BCCF08951F93CF93DF93EC01888188233D
S113205049F010E0B2DF1F5FFE01E10FF11D808146
S11320608111F8CFDF91CF911F9108958F929F92A4
S1132070AF92BF92CF92DF92EF92FF92CF934B0138
S11320805C01C42F86D36B017C014AE06DEA74E0E5
S1132090C601DED48DEA94E0D5DFCC2301F18EE2D3
S11320A08CDFB601882777FD8095982FA5D39B01F7
S11320B0AC01C501B4019CD2F12C20E030E040E237
S11320C051E44ED4F394FC12F8CF63D3DC01CB017A
S11320D04AE06DEA74E0BCD48DEA94E0B3DFCF91BA
S11320E0FF90EF90DF90CF90BF90AF909F908F9034
S11320F008954AE06AEA74E0ABD48AEA94E0A2CF95
S11321000895DF92EF92FF920F931F93CF93DF9383
S1132110D82F142F653008F064E0662309F4B6C0A4
S1132120C1E02111C0E0C195623099F018F461302A
S113213091F505C06330C1F0643009F12CC08D2FD6
S113214086956894FF24F7F8F80E6894EE24E7F86F
S113215024C08D2F86956894FF24F7F8F80E0F2E6F
S1132160F0E9EF2EF02D19C08D2F86950F2EF8E88B
S1132170FF2EF02DF80E6894EE24E7F80EC08D2F94
S113218086950F2EF8E8FF2EF02DF80E0F2EF0E9AD
S1132190EF2EF02D02C0E12CF12C84E31EDF8D2FF5
S11321A08170912F9170D12BD0FD16C0169500E04F
S11321B0D12C802F8E0D11DF8F2D0FDF112341F0D5
S11321C0DD2D8C2FFADE8C2FF8DEDF5FD113F9CFF3
S11321D00F5F003171F757C081111DC0992309F4B5
S11321E052C0169500E0D12C802F8E0DF6DE8F2D77
S11321F0F4DE112341F0DD2D8C2FDFDE8C2FDDDEAC
S1132200DF5FD113F9CF8C2FD8DE8D2DD6DE0F5F93
S1132210003151F738C091111EC01695115000E0DD
S1132220802F8E0DDADE8F2DD8DE80E0C6DE8C2F77
S1132230C4DE112341F0D0E08C2FBFDE8C2FBDDE35
S1132240DF5F1D13F9CF8C2FB8DE80E0B6DE0F5FA1
S1132250003131F718C0169500E0802F8E0DBDDED9
S11322608F2DBBDE80E0A9DE8C2FA7DE112341F089
S1132270D0E08C2FA2DE8C2FA0DEDF5FD113F9CF4C
S11322800F5F003151F780E3A8DE05C0C1E02111E2
S1132290C0E0C19554CFDF91CF911F910F91FF9072
S11322A0EF90DF9008951F93CF93DF9384E395DE3F
S11322B0D0E810E18D2F91DE80E88FDEC12F80E021
S11322C07CDE80E07ADEC150D1F7DF5FD03991F750
S11322D010E18D2F82DE80E880DEC12F80E06DDE8C
S11322E080E06BDEC150D1F7DF5FD03A91F7D0E8E0
S11322F010E18D2F72DE88E870DEC12F80E05DDE94
S113230080E05BDEC150D1F7DF5FD03991F710E197
S11323108D2F63DE88E861DEC12F80E04EDE80E031
S11323204CDEC150D1F7DF5FD03A91F780E355DE40
S1132330DF91CF911F91089582B1886F82B91D9862
S113234080E090E00196811520EF9207D9F71D9A5D
S11323501F9880E090E00196811520E39207D9F759
S113236080E33BDE8CE039DE81E037DE82E035DE7F
S113237080E833DE84E031DE8CE02FDE94CF0895F4
S11323801F93CF93DF93C82F162FD42F80910F0460
S1132390C81731F1CC2319F0C13089F01FC020E0F7
S11323A044E064E080E0ADDE20E044E064E086E008
S11323B0A8DE20E044E064E08CE0A3DE0FC020E06F
S11323C044E064E080E09DDE21E044E064E086E0F7
S11323D098DE21E044E064E08CE093DEC0930F04D7
S11323E0123051F0133071F0113089F461E080E063
S11323F00EDE8AE2E2DD0BC062E080E008DE8AE203
S1132400DCDD05C063E080E002DE8AE2D6DD809197
S11324100E048D1709F4E4C08D2F90E087309105E8
S113242008F0DCC0FC01EA5BFF4FFDC221E041E0A3
S113243062E08CE066DE21E041E062E08AE061DE99
S113244021E041E063E08DE05CDE21E041E063E017
S11324508CE057DE21E041E063E08AE052DE21E0D7
S113246041E062E08DE04DDEB9C021E041E062E090
S11324708CE047DE21E041E062E08AE042DE21E0D8
S113248041E063E08DE03DDE21E041E063E08CE08B
S113249038DE21E041E063E08AE033DE20E041E021
S11324A062E08DE02EDE9AC021E041E062E08DE042
S11324B028DE21E041E062E08AE023DE21E041E021
S11324C063E08DE01EDE21E041E063E08CE019DE94
S11324D021E041E063E08AE014DE20E041E062E0D4
S11324E08CE00FDE7BC021E041E062E08DE009DE9C
S11324F021E041E062E08CE004DE21E041E063E0C1
S11325008DE0FFDD21E041E063E08CE0FADD21E0D5
S113251041E063E08AE0F5DD20E041E062E08AE04A
S1132520F0DD5CC021E041E062E08DE0EADD21E025
S113253041E062E08CE0E5DD21E041E062E08AE038
S1132540E0DD21E041E063E08CE0DBDD21E041E01F
S113255063E08AE0D6DD20E041E063E08DE0D1DD98
S11325603DC021E041E062E08DE0CBDD21E041E0CF
S113257062E08CE0C6DD21E041E062E08AE0C1DD9A
S113258021E041E063E08DE0BCDD21E041E063E077
S11325908AE0B7DD20E041E063E08CE0B2DD1EC0FC
S11325A021E041E062E08DE0ACDD21E041E062E069
S11325B08CE0A7DD21E041E062E08AE0A2DD21E0D9
S11325C041E063E08DE09DDD21E041E063E08CE0EB
S11325D098DD20E041E063E08AE093DDD0930E04CF
S11325E086E3FBDC80E3F9DCDF91CF911F91089552
S11325F05058BB27AA270ED075C166D130F06BD1D5
S113260020F031F49F3F11F41EF45BC10EF4E09509
S1132610E7FB51C1E92F77D180F3BA17620773073B
S11326208407950718F071F49EF58FC10EF4E095B8
S11326300B2EBA2FA02D0B01B90190010C01CA0178
S1132640A0011124FF27591B99F0593F50F4503E23
S113265068F11A16F040A22F232F342F4427585F15
S1132660F3CF469537952795A795F0405395C9F72D
S11326707EF41F16BA0B620B730B840BBAF09150E5
S1132680A1F0FF0FBB1F661F771F881FC2F70EC084
S1132690BA0F621F731F841F48F487957795679557
S11326A0B795F7959E3F08F0B3CF9395880F08F040
S11326B09927EE0F979587950895D9D008F481E06E
S11326C008950CD00FC107D140F0FED030F021F4B2
S11326D05F3F19F0F0C0511139C1F3C014D198F320
S11326E09923C9F35523B1F3951B550BBB27AA278F
S11326F062177307840738F09F5F5F4F220F331F01
S1132700441FAA1FA9F333D00E2E3AF0E0E830D0CC
S113271091505040E695001CCAF729D0FE2F27D0CF
S1132720660F771F881FBB1F261737074807AB079D
S1132730B0E809F0BB0B802DBF01FF2793585F4F12
S11327402AF09E3F510568F0B6C000C15F3FECF32C
S1132750983EDCF3869577956795B795F7959F5FD7
S1132760C9F7880F911D9695879597F90895E1E02B
S1132770660F771F881FBB1F621773078407BA078A
S113278020F0621B730B840BBA0BEE1F88F7E095E5
S1132790089504D06894B111D9C00895BCD088F0CC
S11327A09F5790F0B92F9927B751A0F0D1F0660F39
S11327B0771F881F991F1AF0BA95C9F712C0B13054
S11327C081F0C3D0B1E00895C0C0672F782F882767
S11327D0B85F39F0B93FCCF3869577956795B39593
S11327E0D9F73EF490958095709561957F4F8F4F02
S11327F09F4F0895E89409C097FB3EF49095809507
S1132800709561957F4F8F4F9F4F9923A9F0F92FB2
S113281096E9BB279395F695879577956795B79530
S1132820F111F8CFFAF4BB0F11F460FF1BC06F5F16
S11328307F4F8F4F9F4F16C0882311F096E911C028
S1132840772321F09EE8872F762F05C0662371F049
S113285096E8862F70E060E02AF09A95660F771F5D
S1132860881FDAF7880F9695879597F90895990F39
S11328700008550FAA0BE0E8FEEF16161706E80746
S1132880F907C0F012161306E407F50798F0621B67
S1132890730B840B950B39F40A2661F0232B242B3C
S11328A0252B21F408950A2609F4A140A6958FEF5B
S11328B0811D811D089597F99F6780E870E060E0AD
S11328C008959FEF80EC089500240A9416161706C5
S11328D018060906089500240A941216130614060D
S11328E005060895092E0394000C11F4882352F070
S11328F0BB0F40F4BF2B11F460FF04C06F5F7F4F28
S11329008F4F9F4F089557FD9058440F551F59F00E
S11329105F3F71F04795880F97FB991F61F09F3FC8
S113292079F087950895121613061406551FF2CFF1
S11329304695F1DF08C0161617061806991FF1CF41
S113294086957105610508940895E894BB27662768
S11329507727CB0197F908958ADF08F48FEF08955C
S11329600BD0C0CFB1DF28F0B6DF18F0952309F003
S1132970A2CFA7CF1124EACFC6DFA0F3959FD1F34E
S1132980950F50E0551F629FF001729FBB27F00D19
S1132990B11D639FAA27F00DB11DAA1F649F66276E
S11329A0B00DA11D661F829F2227B00DA11D621FBD
S11329B0739FB00DA11D621F839FA00D611D221F77
S11329C0749F3327A00D611D231F849F600D211D5B
S11329D0822F762F6A2F11249F5750408AF0E1F0FE
S11329E088234AF0EE0FFF1FBB1F661F771F881F47
S11329F091505040A9F79E3F510570F05CCFA6CF8F
S1132A005F3FECF3983EDCF3869577956795B79531
S1132A10F795E7959F5FC1F7FE2B880F911D96955B
S1132A20879597F90895EE0FFF1F0590F491E02D17
S1132A300994A29FB001B39FC001A39F700D811D93
S1132A401124911DB29F700D811D1124911D0895B3
S1132A50BB274A3031F4992322F4BDE29095819545
S1132A609F4F01C0BB27FB015527AA27880F991F39
S1132A70AA1FA41710F0A41B83955051B9F7A05DA9
S1132A80AA3308F0A95DA193009779F7B111B19326
S1132A901192CB0100C0DC01FC01672F71917723F7
S1132AA0E1F7329704C07C916D9370836291AE1705
S10D2AB0BF07C8F30895F894FFCFA0
S1132ABA050505010000FA4300009644020164FF7B
S1132ACAFF000000000000000000000110000000E8
S1132ADA000000000000009600011001100210001E
S1132AEA00011001200000000000000000000000A6
S1132AFA000210011003100000021001300000004F
S1132B0A000000000000000000031002100410007E
S1132B1A0003100310000000000000000000000081
S1132B2A0004100310051000000410041000000033
S1132B3A0000000000000000000510041005100049
S1132B4A0005100000000000000000000000000062
S1132B5A00012001200220011001200120000000B0
S1132B6A00000000000000000002200120032001F0
S1132B7A10022002200000000000000000000000F3
S1132B8A0003200220042001100320032000000077
S1132B9A00000000000000000004200320052001BA
S1132BAA10042004200000000000000000000000BF
S1132BBA000520042005200110052005200000003E
S1132BCA0000000000000000000130013002300261
S1132BDA1001300131000000000000000000000074
S1132BEA00023001300330021002300132000000CA
S1132BFA000000000000000000033002300430022C
S1132C0A100330013300000000000000000000003F
S1132C1A0004300330043002100430043000000091
S1132C2A00000000000000000001310431023101FB
S1132C3A30013101310000000000000000000008EA
S1132C4A0202310131033101300231113100000035
S1132C5A00000000000000080203310231043101BF
S1132C6A30033114310000000000000000000008A5
S1132C7A020431033101310130043104310000000E
S1132C8A0000000000330400001131113111311227
S1132C9A31133102312F02580200000000000008EB
S1132CAA02123112311231133111310231DB0204B1
S1132CBA030000000000000802133113311331111C
S1132CCA31123102318703B003000000000000080A
S1132CDA021431143114311531163103318502B21B
S1132CEA02000000000000080215311531153116E2
S1132CFA311431033131035E03000000000000087F
S1132D0A02163116311631143115310331DD030A35
S1132D1A0400000000000008020000000000000097
S1132D2A0000000000000000000000000000000095
S1132D3A0000000000000000000000000000000085
S1132D4A0000000000000000000000000000000075
S1132D5A0000000000000000000000000000000065
S1132D6A0000000000000000000000000000000055
S1132D7A0000000000000000001004AF048104B940
S1132D8A04CA04CF04DA04E504F004FB04060515B6
S1132D9A0520052B05360541054A055705640571C5
S1132DAA0580058F059A05A305AE05B905CA05D997
S1132DBA05E805F905040611061D060000FFFFFFD4
S1132DCA20202020202020202020202020202020F5
S1132DDA00005B315D005B325D005B335D005B5874
S1132DEA5D0030306430306830306D00202020209F
S1132DFA20202020202020200A00CFB5CDB3C6F4FD
S1132E0AB6AF2E2E2E2000D0B6BBD2B7A7C6F4B6C4
S1132E1AAF2E2E2E00B7E7BBFAC6F4B6AF53544111
S1132E2A522000B7E7BBFAC6F4B6AF44454C544146
S1132E3A00CAB1BCE43A00B7E7BBFACDA3BBFA2E89
S1132E4A2E2E2000D0B6BBD2B7A7CDA3D6B9A3A144
S1132E5A00CFB5CDB3CDA3BBFA2E2020202000B5D8
S1132E6AB1C7B0D1B9B2EE3A00D7B4CCAC2020B2D3
S1132E7ACBB5A52020B1A8BEAF00B7B5BBD8003EDC
S1132E8A20CFB5CDB3D7B4CCAC003E20B9A4D7F784
S1132E9AC4A3CABD003E20C5E7B4B5C9E8D6C30079
S1132EAA3E20B1A8BEAFC9E8D6C3003E20CDCBB3FD
S1132EBAF6B2CBB5A5003E20CFB5CDB3D4CBD0D096
S1132ECACAB1BCE4003E20C5E7B4B5B4CECAFD001D
S1132EDA3E20B9D8D3DAB1BEBBFA003E20C9E8D63F
S1132EEAC3CBF8B6A8003E20B5A5CEBBC9E8D6C365
S1132EFA003E20C0A9D5B9B0E5003E20D1B9B2EE52
S1132F0AC4A3CABDD2BB003E20D1B9B2EEC4A3CA7F
S1132F1ABDB6FE003E20D1B9B2EEC4A3CABDC8FDF7
S1132F2A003E20CAB1D0F2BFD8D6C6C4A3CABD00D7
S1132F3A3E20B1E0B3CCC5E7B4B5C4A3CABD003ED4
S1132F4A20D5FDD4DAC6F4D3C3003E20B9D8B1D50E
S1132F5AD6D0003E20D1B9B2EEC9CFCFDE003E2092
S1132F6AD1B9B2EECFC2CFDE003E20D1B9B2EECF94
S1132F7AC2CFDEB0D9B7D6B1C8003E20D7EED0A1B1
S1132F8AC5E7B4B5C6B5C2CA003E20C5E7B4B5CADA
S1132F9AB1BCE4BCE4B8F400B7B5BBD82020C8B7C8
S1132FAAC8CF2020B0EFD6FA003E20B5A5CEBB3A52
S1132FBA205061003E20B5A5CEBB3A206D6D57471F
S1132FCA003E20BDA8C9E8D6D02E2E2E00CFB5CDFE
S10B2FDAB3CDA3BBFAA3A100CF
S9030000FC
