S00B00004156522E7372656330
S113000045C0000060C00000D3C500005CC0000013
S11300105AC0000058C0000056C0000054C0000080
S113002052C0000050C000004EC000004CC0000090
S11300304AC0000048C0000046C00000F3C40000ED
S113004042C0000040C000003EC000003CC00000B0
S11300503AC0000038C0000036C0000034C00000C0
S113006032C0000030C000002EC000002CC00000D0
S11300702AC0000028C0000026C0000024C00000E0
S113008022C0000020C000001EC0000011241FBEBA
S1130090CFEFD0E1DEBFCDBF14E0A0E0B1E0EAE2F3
S11300A0FDE000E00BBF02C007900D92A233B10740
S11300B0D9F724E0A2E3B4E001C01D92A937B20746
S11300C0E1F729D630C69CCF089587B3806E87BBED
S11300D0E4E6F0E0808188618083E5E6F0E08081F9
S11300E0877F8083C798808180618083C6980895C4
S11300F0B89AE1E6F0E0808188608083E4E6F0E08D
S1130100808181608083C09AE2E6F0E0808188602B
S11301108083E5E6F0E080818E7F80830895BAD500
S113012061E080E0BBD58091370490913804DFD53D
S113013062E080E0B3D58091390490913A04D7D538
S113014063E080E0ABD580913B0490913C04CFD533
S113015064E080E0A3D580913D0490913E04C7D52E
S113016080913F04823051F0833071F0813089F402
S113017061E080E093D58AE2AAC5089562E080E058
S11301808DD58AE2A4C5089563E080E087D58AE22C
S11301909EC5089520910001309101012817390767
S11301A059F0E8E1F1E021E030E0B901408151810A
S11301B04817590791F402C060E070E0CB01880F42
S11301C0991F680F791FCB01880F991F880F991FFA
S11301D0880F991F80509F4F08952F5F3F4F789647
S11301E02131310511F780E090E00895E091320467
S11301F0F091330480819181843020E2920709F4E4
S1130200A4C178F5843020E1920709F4EAC0A0F48F
S1130210813020E1920709F478C020F4892B09F495
S113022051C00895823020E1920709F492C08330CE
S1130230904109F4B2C00895813020E2920709F494
S113024018C128F48530904109F4EFC00895823034
S113025020E2920709F431C18330904209F451C17C
S11302600895833020E3920709F423C288F486308A
S113027020E2920709F4B1C108F48BC1813020E374
S1130280920709F4CEC18230904309F4EEC1089577
S1130290813021E3920709F478C250F4843020E3DA
S11302A0920709F42AC28530904309F44AC208959A
S11302B0823021E3920709F499C28330914309F40F
S11302C0C6C208958091980290919902909338043F
S11302D08093370480919A0290919B0290933A0400
S11302E08093390480919C0290919D0290933C04E8
S11302F080933B0480919E0290919F0290933E04D0
S113030080933D0410923F0408958091A20290913D
S1130310A30290933804809337048091A4029091AF
S1130320A50290933A04809339048091A602909197
S1130330A70290933C0480933B048091D002909157
S1130340D10290933E0480933D0481E080933F0466
S113035008958091A2029091A3029093380480930F
S113036037048091A4029091A50290933A0480935B
S113037039048091A6029091A70290933C04809343
S11303803B048091D0029091D10290933E048093DB
S11303903D0482E080933F0408958091A2029091ED
S11303A0A30290933804809337048091A40290911F
S11303B0A50290933A04809339048091A602909107
S11303C0A70290933C0480933B048091D0029091C7
S11303D0D10290933E0480933D0483E080933F04D4
S11303E008958091A8029091A90290933804809373
S11303F037048091AA029091AB0290933A048093BF
S11304003904809198029091990290933C048093CE
S11304103B048091D0029091D10290933E0480934A
S11304203D0481E080933F0408958091A802909157
S1130430A90290933804809337048091AA02909182
S1130440AB0290933A04809339048091980290917E
S1130450990290933C0480933B048091D002909144
S1130460D10290933E0480933D0482E080933F0444
S113047008958091AC029091AD02909338048093DA
S113048037048091AE029091AF0290933A04809326
S113049039048091B0029091B10290933C0480930E
S11304A03B048091D0029091D10290933E048093BA
S11304B03D0481E080933F0408958091AC029091C3
S11304C0AD0290933804809337048091AE029091EA
S11304D0AF0290933A04809339048091B0029091D2
S11304E0B10290933C0480933B048091D00290919C
S11304F0D10290933E0480933D0482E080933F04B4
S113050008958091AC029091AD0290933804809349
S113051037048091AE029091AF0290933A04809395
S113052039048091B0029091B10290933C0480937D
S11305303B048091D0029091D10290933E04809329
S11305403D0483E080933F0408958091B20290912A
S1130550B30290933804809337048091B40290914D
S1130560B50290933A04809339048091B602909135
S1130570B70290933C0480933B048091D002909105
S1130580D10290933E0480933D0481E080933F0424
S113059008958091B2029091B302909338048093AD
S11305A037048091B4029091B50290933A048093F9
S11305B039048091B6029091B70290933C048093E1
S11305C03B048091D0029091D10290933E04809399
S11305D03D0482E080933F0408958091B20290919B
S11305E0B30290933804809337048091B4029091BD
S11305F0B50290933A04809339048091B6029091A5
S1130600B70290933C0480933B048091D002909174
S1130610D10290933E0480933D0483E080933F0491
S113062008958091B8029091B90290933804809310
S113063037048091BA029091BB0290933A0480935C
S113064039048091BC029091BD0290933C04809344
S11306503B048091D0029091D10290933E04809308
S11306603D0481E080933F0408958091B802909105
S1130670B90290933804809337048091BA02909120
S1130680BB0290933A04809339048091BC02909108
S1130690BD0290933C0480933B048091D0029091DE
S11306A0D10290933E0480933D0482E080933F0402
S11306B008958091B8029091B90290933804809380
S11306C037048091BA029091BB0290933A048093CC
S11306D039048091BC029091BD0290933C048093B4
S11306E03B048091D0029091D10290933E04809378
S11306F03D0483E080933F0408958091BE0290916D
S1130700BF0290933804809337048091C002909183
S1130710C10290933A048093390480919802909195
S1130720990290933C0480933B048091D002909171
S1130730D10290933E0480933D0481E080933F0472
S113074008958091BE029091BF02909338048093E3
S113075037048091C0029091C10290933A0480932F
S11307603904809198029091990290933C0480936B
S11307703B048091D0029091D10290933E048093E7
S11307803D0482E080933F0408958091D202813039
S113079049F48091C2029091C302909338048093EB
S11307A0370408C08091C4029091C5029093380424
S11307B0809337048091C6029091C70290933A04C3
S11307C0809339048091C8029091C90290933C04AB
S11307D080933B048091D0029091D10290933E0487
S11307E080933D0481E080933F0408958091D20278
S11307F0813049F48091C2029091C30290933804ED
S11308008093370408C08091C4029091C5029093EC
S11308103804809337048091C6029091C702909364
S11308203A04809339048091C8029091C90290934C
S11308303C0480933B048091D0029091D102909328
S11308403E0480933D0482E080933F0408958091A8
S1130850D202813049F48091C2029091C3029093F4
S113086038048093370408C08091C4029091C50273
S113087090933804809337048091C6029091C70204
S113088090933A04809339048091C8029091C902EC
S113089090933C0480933B048091D0029091D102C8
S11308A090933E0480933D0481E080933F04089537
S11308B080E090E06FDC909333048093320496DC04
S11308C02ECC08959ED1823071F038F4882309F437
S11308D03FC0813009F454C00895833009F1843055
S11308E009F466C00895E0913204F091330402885B
S11308F0F389E02D309709F00995E0913204F091E5
S113090033048085918546DC9093330480933204CC
S113091061E081E0C3D18EE3DAD168DC00CC0895D4
S1130920E0913204F09133040088F189E02D30978E
S113093009F00995E0913204F0913304868197819E
S113094029DC909333048093320450DCE8CB08957F
S1130950E0913204F09133040484F585E02D30975E
S113096009F00995E0913204F09133048281938176
S113097011DC909333048093320438DCD0CB089597
S1130980E0913204F09133040684F785E02D30972A
S113099009F00995E0913204F09133048481958142
S11309A0F9DB909333048093320420DCB8CB0895B0
S11309B0E0913204F09133040688F789E02D3097F2
S11309C009F00995E0913204F0913304828593850E
S11309D0E1DB909333048093320408DCA0CB0895C8
S11309E0E8E4F4E088E794E0118210821382128232
S11309F0158214823696E817F907B1F7E0E4F4E0BB
S1130A0088E494E02FEF2193E817F907E1F788E4ED
S1130A1083BF12BE86B7816086BF87B7826087BFF7
S1130A20789408951F920F920FB60F9211240BB66B
S1130A300F920F931F932F933F934F935F936F9353
S1130A407F938F939F93AF93BF93CF93DF93EF9352
S1130A50FF93C8E4D4E008E714E088819981892BE6
S1130A6081F08C819D812A813B818217930731F427
S1130A701D821C82E881F981099503C001969D833A
S1130A808C832696C017D10741F780913404909146
S1130A9035049C012F5F3F4F309335042093340479
S1130AA08436910589F4E0E4F4E088E494E020815C
S1130AB021502E3F08F420833196E817F907B9F73F
S1130AC01092350410923404FF91EF91DF91CF918D
S1130AD0BF91AF919F918F917F916F915F914F9152
S1130AE03F912F911F910F910F900BBE0F900FBE4E
S1130AF00F901F901895809140048F3F51F0E1E4CE
S1130B00F4E021E030E0822FA90191919F3F51F45C
S1130B1003C040E050E080E0FA01E05CFB4F10824B
S1130B208F5F08952F5F3F4F2830310561F780E0D4
S1130B3008951ABA8FEF8BBBEAE6F0E080818860F3
S1130B40808389B7826089BF8998919A7894D3DF2A
S1130B5080937804089589B3809580FD15C081FD44
S1130B6015C082FD15C083FD15C084FD15C085FD2B
S1130B7015C086FD15C08823D4F414C09093D30205
S1130B8081E080933604089595E00DC097E00BC092
S1130B9094E009C096E007C092E005C093E003C06A
S1130BA090E001C091E080913604882339F30895E0
S1130BB01F920F920FB60F9211240BB60F922F9320
S1130BC03F934F935F936F937F938F939F93AF93D1
S1130BD0BF93EF93FF93F894BEDF7894FF91EF9166
S1130BE0BF91AF919F918F917F916F915F914F9141
S1130BF03F912F910F900BBE0F900FBE0F901F903F
S1130C001895F89480913604882329F08091D302B2
S1130C101092360401C08FEF7894089598E08823E9
S1130C2014F41C9A01C01C98880F1B9A0000000041
S1130C3000001B98915099F7089580E090E0019688
S1130C40803721E09207D9F70895CF93C82F1E9AD1
S1130C50F4DF88EFE3DF8C2F807FE0DF8C2F829539
S1130C60807FDCDF1E98CF91089582B1886F82B9AE
S1130C701D9A1F9880E090E00196811520E3920769
S1130C80D9F780E3E2DF81E0E0DF86E0DEDF8CE0BD
S1130C90DCCF089581E0D9DFD0CF0895623089F0A8
S1130CA018F4613031F00BC0633029F0643029F05E
S1130CB006C090E807C098E805C098E903C098E921
S1130CC001C090E9813110F4890FBFCF0895CF930B
S1130CD0C82F1E9AB2DF8AEFA1DF8C2F807F9EDFA0
S1130CE08C2F8295807F9ADF1E98CF9108951F9351
S1130CF0CF93DF93EC018881882349F010E0E7DF8C
S1130D001F5FFE01E10FF11D80818111F8CFDF919A
S1130D10CF911F9108950DDFA8DFEAD9D6D960DEFF
S10D0D20C7DDD0DDFECFF894FFCF4D
S1130D2A00000000000000000000011000000000A4
S1130D3A000000000000640001100110021000000D
S1130D4A0110012000000000000000000000000063
S1130D5A021001100310000002100130000000000C
S1130D6A000000000000000003100210041000003C
S1130D7A031003100000000000000000000000003F
S1130D8A04100310051000000410041000000000F1
S1130D9A0000000000000000051004100510000007
S1130DAA0510000000000000000000000000000020
S1130DBA012001200220011001200120000000006E
S1130DCA000000000000000002200120032001109E
S1130DDA02200220000000000000000000000000C1
S1130DEA0320022004200110032003200000000035
S1130DFA0000000000000000042003200520011068
S1130E0A042004200000000000000000000000008C
S1130E1A05200420052001100520052000000000FB
S1130E2A000000000000000001300130023002100E
S1130E3A0130013100000000000000000000000041
S1130E4A0230013003300210023001320000000087
S1130E5A00000000000000000330023004300210D9
S1130E6A033001330000000000000000000000000D
S1130E7A043003300430021004300430000000004F
S1130E8A000000000000000001310131023101308C
S1130E9A01310131000000000000000000000000E0
S1130EAA0231013103310130013101310000000006
S1130EBA0000000000000000D402E102EB02F1028B
S1130ECA0203070312031D03280333033E034D03DE
S1130EDA580363036E03790382038F039C03A903F4
S1130EEAB803C703D203DB03E603F10302041104C4
S1130EFA200401FF20202020202020202020202040
S1130F0A00B5B1C7B0D1B9B2EE3A00CAB1BCE43A3D
S1130F1A00D7B4CCAC2020B2CBB5A52020B1A8BE52
S1130F2AAF00B7B5BBD8003E20CFB5CDB3D7B4CC4C
S1130F3AAC003E20B9A4D7F7C4A3CABD003E20C55D
S1130F4AE7B4B5C9E8D6C3003E20B1A8BEAFC9E824
S1130F5AD6C3003E20CDCBB3F6B2CBB5A5003E2016
S1130F6ACFB5CDB3D4CBD0D0CAB1BCE4003E20C5F2
S1130F7AE7B4B5B4CECAFD003E20B9D8D3DAB1BEBF
S1130F8ABBFA003E20C9E8D6C3CBF8B6A8003E2077
S1130F9AB5A5CEBBC9E8D6C3003E20C0A9D5B9B011
S1130FAAE5003E20D1B9B2EEC4A3CABDD2BB003E0D
S1130FBA20D1B9B2EEC4A3CABDB6FE003E20D1B94F
S1130FCAB2EEC4A3CABDC8FD003E20CAB1D0F2BF66
S1130FDAD8D6C6C4A3CABD003E20B1E0B3CCC5E787
S1130FEAB4B5C4A3CABD003E20D5FDD4DAC6F4D331
S1130FFAC3003E20B9D8B1D5D6D0003E20D1B9B26B
S113100AEEC9CFCFDE003E20D1B9B2EECFC2CFDED9
S113101A003E20D1B9B2EECFC2CFDEB0D9B7D6B135
S113102AC8003E20D7EED0A1C5E7B4B5C6B5C2CA3A
S113103A003E20C5E7B4B5CAB1BCE4BCE4B8F400C8
S113104AB7B5BBD82020C8B7C8CF2020B0EFD6FA8E
S105105A000090
S9030000FC
