S00B00004156522E7372656330
S11300004CC0000068C000000C94331164C00000B0
S113001062C0000060C000005EC000005CC0000060
S11300205AC0000058C0000056C0000054C0000070
S113003052C0000050C000004EC000000C94E10FFC
S11300404AC0000048C0000046C0000044C0000090
S113005042C0000040C000003EC000003CC00000A0
S11300603AC0000038C0000036C0000034C00000B0
S113007032C0000030C000002EC000002CC00000C0
S11300802AC0000028C0000026C00000D913F813BD
S11300901714361455147414931411241FBECFEF7F
S11300A0D0E1DEBFCDBF16E0A0E0B1E0E6E3F4E3CB
S11300B000E00BBF02C007900D92AE32B107D9F732
S11300C026E0AEE2B6E001C01D92AD38B207E1F71A
S11300D003D00C94191A94CF0E94F4100E94541364
S11300E00E94C2084ED70E94BC0FBAD60E94E00EEE
S11300F00E94040FFDCFBC0180910C01823069F491
S1130100882777FD8095982F0E94D11524E43BE839
S11301104CE650E40C9485160895882777FD809565
S1130120982F0E94D11527EE30E041EC5EE30C9449
S113013085160895CF92DF92EF92FF9281E090911D
S11301403306911180E08093330681E0A2D60E94A9
S11301509E156B017C0161E080E00E94AF118091EB
S11301600301823049F0833061F0813079F486E212
S113017094E00E94CA110EC08AE294E00E94CA115F
S113018009C08EE294E00E94CA1104C082E394E0A4
S11301900E94CA1161E084E00E94AF11809134068C
S11301A08823E1F080913606882361F0809133063C
S11301B0882321F08FE00E94C81113C089E00E94B7
S11301C0C8110FC080913306882321F087E00E9474
S11301D0C81107C089E00E94C81103C080E20E94D0
S11301E0C81161E087E00E94AF118091370688232F
S11301F061F080913306882321F081E20E94C811C6
S113020007C080E20E94C81103C082E00E94C811A6
S113021062E085E00E94AF1186E00E94BD1462E0B6
S113022085E00E94AF1180910C01823031F4C60147
S113023062DF40E00E94DE1105C0C6015CDF41E0E0
S11302400E94DE1163E083E00E94AF1180913406C6
S1130250882309F481C0809132068F5F809332062F
S11302608C3339F4809131068F5F8093310610927C
S11302703206809131068C3339F4809130068F5FD9
S1130280809330061092310680913006883159F4FB
S113029080912E0690912F06019690932F068093BD
S11302A02E061092300620913106E6E3F4E08DEC40
S11302B0289F912D1124969596959695392F330F55
S11302C0432F440F440F340F231B205D2783905D7D
S11302D0968390913006989F812D1124869586955A
S11302E08695282F220F322F330F330F230F921BA3
S11302F0905D9483805D838380912E0690912F0678
S11303006AE070E00E94E816605D6183805D80832E
S1130310CF010E94CA11C601EEDE6B017C0120915F
S113032008013091090140910A0150910B010E948A
S11303308116181614F409D70FC0209104013091C6
S113034005014091060150910701C701B6010E94C1
S1130350321588230CF40CD7FF90EF90DF90CF90E8
S11303600895CF93C1E080910C01813009F0C0E081
S113037062E085E00E94AF1160910801709109016B
S113038080910A0190910B014C2F0E94DE1163E0D1
S113039085E00E94AF116091040170910501809184
S11303A00601909107014C2F0E94DE11CF91089510
S11303B0CF92DF92EF92FF9280910C01823009F587
S11303C020E030E040E85FE36091080170910901AA
S11303D080910A0190910B010E94CE146B017C0163
S11303E02FE135E844E555E40E94321518164CF126
S11303F0C0920801D0920901E0920A01F0920B0127
S113040020C02DEC3CEC4CEC5DE360910801709154
S1130410090180910A0190910B010E94CE146B0195
S11304207C0120ED36E64DEA53E40E94321518169D
S113043044F0C0920801D0920901E0920A01F092BE
S11304400B01FF90EF90DF90CF900895CF92DF9251
S1130450EF92FF9280910C01823039F520E030E078
S113046040E85FE3609108017091090180910A01FD
S113047090910B010E94CD146B017C019B01AC0196
S1130480609104017091050180910601909107012A
S11304900E94321518167CF1C0920801D09209010D
S11304A0E0920A01F0920B0126C02DEC3CEC4CECDE
S11304B05DE3609108017091090180910A019091B6
S11304C00B010E94CD146B017C019B01AC01609176
S11304D004017091050180910601909107010E9429
S11304E03215181644F0C0920801D0920901E09226
S11304F00A01F0920B01FF90EF90DF90CF900895E6
S1130500CF92DF92EF92FF9280910C01823039F505
S113051020E030E040E85FE3609104017091050160
S113052080910601909107010E94CE146B017C0119
S11305309B01AC01609108017091090180910A014D
S113054090910B010E94811688237CF1C0920401D2
S1130550D0920501E0920601F092070126C02DEC2D
S11305603CEC4CEC5DE360910401709105018091D9
S11305700601909107010E94CE146B017C019B013E
S1130580AC01609108017091090180910A01909178
S11305900B010E948116882344F0C0920401D0927A
S11305A00501E0920601F0920701FF90EF90DF90C1
S11305B0CF900895CF92DF92EF92FF9280910C0139
S11305C0823009F520E030E040E85FE36091040107
S11305D07091050180910601909107010E94CD144C
S11305E06B017C012DEC3CEC48E353E40E94811642
S11305F088234CF1C0920401D0920501E0920601D7
S1130600F092070120C02DEC3CEC4CEC5DE36091D2
S113061004017091050180910601909107010E94E7
S1130620CD146B017C0124EB38EC46E951E40E94C3
S11306308116882344F0C0920401D0920501E0920F
S11306400601F0920701FF90EF90DF90CF9008959C
S1130650CF92DF92EF92FF9280910C01823009F5E4
S113066020E030E040E251E460910801709109011A
S113067080910A0190910B010E94CE146B017C01C0
S11306802FE135E844E555E40E94321518164CF183
S1130690C0920801D0920901E0920A01F0920B0184
S11306A020C020E030E040E85FE3609108017091F1
S11306B0090180910A0190910B010E94CE146B01F3
S11306C07C0120ED36E64DEA53E40E9432151816FB
S11306D044F0C0920801D0920901E0920A01F0921C
S11306E00B01FF90EF90DF90CF900895CF92DF92AF
S11306F0EF92FF9280910C01823039F520E030E0D6
S113070040E251E4609108017091090180910A016D
S113071090910B010E94CD146B017C019B01AC01F3
S11307206091040170910501809106019091070187
S11307300E94321518167CF1C0920801D09209016A
S1130740E0920A01F0920B0126C020E030E040E87C
S11307505FE3609108017091090180910A01909111
S11307600B010E94CD146B017C019B01AC016091D3
S113077004017091050180910601909107010E9486
S11307803215181644F0C0920801D0920901E09283
S11307900A01F0920B01FF90EF90DF90CF90089543
S11307A0CF92DF92EF92FF9280910C01823039F563
S11307B020E030E040E251E46091040170910501D1
S11307C080910601909107010E94CE146B017C0177
S11307D09B01AC01609108017091090180910A01AB
S11307E090910B010E94811688237CF1C092040130
S11307F0D0920501E0920601F092070126C020E0A4
S113080030E040E85FE3609104017091050180915C
S11308100601909107010E94CE146B017C019B019B
S1130820AC01609108017091090180910A019091D5
S11308300B010E948116882344F0C0920401D092D7
S11308400501E0920601F0920701FF90EF90DF901E
S1130850CF900895CF92DF92EF92FF9280910C0196
S1130860823009F520E030E040E251E46091040177
S11308707091050180910601909107010E94CD14A9
S11308806B017C012DEC3CEC48E353E40E9481169F
S113089088234CF1C0920401D0920501E092060134
S11308A0F092070120C020E030E040E85FE360916F
S11308B004017091050180910601909107010E9445
S11308C0CD146B017C0124EB38EC46E951E40E9421
S11308D08116882344F0C0920401D0920501E0926D
S11308E00601F0920701FF90EF90DF90CF900895FA
S11308F0CF92DF92EF92FF9280910C01823009F542
S113090020E030E048EC52E4609108017091090164
S113091080910A0190910B010E94CE146B017C011D
S11309202FE135E844E555E40E94321518164CF1E0
S1130930C0920801D0920901E0920A01F0920B01E1
S113094020C020E030E040E251E460910801709161
S1130950090180910A0190910B010E94CE146B0150
S11309607C0120ED36E64DEA53E40E943215181658
S113097044F0C0920801D0920901E0920A01F09279
S11309800B01FF90EF90DF90CF900895CF92DF920C
S1130990EF92FF9280910C01823039F520E030E033
S11309A048EC52E4609108017091090180910A01B8
S11309B090910B010E94CD146B017C019B01AC0151
S11309C060910401709105018091060190910701E5
S11309D00E94321518167CF1C0920801D0920901C8
S11309E0E0920A01F0920B0126C020E030E040E2E0
S11309F051E4609108017091090180910A0190917C
S1130A000B010E94CD146B017C019B01AC01609130
S1130A1004017091050180910601909107010E94E3
S1130A203215181644F0C0920801D0920901E092E0
S1130A300A01F0920B01FF90EF90DF90CF900895A0
S1130A40CF92DF92EF92FF9280910C01823039F5C0
S1130A5020E030E048EC52E460910401709105011B
S1130A6080910601909107010E94CE146B017C01D4
S1130A709B01AC01609108017091090180910A0108
S1130A8090910B010E94811688237CF1C09204018D
S1130A90D0920501E0920601F092070126C020E001
S1130AA030E040E251E460910401709105018091CD
S1130AB00601909107010E94CE146B017C019B01F9
S1130AC0AC01609108017091090180910A01909133
S1130AD00B010E948116882344F0C0920401D09235
S1130AE00501E0920601F0920701FF90EF90DF907C
S1130AF0CF900895CF92DF92EF92FF9280910C01F4
S1130B00823009F520E030E048EC52E460910401C1
S1130B107091050180910601909107010E94CD1406
S1130B206B017C012DEC3CEC48E353E40E948116FC
S1130B3088234CF1C0920401D0920501E092060191
S1130B40F092070120C020E030E040E251E46091DF
S1130B5004017091050180910601909107010E94A2
S1130B60CD146B017C0124EB38EC46E951E40E947E
S1130B708116882344F0C0920401D0920501E092CA
S1130B800601F0920701FF90EF90DF90CF90089557
S1130B9080910C018230E1F581E080930C0124E422
S1130BA03BE84CE650E460910801709109018091A2
S1130BB00A0190910B010E94361527EE30E041ECBA
S1130BC05EE30E9485166093080170930901809387
S1130BD00A0190930B0124E43BE84CE650E4609155
S1130BE004017091050180910601909107010E9412
S1130BF0361527EE30E041EC5EE30E9485166093E3
S1130C0004017093050180930601909307010895F0
S1130C1082E080930C0127EE30E041EC5EE36091CA
S1130C2008017091090180910A0190910B010E94C1
S1130C30361524E43BE84CE650E40E9485166093A4
S1130C4008017093090180930A0190930B0127EE28
S1130C5030E041EC5EE36091040170910501809104
S1130C600601909107010E94361524E43BE84CE606
S1130C7050E40E94851660930401709305018093EB
S1130C8006019093070108951F93CF93DF93EC011E
S1130C90162F80E00E94AF118091C9039091CA037E
S1130CA00E94CA11612F80E00E94AF11CE010E9400
S1130CB0CA11DF91CF911F910895FF920F931F9353
S1130CC0CF93DF9363E080E494E0DEDF80E090EC98
S1130CD0A2E1B0E00197A109B1090097A105B1050E
S1130CE0C9F763E08DE494E0CFDF81E089D2C0915D
S1130CF00201CC23C9F0F12C00EC12E1D0E063E056
S1130D0087E00E94AF118C2F90E00E942D128F2D4E
S1130D10902FA12FBD2F0197A109B1090097A1051B
S1130D20B105C9F7C15059F763E08BE594E0ACDF36
S1130D3081E059D2C0910101CC23C9F0F12C00EC1F
S1130D4012E1D0E063E087E00E94AF118C2F90E0C5
S1130D500E942D128F2D902FA12FBD2F0197A10935
S1130D60B1090097A105B105C9F7C15059F782E04F
S1130D703AD263E089E694E087DF80E090E8A5E278
S1130D80B0E00197A109B1090097A105B105C9F720
S1130D9081E080933406B6D25AD2DF91CF911F916D
S1130DA00F91FF900895FF920F931F93CF93DF93BA
S1130DB080913606882319F0DBD11092360663E061
S1130DC080E00E94AF1163E087E794E05DDF10925A
S1130DD0340680E008D280E090ECA2E1B0E0019714
S1130DE0A109B1090097A105B105C9F7C091000196
S1130DF0CC23C9F0F12C00EC12E1D0E063E087E0F1
S1130E000E94AF118C2F90E00E942D128F2D902FF5
S1130E10A12FBD2F0197A109B1090097A105B10523
S1130E20C9F7C15059F763E083E894E02DDF80E00F
S1130E30E7D180E090E4A8E3B0E00197A109B1090B
S1130E400097A105B105C9F763E080E994E01CDFD0
S1130E5010923506DF91CF911F910F91FF90089565
S1130E60E1E6F0E080818C7F808386E886B980E1CA
S1130E7087B935980895369A349BFECF86EF8A95C4
S1130E80F1F724B185B190E0982F8827820F911D46
S1130E900895CF92DF92EF92FF92CF93833089F03F
S1130EA028F4813041F0823049F037C0843061F059
S1130EB0853069F032C080E187B92FC084E087B9FA
S1130EC02CC085E087B929C086E087B926C087E0B1
S1130ED087B923C0D0DFBC0180E090E00E94CF1529
S1130EE09B01AC01C701B6010E94CE146B017C01C9
S1130EF0C15081F720E030E040E05EE30E948516B7
S1130F0020E030E040E85AE30E94851620E030E01B
S1130F104AE754E40E94851605C0C8E0C12CD12CD0
S1130F207601D8CFCF91FF90EF90DF90CF900895C6
S1130F3080910F019091100120E1E5E6F0E0992302
S1130F4014F4C59A01C0C598880F991F38E13A95E1
S1130F50F1F700C030813860308338E13A95F1F719
S1130F6000C03081377F308338E13A95F1F700C013
S1130F70215029F7C79A88E18A95F1F700C0C798EC
S1130F80089587B3806E87BBE4E6F0E080818861D2
S1130F908083E5E6F0E08081877F8083C798808145
S1130FA080618083C698C4CF0895813198F421E08C
S1130FB030E0A90102C0440F551F8A95E2F7CA0127
S1130FC020910F0130911001822B932B90931001EB
S1130FD080930F01ADCF08958131A8F421E030E072
S1130FE0A90102C0440F551F8A95E2F7CA018095F2
S1130FF0909520910F0130911001822393239093B7
S1131000100180930F0194CF089580913D068111C2
S113101028C080913B0690913C06892B11F5809164
S1131020390690913A06892BE1F480E0D5DF81E01E
S11310308093380680913B0690913C0601969093EC
S11310403C0680933B0630910E012DEC329F212DFE
S1131050112426952695269530E082179307B1F53D
S113106027C0409138064423B9F080913B06909103
S11310703C06019690933C0680933B0630910E010A
S11310802DEC329F212D112426952695269530E0AE
S113109082179307D9F40AC08091390690913A06D1
S11310A0019690933A068093390610C0413071F44A
S11310B080913D067ADF1092380610923C06109219
S11310C03B0680913D068F5F80933D0620910D0184
S11310D084E6289F900111248091390690913A0664
S11310E02817390771F48091380681110AC080915C
S11310F03D0672DF81E08093380610923A06109222
S1131100390680913D068031F9F410923D06109223
S11311103A061092390610923C0610923B068091D2
S11311204706909148060196909348068093470697
S113113080913E06811108C085E098E00E94A110CC
S113114080E041D010923606089580913E068111C8
S11311500DC081E080933E068093360634D06AE069
S113116070E085E098E098D780E0089581E00895E4
S113117080913E06882321F010923E0680E0089577
S113118081E00895B89AE1E6F0E080818860808388
S1131190E4E6F0E08081816080838F9A8E9A8D9A54
S11311A08C9AC09AE2E6F0E0808188608083E5E66C
S11311B0F0E080818E7F808382B38F7082BB84B3A2
S11311C0807F84BB0895882339F0E2E6F0E08081D3
S11311D0877F8083949A0895E2E6F0E080818860B6
S11311E0808394980895813019F4969A9598089577
S11311F0823019F49698959A08959598969808953A
S1131200813011F4949A08959498089593B392FBBD
S1131210992790F981E0892790913F068917B1F0C9
S113122080E090ECA3E0B0E00197A109B109009738
S1131230A105B105C9F793B392FB992790F981E011
S1131240892790913F06981380933F0608950E9442
S1131250A51161E080E00E94AF1180914906909150
S11312604A060E94CA1162E080E00E94AF11809198
S11312704B0690914C060E94CA1163E080914D0682
S113128090914E0601DD64E080E00E94AF118091F0
S11312904F06909150060E94CA11409153066091E6
S11312A05206809151060C947A13089520911101ED
S11312B0309112012817390759F0E9E2F1E021E0F1
S11312C030E0B901408151814817590791F402C0B7
S11312D060E070E0CB01880F991F680F791FCB0184
S11312E0880F991F880F991F880F991F8F5E9E4F33
S11312F008952F5F3F4F78962D31310511F780E027
S113130090E00895E0914206F09143068081918136
S1131310823020E3920709F48FC2E0F5813020E2A5
S1131320920709F471C1D0F4823020E1920709F4E4
S1131330CBC040F4009709F46BC08130904109F4AC
S11313409BC027C5843020E1920709F40DC108F43D
S1131350E3C08530904109F42FC11BC5843020E2DD
S1131360920709F4C9C150F4823020E2920709F4CB
S113137073C18330904209F497C10BC5863020E2D3
S1131380920709F409C208F4DFC18130904309F4DB
S11313902BC2FFC4843021E3920709F48CC3E0F428
S11313A0853020E3920709F4BFC250F4833020E370
S11313B0920709F469C28430904309F48DC2E9C4E8
S11313C0823021E3920709F40CC308F03FC3813053
S11313D0914309F4D1C2DDC4833121E3920709F4B6
S11313E000C450F4813121E3920709F48FC38231A0
S11313F0914309F4C1C3CDC4853121E3920709F4B3
S11314005CC408F424C48631914309F48CC4C1C477
S11314108091C9039091CA0390934A068093490628
S11314208091CB039091CC0390934C0680934B0610
S113143080913406882349F08091CD039091CE03A6
S113144090934E0680934D0608C0809109049091B4
S11314500A0490934E0680934D068091CF03909199
S1131460D0039093500680934F0610925106109229
S113147052061092530608958091D3039091D40399
S113148090934A06809349068091D5039091D603A0
S113149090934C0680934B068091D7039091D80388
S11314A090934E0680934D0680910104909102041E
S11314B09093500680934F061092510681E08093DA
S11314C052061092530608958091D3039091D40349
S11314D090934A06809349068091D5039091D60350
S11314E090934C0680934B068091D7039091D80338
S11314F090934E0680934D068091010490910204CE
S11315009093500680934F061092510682E0809388
S113151052061092530608958091D3039091D403F8
S113152090934A06809349068091D5039091D603FF
S113153090934C0680934B068091D7039091D803E7
S113154090934E0680934D0680910104909102047D
S11315509093500680934F061092510683E0809337
S113156052061092530608958091D9039091DA039C
S113157090934A06809349068091DB039091DC03A3
S113158090934C0680934B068091C9039091CA03B3
S113159090934E0680934D0680910104909102042D
S11315A09093500680934F061092510681E08093E9
S11315B052061092530608958091D9039091DA034C
S11315C090934A06809349068091DB039091DC0353
S11315D090934C0680934B068091C9039091CA0363
S11315E090934E0680934D068091010490910204DD
S11315F09093500680934F061092510682E0809398
S113160052061092530608958091DD039091DE03F3
S113161090934A06809349068091DF039091E003FA
S113162090934C0680934B068091E1039091E203E2
S113163090934E0680934D0680910104909102048C
S11316409093500680934F061092510681E0809348
S113165052061092530608958091DD039091DE03A3
S113166090934A06809349068091DF039091E003AA
S113167090934C0680934B068091E1039091E20392
S113168090934E0680934D0680910104909102043C
S11316909093500680934F061092510682E08093F7
S11316A052061092530608958091DD039091DE0353
S11316B090934A06809349068091DF039091E0035A
S11316C090934C0680934B068091E1039091E20342
S11316D090934E0680934D068091010490910204EC
S11316E09093500680934F061092510683E08093A6
S11316F052061092530608958091E3039091E403F7
S113170090934A06809349068091E5039091E603FD
S113171090934C0680934B068091E7039091E803E5
S113172090934E0680934D0680910104909102049B
S11317309093500680934F061092510681E0809357
S113174052061092530608958091E3039091E403A6
S113175090934A06809349068091E5039091E603AD
S113176090934C0680934B068091E7039091E80395
S113177090934E0680934D0680910104909102044B
S11317809093500680934F061092510682E0809306
S113179052061092530608958091E3039091E40356
S11317A090934A06809349068091E5039091E6035D
S11317B090934C0680934B068091E7039091E80345
S11317C090934E0680934D068091010490910204FB
S11317D09093500680934F061092510683E08093B5
S11317E052061092530608958091E9039091EA03FA
S11317F090934A06809349068091EB039091EC0301
S113180090934C0680934B068091ED039091EE03E8
S113181090934E0680934D068091010490910204AA
S11318209093500680934F061092510681E0809366
S113183052061092530608958091E9039091EA03A9
S113184090934A06809349068091EB039091EC03B0
S113185090934C0680934B068091ED039091EE0398
S113186090934E0680934D0680910104909102045A
S11318709093500680934F061092510682E0809315
S113188052061092530608958091E9039091EA0359
S113189090934A06809349068091EB039091EC0360
S11318A090934C0680934B068091ED039091EE0348
S11318B090934E0680934D0680910104909102040A
S11318C09093500680934F061092510683E08093C4
S11318D052061092530608958091EF039091F003FD
S11318E090934A06809349068091F1039091F20304
S11318F090934C0680934B068091C9039091CA0340
S113190090934E0680934D068091010490910204B9
S11319109093500680934F061092510681E0809375
S113192052061092530608958091EF039091F003AC
S113193090934A06809349068091F1039091F203B3
S113194090934C0680934B068091C9039091CA03EF
S113195090934E0680934D06809101049091020469
S11319609093500680934F061092510682E0809324
S1131970520610925306089580910301813049F470
S11319808091F3039091F40390934A06809349065F
S113199008C08091F5039091F60390934A068093D2
S11319A049068091F7039091F80390934C06809335
S11319B04B068091F9039091FA0390934E0680931D
S11319C04D068091010490910204909350068093F7
S11319D04F061092510681E08093520610925306EE
S11319E0089580910301813049F48091F30390912B
S11319F0F40390934A068093490608C08091F50346
S1131A009091F60390934A06809349068091F703D8
S1131A109091F80390934C0680934B068091F903C0
S1131A209091FA0390934E0680934D0680910104A1
S1131A30909102049093500680934F0610925106A1
S1131A4082E0809352061092530608958091030118
S1131A50813049F48091F3039091F40390934A0602
S1131A608093490608C08091F5039091F603909302
S1131A704A06809349068091F7039091F803909366
S1131A804C0680934B068091F9039091FA0390934E
S1131A904E0680934D068091010490910204909328
S1131AA0500680934F061092510683E080935206AD
S1131AB010925306089580910C01823049F480916C
S1131AC003049091040490934A06809349060AC043
S1131AD0813041F4809105049091060490934A0664
S1131AE0809349068091C9039091CA0390934C0650
S1131AF080934B0690934E0680934D0610925106A8
S1131B0081E0809352061092530608958091030158
S1131B10813049F48091F3039091F40390934A0641
S1131B208093490608C08091F5039091F603909341
S1131B304A06809349068091F7039091F8039093A5
S1131B404C0680934B068091F9039091FA0390938D
S1131B504E0680934D0680910B0490910C04909353
S1131B60500680934F061092510682E080935206ED
S1131B7081E080935306089580910301813049F4F4
S1131B808091F3039091F40390934A06809349065D
S1131B9008C08091F5039091F60390934A068093D0
S1131BA049068091F7039091F80390934C06809333
S1131BB04B068091F9039091FA0390934E0680931B
S1131BC04D0680910B0490910C04909350068093E1
S1131BD04F061092510682E080935206809353067A
S1131BE0089580910301813049F48091F303909129
S1131BF0F40390934A068093490608C08091F50344
S1131C009091F60390934A06809349068091F703D6
S1131C109091F80390934C0680934B068091F903BE
S1131C209091FA0390934E0680934D0680910B0495
S1131C3090910C049093500680934F061092510695
S1131C4082E08093520683E0809353060895809146
S1131C500301813049F48091F3039091F40390934C
S1131C604A068093490608C08091F5039091F603D3
S1131C7090934A06809349068091F7039091F80364
S1131C8090934C0680934B068091F9039091FA034C
S1131C9090934E0680934D0680910B0490910C0412
S1131CA09093500680934F061092510683E08093E0
S1131CB0520684E080935306089580910301813095
S1131CC049F48091F3039091F40390934A0680932E
S1131CD0490608C08091F5039091F60390934A0653
S1131CE0809349068091F7039091F80390934C06F2
S1131CF080934B068091F9039091FA0390934E06DA
S1131D0080934D0680910B0490910C04909350069F
S1131D1080934F061092510683E08093520685E02B
S1131D2080935306089580910301813049F4809192
S1131D30F3039091F40390934A068093490608C0F4
S1131D408091F5039091F60390934A068093490697
S1131D508091F7039091F80390934C0680934B067F
S1131D608091F9039091FA0390934E0680934D0667
S1131D7080910B0490910C049093500680934F062D
S1131D801092510683E08093520686E080935306B6
S1131D900895809107049091080490934A068093D3
S1131DA049068091C9039091CA0390934C0680938D
S1131DB04B0690934E0680934D0610925306089559
S1131DC080E090E073DA909343068093420621D436
S1131DD0E0914206F09143060688F789E02DF093DE
S1131DE04106E09340060995E0914206F0914306CE
S1131DF068EE73E0868997894FD184DA28DA40E067
S1131E0060E080E077C4089557D2823071F038F4EE
S1131E10882309F43AC0813009F44FC07EC083306E
S1131E20E1F0843009F461C078C0E0914206F09199
S1131E3043060288F389E02D309709F00995E09173
S1131E404206F09143068085918530DA90934306EB
S1131E508093420657DAFBD962C0E0914206F091C2
S1131E6043060088F189E02D309709F00995E09147
S1131E704206F09143068681978118DA90934306CF
S1131E80809342063FDAE3D94AC0E0914206F091DA
S1131E9043060484F585E02D309709F00995E09117
S1131EA04206F09143068281938100DA90934306BF
S1131EB08093420627DACBD932C0E0914206F091F2
S1131EC043060684F785E02D309709F00995E091E3
S1131ED04206F091430684819581E8D990934306A4
S1131EE0809342060FDAB3D91AC0E0914206F0910A
S1131EF043060488F589E02D309709F00995E091AF
S1131F004206F091430682859385D0D99093430687
S1131F1080934206F7D99BD902C08F3FD1F08091BC
S1131F204006909141060DD1E0914206F09143069E
S1131F300688F789E02DF0934106E0934006309738
S1131F4041F0099568EE73E0809140069091410656
S1131F50A3D05CD9882351F08091350681110BC040
S1131F6081E0809335060C945D06089580913406D3
S1131F7081110C94D3060895ECE5F6E08CE896E024
S1131F801182108213821282158214823696E81707
S1131F90F907B1F7E4E5F6E08CE596E02FEF21933D
S1131FA0E817F907E1F713BE83B7876083BF88EBAF
S1131FB082BF86B7816086BF87B7826087BF789407
S1131FC008951F920F920FB60F9211240BB60F9221
S1131FD00F931F932F933F934F935F936F937F932D
S1131FE08F939F93AF93BF93CF93DF93EF93FF931D
S1131FF088EB82BFCCE5D6E00CE816E088819981B5
S1132000892B81F08C819D812A813B8182179307E2
S113201031F41D821C82E881F981099503C001967F
S11320209D838C832696C017D10741F7809144067F
S1132030909145069C012F5F3F4F309345062093B6
S113204044068436910589F4E4E5F6E08CE596E0EF
S1132050208121502E3F08F420833196E817F90798
S1132060B9F71092450610924406FF91EF91DF9163
S1132070CF91BF91AF919F918F917F916F915F911C
S11320804F913F912F911F910F910F900BBE0F9085
S11320900FBE0F901F901895CF93DF936A30710590
S11320A010F46AE070E0C0915C06D0915D06C81738
S11320B0D90709F43EC0ACE8B6E0E2E6F6E04081B8
S11320C0518148175907B9F13696EA17FB07B9F752
S11320D0CD2B51F0E2E6F6E041E050E0EA01A081C8
S11320E0B181AB2BF9F402C0C0E0D0E0AE01440FE3
S11320F0551FFA01EC0FFD1FEE0FFF1FE45AF94FB5
S1132100918380839B01ADECBCEC7BD6969587953F
S113211096958795969587959383828315821482E5
S113212081E00CC04F5F5F4F369648305105B1F6E1
S113213004C081E003C081E001C080E0DF91CF9161
S1132140089520915C0630915D062817390759F0EF
S1132150E2E6F6E021E030E0B90140815181481720
S11321605907E1F402C060E070E0CB01880F991FC9
S1132170FC01E60FF71FEE0FFF1FE45AF94F11821F
S1132180108213821282680F791FFB01EE0FFF1F6A
S1132190E45AF94F1582148281E008952F5F3F4F6E
S11321A0369628303105C1F680E0089580915406B2
S11321B08F3F51F0E5E5F6E021E030E0822FA90100
S11321C091919F3F51F403C040E050E080E0FA0158
S11321D0EC5AF94F10828F5F08952F5F3F4F2830DC
S11321E0310561F780E008951ABA8FEF8BBBEAE6F8
S11321F0F0E080818860808389B7826089BF899894
S1132200919A7894D3DF80938C06089589B380954E
S113221080FD15C081FD15C082FD15C083FD15C06C
S113222084FD15C085FD15C086FD15C08823D4F432
S113223014C09093110481E080934606089595E0BC
S11322400DC097E00BC094E009C096E007C092E08F
S113225005C093E003C090E001C091E08091460680
S1132260882339F308951F920F920FB60F92112409
S11322700BB60F922F933F934F935F936F937F937C
S11322808F939F93AF93BF93EF93FF93F894BEDF25
S11322907894FF91EF91BF91AF919F918F917F912E
S11322A06F915F914F913F912F910F900BBE0F90C3
S11322B00FBE0F901F901895F894809146068823BE
S11322C029F0809111041092460601C08FEF789492
S11322D0089598E01B98882314F41C9A01C01C9854
S11322E0880F000000000000000000001B9A00009E
S11322F0000000000000915069F7089580E090E02C
S113230001968D3D9105E1F70895CF93C82F1E9A4C
S11323108AEFDFDF8C2F807FDCDF8C2F8295807F3C
S1132320D8DF1E98EBDFCF910895CF93C82F1E9A64
S113233088EFCFDF8C2F807FCCDF8C2F8295807F3E
S1132340C8DFDCDF1E98CF91089581E0EEDF80E0E6
S113235090E00196811520E39207D9F70895623041
S113236089F018F4613031F00BC0633029F0643027
S113237029F006C090E807C098E805C098E903C0B2
S113238098E901C090E9813110F4892BCECF0895EA
S1132390BCCF08951F93CF93DF93EC0188818823EA
S11323A049F010E0B2DF1F5FFE01E10FF11D8081F3
S11323B08111F8CFDF91CF911F9108950F931F934F
S11323C0CF93DF93CDB7DEB727970FB6F894DEBF70
S11323D00FBECDBF411116C0B1D37F936F938EE171
S11323E096E09F938F938E010F5F1F4F1F930F9360
S11323F04ED5C801CFDF0F900F900F900F900F9024
S11324000F9020C04130F1F420E030E048EC52E479
S11324107CD494D37F936F9383E296E09F938F93BE
S11324208E010F5F1F4F1F930F9331D58D818E83C4
S11324308EE28D83C801AEDF0F900F900F900F9046
S11324400F900F9027960FB6F894DEBF0FBECDBF46
S1132450DF91CF911F910F9108954AE068E276E0F1
S1132460F3D488E296E096CF0895DF92EF92FF923C
S11324700F931F93CF93DF93D82F142FF8946530C5
S113248008F064E0662309F4B7C0C1E02111C0E09C
S1132490C195623099F018F4613091F505C063304C
S11324A0C1F0643009F12CC08D2F86956894FF2407
S11324B0F7F8F80E6894EE24E7F824C08D2F86957B
S11324C06894FF24F7F8F80E0F2EF0E9EF2EF02DA4
S11324D019C08D2F86950F2EF8E8FF2EF02DF80EDB
S11324E06894EE24E7F80EC08D2F86950F2EF8E839
S11324F0FF2EF02DF80E0F2EF0E9EF2EF02D02C076
S1132500E12CF12C84E311DF8D2F8170912F9170D8
S1132510D12BD0FD16C0169500E0D12C802F8E0D46
S113252004DF8F2D02DF112341F0DD2D8C2FEDDE32
S11325308C2FEBDEDF5FD113F9CF0F5F003171F722
S113254057C081111DC0992309F452C0169500E0AB
S1132550D12C802F8E0DE9DE8F2DE7DE112341F083
S1132560DD2D8C2FD2DE8C2FD0DEDF5FD113F9CF9F
S11325708C2FCBDE8D2DC9DE0F5F003151F738C0B3
S113258091111EC01695115000E0802F8E0DCDDEE6
S11325908F2DCBDE80E0B9DE8C2FB7DE112341F026
S11325A0D0E08C2FB2DE8C2FB0DEDF5F1D13F9CFAD
S11325B08C2FABDE80E0A9DE0F5F003131F718C04D
S11325C0169500E0802F8E0DB0DE8F2DAEDE80E0FC
S11325D09CDE8C2F9ADE112341F0D0E08C2F95DE07
S11325E08C2F93DEDF5FD113F9CF0F5F003151F7EA
S11325F080E39BDE789405C0C1E02111C0E0C19561
S113260053CFDF91CF911F910F91FF90EF90DF9007
S113261008951F93CF93DF93F89484E386DED0E884
S113262010E18D2F82DE80E880DEC12F80E06DDE38
S113263080E06BDEC150D1F7DF5FD03991F710E154
S11326408D2F73DE80E871DEC12F80E05EDE80E0D6
S11326505CDEC150D1F7DF5FD03A91F7D0E810E1EA
S11326608D2F63DE88E861DEC12F80E04EDE80E0DE
S11326704CDEC150D1F7DF5FD03991F710E18D2FD7
S113268054DE88E852DEC12F80E03FDE80E03DDE8C
S1132690C150D1F7DF5FD03A91F780E346DE7894FA
S11326A0DF91CF911F910895F89482B1886F82B918
S11326B01D9880E090E00196811520EF9207D9F7EC
S11326C01D9A1F9880E090E00196811520E39207FF
S11326D0D9F780E32ADE8CE028DE81E026DE82E082
S11326E024DE80E822DE84E020DE8CE01EDE91DF42
S11326F0789408950F931F93CF93DF93182F062F89
S1132700C42FF89480911304181731F1112319F090
S1132710113089F01FC020E044E064E080E0A5DED1
S113272020E044E064E086E0A0DE20E044E064E0F1
S11327308CE09BDE0FC020E044E064E080E095DEA6
S113274021E044E064E086E090DE21E044E064E0DF
S11327508CE08BDE10931304023051F0033071F0DF
S1132760013089F461E080E0FADD8AE2CEDD0BC05D
S113277062E080E0F4DD8AE2C8DD05C063E080E069
S1132780EEDD8AE2C2DD809112048C1709F4EBC0FD
S113279080910C01823011F4DEE001C0DFE00C2FE7
S11327A010E00730110508F0DCC0F801EA5BFF4FC8
S11327B022C321E041E062E08D2F57DE21E041E0B9
S11327C062E08DE052DE21E041E062E08CE04DDE2B
S11327D021E041E063E08D2F48DE21E041E063E049
S11327E08DE043DE21E041E063E08CE03EDEB9C0F1
S11327F021E041E062E08DE038DE21E041E062E08A
S11328008CE033DE21E041E063E08D2F2EDE21E019
S113281041E063E08DE029DE21E041E063E08CE00B
S113282024DE20E041E062E08D2F1FDE9AC021E02B
S113283041E062E08D2F19DE21E041E062E08CE0AE
S113284014DE21E041E063E08D2F0FDE21E041E062
S113285063E08DE00ADE21E041E063E08CE005DE28
S113286020E041E062E08DE000DE7BC021E041E059
S113287062E08D2FFADD21E041E062E08DE0F5DDDC
S113288021E041E063E08D2FF0DD21E041E063E0F1
S11328908DE0EBDD21E041E063E08CE0E6DD20E06B
S11328A041E062E08CE0E1DD5CC021E041E062E017
S11328B08CE0DBDD21E041E062E08DE0D6DD21E06B
S11328C041E062E08D2FD1DD21E041E063E08DE065
S11328D0CCDD21E041E063E08CE0C7DD20E041E0B5
S11328E063E08D2FC2DD3DC021E041E062E08CE079
S11328F0BCDD21E041E062E08DE0B7DD21E041E0B4
S113290062E08D2FB2DD21E041E063E08CE0ADDDDB
S113291021E041E063E08D2FA8DD20E041E063E0A9
S11329208DE0A3DD1EC021E041E062E08CE09DDD8E
S113293021E041E062E08DE098DD21E041E062E0E9
S11329408D2F93DD21E041E063E08DE08EDD21E019
S113295041E063E08D2F89DD20E041E063E08CE01D
S113296084DDC093120486E3E0DC80E3DEDC78944B
S1132970DF91CF911F910F910895CF93DF93D82FBB
S1132980F894882331F0C0E080E2BFDCCF5FCD1340
S1132990FBCF7894DF91CF9108955058BB27AA2795
S11329A00ED075C166D130F06BD120F031F49F3F69
S11329B011F41EF45BC10EF4E095E7FB51C1E92F5D
S11329C077D180F3BA17620773078407950718F065
S11329D071F49EF58FC10EF4E0950B2EBA2FA02D45
S11329E00B01B90190010C01CA01A0011124FF27B8
S11329F0591B99F0593F50F4503E68F11A16F040B3
S1132A00A22F232F342F4427585FF3CF46953795B1
S1132A102795A795F0405395C9F77EF41F16BA0B76
S1132A20620B730B840BBAF09150A1F0FF0FBB1F24
S1132A30661F771F881FC2F70EC0BA0F621F731F6D
S1132A40841F48F4879577956795B795F7959E3FCA
S1132A5008F0B3CF9395880F08F09927EE0F979558
S1132A6087950895D9D008F481E008950CD00FC15A
S1132A7007D140F0FED030F021F45F3F19F0F0C0F0
S1132A80511139C1F3C014D198F39923C9F35523D3
S1132A90B1F3951B550BBB27AA276217730784074D
S1132AA038F09F5F5F4F220F331F441FAA1FA9F303
S1132AB033D00E2E3AF0E0E830D091505040E695F5
S1132AC0001CCAF729D0FE2F27D0660F771F881F56
S1132AD0BB1F261737074807AB07B0E809F0BB0B45
S1132AE0802DBF01FF2793585F4F2AF09E3F510569
S1132AF068F0B6C000C15F3FECF3983EDCF3869506
S1132B0077956795B795F7959F5FC9F7880F911DDE
S1132B109695879597F90895E1E0660F771F881FCA
S1132B20BB1F621773078407BA0720F0621B730B7D
S1132B30840BBA0BEE1F88F7E095089504D06894CF
S1132B40B111D9C00895BCD088F09F5790F0B92F27
S1132B509927B751A0F0D1F0660F771F881F991FEE
S1132B601AF0BA95C9F712C0B13081F0C3D0B1E000
S1132B700895C0C0672F782F8827B85F39F0B93F10
S1132B80CCF3869577956795B395D9F73EF49095F0
S1132B908095709561957F4F8F4F9F4F0895E8946E
S1132BA009C097FB3EF490958095709561957F4F91
S1132BB08F4F9F4F9923A9F0F92F96E9BB2793953F
S1132BC0F695879577956795B795F111F8CFFAF44F
S1132BD0BB0F11F460FF1BC06F5F7F4F8F4F9F4F80
S1132BE016C0882311F096E911C0772321F09EE8DE
S1132BF0872F762F05C0662371F096E8862F70E044
S1132C0060E02AF09A95660F771F881FDAF7880F1D
S1132C109695879597F90895990F0008550FAA0B73
S1132C20E0E8FEEF16161706E807F907C0F01216DB
S1132C301306E407F50798F0621B730B840B950BDE
S1132C4039F40A2661F0232B242B252B21F4089533
S1132C500A2609F4A140A6958FEF811D811D0895D0
S1132C6097F99F6780E870E060E008959FEF80EC3B
S1132C70089500240A9416161706180609060895DE
S1132C8000240A9412161306140605060895092E44
S1132C900394000C11F4882352F0BB0F40F4BF2BB3
S1132CA011F460FF04C06F5F7F4F8F4F9F4F0895F3
S1132CB057FD9058440F551F59F05F3F71F04795E9
S1132CC0880F97FB991F61F09F3F79F087950895CE
S1132CD0121613061406551FF2CF4695F1DF08C0ED
S1132CE0161617061806991FF1CF8695710561050A
S1132CF008940895E894BB2766277727CB0197F9B2
S1132D0008958ADF08F48FEF08950BD0C0CFB1DFA8
S1132D1028F0B6DF18F0952309F0A2CFA7CF11242D
S1132D20EACFC6DFA0F3959FD1F3950F50E0551F6E
S1132D30629FF001729FBB27F00DB11D639FAA270C
S1132D40F00DB11DAA1F649F6627B00DA11D661F5B
S1132D50829F2227B00DA11D621F739FB00DA11D7C
S1132D60621F839FA00D611D221F749F3327A00D36
S1132D70611D231F849F600D211D822F762F6A2FD2
S1132D8011249F5750408AF0E1F088234AF0EE0F57
S1132D90FF1FBB1F661F771F881F91505040A9F764
S1132DA09E3F510570F05CCFA6CF5F3FECF3983E99
S1132DB0DCF3869577956795B795F795E7959F5FCB
S1132DC0C1F7FE2B880F911D9695879597F9089565
S1132DD097FB072E16F4009406D077FD08D020D078
S1132DE007FC05D03EF4909581959F4F089570950A
S1132DF061957F4F0895EE0FFF1F0590F491E02D2C
S1132E000994A29FB001B39FC001A39F700D811DBF
S1132E101124911DB29F700D811D1124911D0895DF
S1132E20AA1BBB1B51E107C0AA1FBB1FA617B707EC
S1132E3010F0A61BB70B881F991F5A95A9F7809508
S1132E409095BC01CD010895BB274A3031F49923F4
S1132E5022F4BDE2909581959F4F01C0BB27FB01F1
S1132E605527AA27880F991FAA1FA41710F0A41B7F
S1132E7083955051B9F7A05DAA3308F0A95DA193D9
S1132E80009779F7B111B1931192CB0132C20F932C
S1132E901F93CF93DF93CDB7DEB72E970FB6F89479
S1132EA0DEBF0FBECDBF0D891E8986E08C831A83D9
S1132EB009838FEF9FE79E838D83AE01475E5F4F4B
S1132EC06F89788DCE01019610D0EF81F885E00FDF
S1132ED0F11F10822E960FB6F894DEBF0FBECDBF41
S1132EE0DF91CF911F910F9108952F923F924F92AE
S1132EF05F926F927F928F929F92AF92BF92CF9286
S1132F00DF92EF92FF920F931F93CF93DF93CDB78E
S1132F10DEB72C970FB6F894DEBF0FBECDBF7C0191
S1132F206B018A01FC0117821682838181FFB0C183
S1132F30CE0101964C01F7019381F60193FD859131
S1132F4093FF81916F01882309F49EC1853239F47E
S1132F5093FD859193FF81916F01853221F4B7012F
S1132F6090E0D7D1E8CF512C312C20E02032A0F4CE
S1132F708B3269F030F4803259F0833269F4206185
S1132F802CC08D3239F0803339F4216026C02260A0
S1132F90246023C0286021C027FD27C030ED380FEE
S1132FA03A3078F426FF06C0FAE05F9E300D112413
S1132FB0532E13C08AE0389E300D1124332E206224
S1132FC00CC08E3221F426FD5FC1206406C08C360D
S1132FD011F4206802C0883641F4F60193FD85910E
S1132FE093FF81916F018111C1CF982F9F7D9554DB
S1132FF0933028F40C5F1F4FFFE3F9830DC0833631
S113300031F0833771F0833509F057C021C0F801DE
S1133010808189830E5F1F4F44244394512C5401B3
S113302014C03801F2E06F0E711CF801A080B18069
S113303026FF03C0652D70E002C06FEF7FEFC5016E
S11330402C874CD12C0183012C852F77222E16C07E
S11330503801F2E06F0E711CF801A080B18026FFE8
S113306003C0652D70E002C06FEF7FEFC5012C87B0
S11330702AD12C012C852068222E830123FC19C01F
S1133080832D90E048165906A0F4B70180E290E041
S113309040D13A94F5CFF50127FC859127FE819123
S11330A05F01B70190E035D131103A94F1E04F1A45
S11330B051084114510479F7DEC0843611F0893681
S11330C031F5F80127FF07C0608171818281938106
S11330D00C5F1F4F08C060817181882777FD809540
S11330E0982F0E5F1F4F2F76B22E97FF09C0909531
S11330F08095709561957F4F8F4F9F4F2068B22EBA
S11331002AE030E0A40137D1A82EA81843C085379F
S113311029F42F7EB22E2AE030E025C0F22FF97F69
S1133120BF2E8F36C1F018F4883579F0ADC08037E2
S113313019F0883721F0A8C02F2F2061B22EB4FED9
S11331400DC08B2D8460B82E09C024FF0AC09F2FA8
S11331509660B92E06C028E030E005C020E130E0DA
S113316002C020E132E0F801B7FE07C0608171813E
S1133170828193810C5F1F4F06C06081718180E062
S113318090E00E5F1F4FA401F6D0A82EA818FB2DC7
S1133190FF77BF2EB6FE0BC02B2D2E7FA51450F447
S11331A0B4FE0AC0B2FC08C02B2D2E7E05C07A2CBA
S11331B02B2D03C07A2C01C0752C24FF0DC0FE01F9
S11331C0EA0DF11D8081803311F4297E09C022FFAC
S11331D006C07394739404C0822F867809F07394A4
S11331E023FD12C020FF06C05A2C731418F4530C8C
S11331F05718732C731460F4B70180E290E02C87A5
S113320088D073942C85F6CF731410F4371801C04A
S1133210312C24FF11C0B70180E390E02C8779D0D2
S11332202C8522FF16C021FF03C088E590E002C070
S113323088E790E0B7010CC0822F867851F021FD19
S113324002C080E201C08BE227FD8DE2B70190E06D
S113325060D0A51430F4B70180E390E05AD05A94BA
S1133260F8CFAA94F401EA0DF11D8081B70190E032
S113327050D0A110F6CF332009F45DCEB70180E21F
S113328090E047D03A94F7CFF7018681978102C046
S11332908FEF9FEF2C960FB6F894DEBF0FBECDBF15
S11332A0DF91CF911F910F91FF90EF90DF90CF901E
S11332B0BF90AF909F908F907F906F905F904F9052
S11332C03F902F900895FC010590615070400110CB
S11332D0D8F7809590958E0F9F1F0895FC0161503B
S11332E0704001900110D8F7809590958E0F9F1F24
S11332F00895DC01FC01672F71917723E1F7329780
S113330004C07C916D9370836291AE17BF07C8F3BC
S113331008950F931F93CF93DF93182F092FEB0179
S11333208B8181FD03C08FEF9FEF20C082FF10C00F
S11333304E815F812C813D81421753077CF4E881E3
S1133340F9819F012F5F3F4F39832883108306C083
S1133350E885F985812F0995892B29F72E813F81ED
S11333602F5F3F4F3F832E83812F902FDF91CF918B
S11333701F910F910895FA01AA27283051F12031A5
S113338081F1E8946F936E7F6E5F7F4F8F4F9F4FF5
S1133390AF4FB1E03ED0B4E03CD0670F781F891F37
S11333A09A1FA11D680F791F8A1F911DA11D6A0F05
S11333B0711D811D911DA11D20D009F468943F91B8
S11333C02AE0269F11243019305D3193DEF6CF01B7
S11333D00895462F4770405D4193B3E00FD0C9F77D
S11333E0F6CF462F4F70405D4A3318F0495D31FDEA
S11333F04052419302D0A9F7EACFB4E0A69597953D
S1133400879577956795BA95C9F700976105710512
S113341008959B01AC010A2E06945795479537955C
S11334202795BA95C9F7620F731F841F951FA01DB6
S10934300895F894FFCF9B
S1133436050505010000FA4300009644020164FFF5
S1133446FF00000000000000000000011000000062
S1133456000000000000009A000110011002100094
S11334660001100120000000000000000000000020
S113347600021001100310000002100130000000C9
S113348600000000000000000003100210041000F9
S113349600031003100000000000000000000000FC
S11334A600041003100510000004100410000000AE
S11334B600000000000000000005100410051000C4
S11334C600051000000000000000000000000000DD
S11334D6000120012002200110012001200000002B
S11334E6000000000000000000022001200320016B
S11334F6100220022000000000000000000000006E
S113350600032002200420011003200320000000F1
S11335160000000000000000000420032005200134
S11335261004200420000000000000000000000039
S113353600052004200520011005200520000000B8
S113354600000000000000000001300130023002DB
S113355610013001310000000000000000000000EE
S11335660002300130033002100230013200000044
S113357600000000000000000003300230043002A6
S113358610033001330000000000000000000000BA
S1133596000430033004300210043004300000000C
S11335A60000000000000000000131043102310176
S11335B6300131013100000000000000000000B1BC
S11335C601023101310331013002311131000000B1
S11335D600000000000000B1010331023104310192
S11335E6300331143100000000000000000000B177
S11335F6010431033101310130043104310000008A
S11336060000000000C8050000113111311131120B
S11336163113310231D8012602000000000000B146
S1133626011231123112311331113102312803766C
S113363603000000000000B10113311331133111EE
S113364631123102317804C604000000000000B1D2
S1133656011431143114311531163103318002DA73
S113366602000000000000B10115311531153116B4
S11336763114310331D0032A04000000000000B1E4
S11336860116311631163114311531033120057AFC
S113369605000000000000B1010000000000000069
S11336A60000000000000000000000000000000010
S11336B60000000000000000000000000000000000
S11336C600000000000000000000000000000000F0
S11336D600000000000000000000000000000000E0
S11336E600000000000000000000000000000000D0
S11336F600000000000000000014049904A304A9BB
S113370604BA04BF04CA04D504E004EB04F60405B1
S11337160510051B05260531053A054705540561BF
S11337260570057F058A0593059E05A905BA05C991
S113373605D805E905F405010690040D0600000008
S113374600FFFFFF202020202020202020202020F2
S11337562020202000005B315D005B325D005B337E
S11337665D005B585D0030306430306830306D0089
S1133776CFB5CDB3C6F4B6AF2E2E2E2000D0B6BB31
S1133786D2B7A7C6F4B6AF2E2E2E00B7E7BBFAC63D
S1133796F4B6AF535441522000B7E7BBFAC6F4B6A9
S11337A6AF44454C544100B7E7BBFACDA3BBFA2E50
S11337B62E2E00D0B6BBD2B7A7CDA3D6B9A3A100EF
S11337C6CFB5CDB3CDA3BBFA00B5B1C7B0D1B9B2AD
S11337D6EE3A00CAB1BCE43A00D7B4CCAC2020B26D
S11337E6CBB5A52020B1A8BEAF00B7B5BBD8003E67
S11337F620CFB5CDB3D7B4CCAC003E20B9A4D7F70F
S1133806C4A3CABD003E20C5E7B4B5C9E8D6C30003
S11338163E20B1A8BEAFC9E8D6C3003E20CDCBB387
S1133826F6B2CBB5A5003E20CFB5CDB3D4CBD0D020
S1133836CAB1BCE4003E20C5E7B4B5B4CECAFD00A7
S11338463E20B9D8D3DAB1BEBBFA003E20C9E8D6C9
S1133856C3CBF8B6A8003E20B5A5CEBBC9E8D6C3EF
S1133866003E20C0A9D5B9B0E5003E20D1B9B2EEDC
S1133876C4A3CABDD2BB003E20D1B9B2EEC4A3CA0A
S1133886BDB6FE003E20D1B9B2EEC4A3CABDC8FD82
S1133896003E20CAB1D0F2BFD8D6C6C4A3CABD0062
S11338A63E20B1E0B3CCC5E7B4B5C4A3CABD003E5F
S11338B620D5FDD4DAC6F4D3C3003E20B9D8B1D599
S11338C6D6D0003E20D1B9B2EEC9CFCFDE003E201D
S11338D6D1B9B2EECFC2CFDE003E20D1B9B2EECF1F
S11338E6C2CFDEB0D9B7D6B1C8003E20D7EED0A13C
S11338F6C5E7B4B5C6B5C2CA003E20C5E7B4B5CA65
S1133906B1BCE4BCE4B8F400B7B5BBD82020C8B752
S1133916C8CF2020B0EFD6FA003E20B5A5CEBB3ADC
S1133926205061003E20B5A5CEBB3A206D6D5747A9
S1133936003E20BDA8C9E8D6D02E2E2E00CFF2D741
S1133946F32020C8B7C8CF2020CFF2D3D200252039
S1113956356400252036640020202020000067
S9030000FC
