S00B00004156522E7372656330
S113000045C0000061C000000C94B6085DC000004B
S11300105BC0000059C0000057C0000055C000007C
S113002053C0000051C000004FC000004DC000008C
S11300304BC0000049C0000047C0000045C7000095
S113004043C0000041C000003FC000003DC00000AC
S11300503BC0000039C0000037C0000035C00000BC
S113006033C0000031C000002FC000002DC00000CC
S11300702BC0000029C0000027C0000025C00000DC
S113008023C0000021C000001FC0000011241FBEB7
S1130090CFEFD0E1DEBFCDBF14E0A0E0B1E0E2EEEF
S11300A0F8E100E00BBF02C007900D92AA39B10736
S11300B0D9F724E0AAE9B4E001C01D92AE3EB2072C
S11300C0E1F703D00C946F0C9BCF0E9477080E9439
S11300D0820A19D204D2D3D671D1FFD52AD6FECF43
S11300E0CF92DF92EF92FF920F931F93CF93DF9300
S11300F000D000D0CDB7DEB71091200381E09091FD
S1130100A204911180E08093A20481E070D10E9446
S11301100B0B6B017C014AE0BE016F5F7F4FC60190
S11301200E943C0C61E080E00E942E09123049F0EC
S1130130133061F0113079F482E293E00E944909AE
S11301400EC086E293E00E94490909C08AE293E066
S11301500E94490904C08EE293E00E94490961E0CB
S113016084E00E942E098091A304882361F0809189
S1130170A204882321F08FE00E9447090FC089E080
S11301800E9447090BC08091A204882321F087E0D4
S11301900E94470903C089E00E94470961E087E0A3
S11301A00E942E098091A404882361F08091A20406
S11301B0882321F081E20E94470907C080E20E945F
S11301C0470903C082E00E94470962E085E00E947B
S11301D02E09CE0101960E94490963E083E00E9442
S11301E02E098091A0049091A10401969093A104FA
S11301F08093A004CC9769F480919E0490919F040D
S1130200019690939F0480939E041092A1041092EF
S1130210A00480919E0490919F04CC9769F48091EE
S11302209C0490919D04019690939D0480939C045A
S113023010929F0410929E0440919C0450919D043E
S11302404831510549F480919A0490919B04019698
S113025090939B0480939A0400919E0410919F04B0
S1130260E2E3F3E09801ADECBCEC0E942D0C969512
S1130270879596958795969587959C01220F331FB0
S1130280880F991F880F991F880F991F820F931F3A
S11302909801281B390BC901805D878398010E944E
S11302A02D0C969587959695879596958795805D5F
S11302B086839A010E942D0C96958795969587952D
S11302C0969587959C01220F331F880F991F880FDD
S11302D0991F880F991F820F931F9A01281B390BAE
S11302E0C901805D84839A010E942D0C969587959F
S11302F09695879596958795805D838340919A041A
S113030050919B049A010E942D0C96958795969581
S11303108795969587959C01220F331F880F991F07
S1130320880F991F880F991F820F931F9A01281B0A
S1130330390BC901805D81839A010E942D0C969529
S113034087959695879596958795805D8083CF014F
S1130350A0D780911E0390911F038C159D0528F44E
S113036081E08093A404E6D00BC080911C0390919B
S11303701D03C816D90620F41092A40480E0DAD034
S11303800F900F900F900F90DF91CF911F910F91CD
S1130390FF90EF90DF90CF90089562E086E05ED703
S11303A080911E0390911F0388D763E086E056D79F
S11303B080911C0390911D0380C70895E1E6F0E04D
S11303C080818C7F808386E886B980E187B93598FF
S11303D00895369A349BFECF86EF8A95F1F724B1BF
S11303E085B190E0982F8827820F911D0895CF92B0
S11303F0DF92EF92FF92CF93833089F028F481301B
S113040041F0823049F037C0843061F0853069F0C2
S113041032C080E187B92FC084E087B92CC085E061
S113042087B929C086E087B926C087E087B923C089
S1130430D0DFBC0180E090E00E943C0B9B01AC014A
S1130440C701B6010E94A70A6B017C01C15081F764
S113045020E030E040E05EE30E94CA0B20E030E0A0
S113046040E85AE30E94CA0B20E030E04AE754E433
S11304700E94CA0B05C0C8E0C12CD12C7601D8CF8C
S1130480CF91FF90EF90DF90CF900895809100017D
S11304909091010120E1E5E6F0E0992314F4C59A76
S11304A001C0C598880F991F38E13A95F1F700C04B
S11304B030813860308338E13A95F1F700C03081FB
S11304C0377F308338E13A95F1F700C0215029F79E
S11304D0C79A88E18A95F1F700C0C798089587B351
S11304E0806E87BBE4E6F0E0808188618083E5E686
S11304F0F0E08081877F8083C798808180618083DA
S1130500C698C4CF0895B89AE1E6F0E08081886087
S11305108083E4E6F0E0808181608083C09AE2E633
S1130520F0E0808188608083E5E6F0E080818E7F62
S113053080830895882311F0C0980895C09A08957F
S113054083D661E080E08AD68091AC049091AD04BA
S1130550A0D662E080E082D68091AE049091AF0490
S113056098D663E080E07AD68091B0049091B1048B
S113057090D664E080E072D68091B2049091B30486
S113058088D68091B404823051F0833071F0813088
S113059089F461E080E062D68AE279D60BC062E039
S11305A080E05CD68AE273D605C063E080E056D66C
S11305B08AE26DD686E338D680E336C60895209164
S11305C00201309103012817390759F0EAE1F1E0FB
S11305D021E030E0B901408151814817590791F475
S11305E002C060E070E0CB01880F991F680F791F8B
S11305F0CB01880F991F880F991F880F991F8E5F51
S11306009E4F08952F5F3F4F78962431310511F79F
S113061080E090E00895E091A704F091A80480811F
S11306209181843020E2920709F4A4C178F58430E2
S113063020E1920709F4EAC0A0F4813020E1920796
S113064009F478C020F4892B09F451C0089582304C
S113065020E1920709F492C08330904109F4B2C0BA
S11306600895813020E2920709F418C128F48530F6
S1130670904109F4EFC00895823020E2920709F412
S113068031C18330904209F451C10895833020E38D
S1130690920709F423C288F4863020E2920709F411
S11306A0B1C108F48BC1813020E3920709F4CEC1B3
S11306B08230904309F4EEC10895813021E392071A
S11306C009F478C250F4843020E3920709F42AC272
S11306D08530904309F44AC20895823021E3920799
S11306E009F499C28330914309F4C6C208958091F4
S11306F0E2029091E3029093AD048093AC04809164
S1130700E4029091E5029093AF048093AE0480914B
S1130710E6029091E7029093B1048093B004809133
S1130720E8029091E9029093B3048093B20410928A
S1130730B40408958091EC029091ED029093AD047D
S11307408093AC048091EE029091EF029093AF04F9
S11307508093AE048091F0029091F1029093B104E1
S11307608093B00480911A0390911B039093B30477
S11307708093B20481E08093B40408958091EC02E4
S11307809091ED029093AD048093AC048091EE02BD
S11307909091EF029093AF048093AE048091F002A5
S11307A09091F1029093B1048093B00480911A0364
S11307B090911B039093B3048093B20482E08093DE
S11307C0B40408958091EC029091ED029093AD04ED
S11307D08093AC048091EE029091EF029093AF0469
S11307E08093AE048091F0029091F1029093B10451
S11307F08093B00480911A0390911B039093B304E7
S11308008093B20483E08093B40408958091F2024B
S11308109091F3029093AD048093AC048091F40220
S11308209091F5029093AF048093AE048091E2021C
S11308309091E3029093B1048093B00480911A03E1
S113084090911B039093B3048093B20481E080934E
S1130850B40408958091F2029091F3029093AD0450
S11308608093AC048091F4029091F5029093AF04CC
S11308708093AE048091E2029091E3029093B104DC
S11308808093B00480911A0390911B039093B30456
S11308908093B20482E08093B40408958091F602B8
S11308A09091F7029093AD048093AC048091F80288
S11308B09091F9029093AF048093AE048091FA0270
S11308C09091FB029093B1048093B00480911A0339
S11308D090911B039093B3048093B20481E08093BE
S11308E0B40408958091F6029091F7029093AD04B8
S11308F08093AC048091F8029091F9029093AF0434
S11309008093AE048091FA029091FB029093B1041B
S11309108093B00480911A0390911B039093B304C5
S11309208093B20482E08093B40408958091F60227
S11309309091F7029093AD048093AC048091F802F7
S11309409091F9029093AF048093AE048091FA02DF
S11309509091FB029093B1048093B00480911A03A8
S113096090911B039093B3048093B20483E080932B
S1130970B40408958091FC029091FD029093AD041B
S11309808093AC048091FE029091FF029093AF0497
S11309908093AE0480910003909101039093B1047D
S11309A08093B00480911A0390911B039093B30435
S11309B08093B20481E08093B40408958091FC0292
S11309C09091FD029093AD048093AC048091FE025B
S11309D09091FF029093AF048093AE048091000342
S11309E0909101039093B1048093B00480911A0311
S11309F090911B039093B3048093B20482E080939C
S1130A00B40408958091FC029091FD029093AD048A
S1130A108093AC048091FE029091FF029093AF0406
S1130A208093AE0480910003909101039093B104EC
S1130A308093B00480911A0390911B039093B304A4
S1130A408093B20483E08093B404089580910203F8
S1130A50909103039093AD048093AC0480910403BC
S1130A60909105039093AF048093AE0480910603A4
S1130A70909107039093B1048093B00480911A037A
S1130A8090911B039093B3048093B20481E080930C
S1130A90B404089580910203909103039093AD04EC
S1130AA08093AC0480910403909105039093AF0468
S1130AB08093AE0480910603909107039093B10450
S1130AC08093B00480911A0390911B039093B30414
S1130AD08093B20482E08093B40408958091020369
S1130AE0909103039093AD048093AC04809104032C
S1130AF0909105039093AF048093AE048091060314
S1130B00909107039093B1048093B00480911A03E9
S1130B1090911B039093B3048093B20483E0809379
S1130B20B404089580910803909109039093AD044F
S1130B308093AC0480910A0390910B039093AF04CB
S1130B408093AE048091E2029091E3029093B10409
S1130B508093B00480911A0390911B039093B30483
S1130B608093B20481E08093B404089580910803D3
S1130B70909109039093AD048093AC0480910A038F
S1130B8090910B039093AF048093AE048091E202A2
S1130B909091E3029093B1048093B00480911A037E
S1130BA090911B039093B3048093B20482E08093EA
S1130BB0B404089580912003813049F480910C039A
S1130BC090910D039093AD048093AC0408C0809180
S1130BD00E0390910F039093AD048093AC04809125
S1130BE01003909111039093AF048093AE0480910D
S1130BF01203909113039093B1048093B0048091F5
S1130C001A0390911B039093B3048093B20481E080
S1130C108093B404089580912003813049F4809135
S1130C200C0390910D039093AD048093AC0408C021
S1130C3080910E0390910F039093AD048093AC04C4
S1130C4080911003909111039093AF048093AE04AC
S1130C5080911203909113039093B1048093B00494
S1130C6080911A0390911B039093B3048093B20470
S1130C7082E08093B404089580912003813049F484
S1130C8080910C0390910D039093AD048093AC0478
S1130C9008C080910E0390910F039093AD0480934C
S1130CA0AC0480911003909111039093AF0480934E
S1130CB0AE0480911203909113039093B104809336
S1130CC0B00480911A0390911B039093B304809312
S1130CD0B20483E08093B404089580E090E06FDC74
S1130CE09093A8048093A704DC015696ED91FC919F
S1130CF05797F093A604E093A5040995E091A704FF
S1130D00F091A80468EE73E08689978948D183DC62
S1130D1017DC20E044E064E080E0D7D220E044E047
S1130D2064E086E0D2D220E044E064E08CE0CDC20E
S1130D30089545D2823071F038F4882309F43AC01A
S1130D40813009F44FC07EC08330E1F0843009F46F
S1130D5061C078C0E091A704F091A8040288F389E7
S1130D60E02D309709F00995E091A704F091A804CB
S1130D708085918524DC9093A8048093A7044BDCA0
S1130D80DFDB62C0E091A704F091A8040088F18938
S1130D90E02D309709F00995E091A704F091A8049B
S1130DA0868197810CDC9093A8048093A70433DC9C
S1130DB0C7DB4AC0E091A704F091A8040484F58538
S1130DC0E02D309709F00995E091A704F091A8046B
S1130DD082819381F4DB9093A8048093A7041BDCA5
S1130DE0AFDB32C0E091A704F091A8040684F78534
S1130DF0E02D309709F00995E091A704F091A8043B
S1130E0084819581DCDB9093A8048093A70403DCA0
S1130E1097DB1AC0E091A704F091A8040488F5892F
S1130E20E02D309709F00995E091A704F091A8040A
S1130E3082859385C4DB9093A8048093A704EBDB9D
S1130E407FDB02C08F3FD1F08091A5049091A6046E
S1130E50FBD0E091A704F091A8040688F789E02D5F
S1130E60F093A604E093A504309741F0099568EE49
S1130E7073E08091A5049091A60491C00895EDEBD0
S1130E80F4E08DEE94E011821082138212821582B6
S1130E9014823696E817F907B1F7E5EBF4E08DEB29
S1130EA094E02FEF2193E817F907E1F713BE83B716
S1130EB0876083BF88EB82BF86B7816086BF87B7B0
S1130EC0826087BF789408951F920F920FB60F9295
S1130ED011240BB60F920F931F932F933F934F93AD
S1130EE05F936F937F938F939F93AF93BF93CF93AE
S1130EF0DF93EF93FF9388EB82BFCDEBD4E00DEE4D
S1130F0014E088819981892B81F08C819D812A81CB
S1130F103B818217930731F41D821C82E881F98199
S1130F20099503C001969D838C832696C017D1072B
S1130F3041F78091A9049091AA049C012F5F3F4F2F
S1130F403093AA042093A9048436910589F4E5EB2F
S1130F50F4E08DEB94E0208121502E3F08F42083AF
S1130F603196E817F907B9F71092AA041092A90468
S1130F70FF91EF91DF91CF91BF91AF919F918F91AD
S1130F807F916F915F914F913F912F911F910F919D
S1130F900F900BBE0F900FBE0F901F901895CF931C
S1130FA0DF936A30710510F46AE070E0C091BD040B
S1130FB0D091BE04C817D90709F43EC0ADEEB4E021
S1130FC0E3ECF4E04081518148175907B9F13696B2
S1130FD0EA17FB07B9F7CD2B51F0E3ECF4E041E05D
S1130FE050E0EA01A081B181AB2BF9F402C0C0E06A
S1130FF0D0E0AE01440F551FFA01EC0FFD1FEE0FB8
S1131000FF1FE354FB4F918380839B01ADECBCEC49
S113101024D49695879596958795969587959383E9
S113102082831582148281E00CC04F5F5F4F369635
S113103048305105B1F604C081E003C081E001C02D
S113104080E0DF91CF9108952091BD043091BE04DA
S11310502817390759F0E3ECF4E021E030E0B90156
S11310604081518148175907E1F402C060E070E003
S1131070CB01880F991FFC01E60FF71FEE0FFF1F2E
S1131080E354FB4F1182108213821282680F791F7E
S1131090FB01EE0FFF1FE354FB4F1582148281E026
S11310A008952F5F3F4F369628303105C1F680E012
S11310B008958091B5048F3F51F0E6EBF4E021E010
S11310C030E0822FA90191919F3F51F403C040E089
S11310D050E080E0FA01EB54FB4F10828F5F0895DB
S11310E02F5F3F4F2830310561F780E008951ABA29
S11310F08FEF8BBBEAE6F0E080818860808389B75C
S1131100826089BF8998919A7894D3DF8093ED04A3
S1131110089589B3809580FD15C081FD15C082FDB9
S113112015C083FD15C084FD15C085FD15C086FD61
S113113015C08823D4F414C09093210381E08093D4
S1131140AB04089595E00DC097E00BC094E009C08E
S113115096E007C092E005C093E003C090E001C0B0
S113116091E08091AB04882339F308951F920F9284
S11311700FB60F9211240BB60F922F933F934F93F8
S11311805F936F937F938F939F93AF93BF93EF93EB
S1131190FF93F894BEDF7894FF91EF91BF91AF91E4
S11311A09F918F917F916F915F914F913F912F917B
S11311B00F900BBE0F900FBE0F901F901895F894D0
S11311C08091AB04882329F0809121031092AB0411
S11311D001C08FEF7894089598E01B98882314F445
S11311E01C9A01C01C98880F0000000000001B9A84
S11311F000000000915089F7089580E090E0019686
S1131200883B9105E1F70895CF93C82F1E9A8AEF82
S1131210E3DF8C2F807FE0DF8C2F8295807FDCDF03
S11312201E98EBDFCF910895CF93C82F1E9A88EFB5
S1131230D3DF8C2F807FD0DF8C2F8295807FCCDF13
S1131240DCDF1E98CF91089581E0EEDF80E090E02E
S11312500196811520E39207D9F70895623089F049
S113126018F4613031F00BC0633029F0643029F098
S113127006C090E807C098E805C098E903C098E95B
S113128001C090E9813110F4892BCECF0895BCCFF1
S113129008951F93CF93DF93EC018881882349F04D
S11312A010E0B2DF1F5FFE01E10FF11D80818111AB
S11312B0F8CFDF91CF911F9108954AE064E473E081
S11312C0DBD284E493E0E5CF0895DF92EF92FF92BE
S11312D00F931F93CF93DF93D82F142F653008F00B
S11312E064E0662309F4B8C0C1E02111C0E0C195EF
S11312F0623099F018F4613091F505C06330C1F0A3
S1131300643009F12CC08D2F86956894FF24F7F87A
S1131310F80E6894EE24E7F824C08D2F869568941F
S1131320FF24F7F8F80E0F2EF0E9EF2EF02D19C078
S11313308D2F86950F2EF8E8FF2EF02DF80E689469
S1131340EE24E7F80EC08D2F86950F2EF8E8FF2EB9
S1131350F02DF80E0F2EF0E9EF2EF02D02C0E12C47
S1131360F12C84E361DF8D2F8170912F9170D12B4B
S1131370D0FD16C0169500E0D12C802F8E0D54DFC1
S11313808F2D52DF112341F0DD2D8C2F3DDF8C2F6B
S11313903BDFDF5FD113F9CF0F5F003171F757C027
S11313A081111DC0992309F452C0169500E0D12C77
S11313B0802F8E0D39DF8F2D37DF112341F0DD2D86
S11313C08C2F22DF8C2F20DFDF5FD113F9CF8C2FFE
S11313D01BDF8D2D19DF0F5F003151F738C09111DC
S11313E01EC01695115000E0802F8E0D1DDF8F2D2D
S11313F01BDF80E009DF8C2F07DF112341F0D0E0F1
S11314008C2F02DF8C2F00DFDF5F1D13F9CF8C2FB1
S1131410FBDE80E0F9DE0F5F003131F718C016956E
S113142000E0802F8E0D00DF8F2DFEDE80E0ECDEED
S11314308C2FEADE112341F0D0E08C2FE5DE8C2FD7
S1131440E3DEDF5FD113F9CF0F5F003151F786E39D
S1131450EBDE80E3E9DE05C0C1E02111C0E0C19507
S113146052CFDF91CF911F910F91FF90EF90DF90BA
S113147008951F93CF93DF9384E3D6DED0E810E181
S11314808D2FD2DE80E8D0DEC12F80E0BDDE80E08B
S1131490BBDEC150D1F7DF5FD03991F710E18D2F5A
S11314A0C3DE80E8C1DEC12F80E0AEDE80E0ACDECA
S11314B0C150D1F7DF5FD03A91F7D0E810E18D2F1A
S11314C0B3DE88E8B1DEC12F80E09EDE80E09CDEE2
S11314D0C150D1F7DF5FD03991F710E18D2FA4DE31
S11314E088E8A2DEC12F80E08FDE80E08DDEC1506F
S11314F0D1F7DF5FD03A91F780E396DEDF91CF91A9
S11315001F91089582B1886F82B91D9880E090E0A0
S11315100196811520EF9207D9F71D9A1F9880E054
S113152090E00196811520E39207D9F780E37CDEF1
S11315308CE07ADE81E078DE82E076DE80E874DEBC
S113154084E072DE8CE070DE94CF08955058BB279F
S1131550AA270ED0E5C0D6D030F0DBD020F031F48D
S11315609F3F11F41EF4CBC00EF4E095E7FBC1C01D
S1131570E92FE7D080F3BA1762077307840795074A
S113158018F071F49EF5FFC00EF4E0950B2EBA2FFF
S1131590A02D0B01B90190010C01CA01A001112475
S11315A0FF27591B99F0593F50F4503E68F11A1621
S11315B0F040A22F232F342F4427585FF3CF4695B2
S11315C037952795A795F0405395C9F77EF41F16D4
S11315D0BA0B620B730B840BBAF09150A1F0FF0F9E
S11315E0BB1F661F771F881FC2F70EC0BA0F621F8A
S11315F0731F841F48F4879577956795B795F7957A
S11316009E3F08F0B3CF9395880F08F09927EE0F0B
S113161097958795089504D06894B111B5C008953D
S113162098D088F09F5790F0B92F9927B751A0F020
S1131630D1F0660F771F881F991F1AF0BA95C9F762
S113164012C0B13081F09FD0B1E008959CC0672FE3
S1131650782F8827B85F39F0B93FCCF38695779512
S11316606795B395D9F73EF49095809570956195FB
S11316707F4F8F4F9F4F0895E89409C097FB3EF426
S113168090958095709561957F4F8F4F9F4F9923CB
S1131690A9F0F92F96E9BB279395F6958795779549
S11316A06795B795F111F8CFFAF4BB0F11F460FF09
S11316B01BC06F5F7F4F8F4F9F4F16C0882311F061
S11316C096E911C0772321F09EE8872F762F05C075
S11316D0662371F096E8862F70E060E02AF09A9510
S11316E0660F771F881FDAF7880F9695879597F905
S11316F0089597F99F6780E870E060E008959FEF90
S113170080EC089500240A94161617061806090694
S1131710089500240A941216130614060506089563
S1131720092E0394000C11F4882352F0BB0F40F4EB
S1131730BF2B11F460FF04C06F5F7F4F8F4F9F4F2B
S1131740089557FD9058440F551F59F05F3F71F0AD
S11317504795880F97FB991F61F09F3F79F0879514
S11317600895121613061406551FF2CF4695F1DF9D
S113177008C0161617061806991FF1CF869571052D
S1131780610508940895E894BB2766277727CB0161
S113179097F908950BD0C4CFB5DF28F0BADF18F05D
S11317A0952309F0A6CFABCF1124EECFCADFA0F367
S11317B0959FD1F3950F50E0551F629FF001729FE2
S11317C0BB27F00DB11D639FAA27F00DB11DAA1F01
S11317D0649F6627B00DA11D661F829F2227B00D4E
S11317E0A11D621F739FB00DA11D621F839FA00DD9
S11317F0611D221F749F3327A00D611D231F849F29
S1131800600D211D822F762F6A2F11249F5750407F
S11318108AF0E1F088234AF0EE0FFF1FBB1F661F1A
S1131820771F881F91505040A9F79E3F510570F0D3
S113183060CFAACF5F3FECF3983EDCF386957795B3
S11318406795B795F795E7959F5FC1F7FE2B880FCE
S1131850911D9695879597F90895A29FB001B39F1E
S1131860C001A39F700D811D1124911DB29F700DA5
S1131870811D1124911D0895BB274A3031F4992309
S113188022F4BDE2909581959F4F01C0BB27FB01D7
S11318905527AA27880F991FAA1FA41710F0A41B65
S11318A083955051B9F7A05DAA3308F0A95DA193BF
S11318B0009779F7B111B1931192CB0100C0DC010B
S11318C0FC01672F71917723E1F7329704C07C9173
S11318D06D9370836291AE17BF07C8F30895F894AF
S10518E0FFCF34
S11318E2FFFF0000000000000000000001100000E3
S11318F2000000000000000070000110011002103E
S1131902000001100120000000000000000000009F
S11319120000021001100310000002100130000048
S11319220000000000000000000003100210041078
S1131932000003100310000000000000000000007B
S1131942000004100310051000000410041000002D
S11319520000000000000000000005100410051043
S1131962000005100000000000000000000000005C
S113197200000120012002200110012001200000AA
S113198200000000000000000000022001200320EB
S113199201100220022000000000000000000000EC
S11319A20000032002200420011003200320000071
S11319B200000000000000000000042003200520B5
S11319C201100420042000000000000000000000B8
S11319D20000052004200520011005200520000038
S11319E2000000000000000000000130013002305D
S11319F2021001300131000000000000000000006C
S1131A0200000230013003300210023001320000C3
S1131A120000000000000000000003300230043027
S1131A220210033001330000000000000000000037
S1131A32000004300330043002100430043000008B
S1131A4200000000000000000000013101310231F9
S1131A5201300131013100000000000000000000EB
S1131A62CD01023101310331013002310231000072
S1131A720000000000000000CD01033102310331F7
S1131A8201300331033100000000000000000000B7
S1131A92CD01000000000000000000000000000072
S1131AA20000000000000000000000000000000030
S1131AB20000000000000000000000000000000020
S1131AC200003C034903530359036A036F037A0377
S1131AD2850390039B03A603B503C003CB03D6037C
S1131AE2E103EA03F7030404110420042F043A0473
S1131AF243044E0459046A047904880458022003F6
S1131B0201FF5B315D005B325D005B335D005B585E
S1131B125D0030306430306830306D002020202089
S1131B22202020202020202000B5B1C7B0D1B9B296
S1131B32EE3A00CAB1BCE43A00D7B4CCAC2020B22D
S1131B42CBB5A52020B1A8BEAF00B7B5BBD8003E27
S1131B5220CFB5CDB3D7B4CCAC003E20B9A4D7F7CF
S1131B62C4A3CABD003E20C5E7B4B5C9E8D6C300C4
S1131B723E20B1A8BEAFC9E8D6C3003E20CDCBB348
S1131B82F6B2CBB5A5003E20CFB5CDB3D4CBD0D0E1
S1131B92CAB1BCE4003E20C5E7B4B5B4CECAFD0068
S1131BA23E20B9D8D3DAB1BEBBFA003E20C9E8D68A
S1131BB2C3CBF8B6A8003E20B5A5CEBBC9E8D6C3B0
S1131BC2003E20C0A9D5B9B0E5003E20D1B9B2EE9D
S1131BD2C4A3CABDD2BB003E20D1B9B2EEC4A3CACB
S1131BE2BDB6FE003E20D1B9B2EEC4A3CABDC8FD43
S1131BF2003E20CAB1D0F2BFD8D6C6C4A3CABD0023
S1131C023E20B1E0B3CCC5E7B4B5C4A3CABD003E1F
S1131C1220D5FDD4DAC6F4D3C3003E20B9D8B1D559
S1131C22D6D0003E20D1B9B2EEC9CFCFDE003E20DD
S1131C32D1B9B2EECFC2CFDE003E20D1B9B2EECFDF
S1131C42C2CFDEB0D9B7D6B1C8003E20D7EED0A1FC
S1131C52C5E7B4B5C6B5C2CA003E20C5E7B4B5CA25
S1131C62B1BCE4BCE4B8F400B7B5BBD82020C8B713
S10D1C72C8CF2020B0EFD6FA00001E
S9030000FC
