S00B00004156522E7372656330
S11300004CC0000068C000000C94A70F64C000003E
S113001062C0000060C000005EC000005CC0000060
S11300205AC0000058C0000056C0000054C0000070
S113003052C0000050C000004EC000000C94550E89
S11300404AC0000048C0000046C0000044C0000090
S113005042C0000040C000003EC000003CC00000A0
S11300603AC0000038C0000036C0000034C00000B0
S113007032C0000030C000002EC000002CC00000C0
S11300802AC0000028C0000026C000002E124D1215
S11300906C128B12AA12C912E81211241FBECFEFE0
S11300A0D0E1DEBFCDBF16E0A0E0B1E0EAEEFAE2B7
S11300B000E00BBF02C007900D92A231B107D9F73F
S11300C026E0A2E1B6E001C01D92A337B207E1F732
S11300D003D00C94731594CF0E94680F0E94B4113E
S11300E0B9D6BBD50E94300E27D50E94320D0E948E
S11300F0560DFDCFBC0180910C01823059F480E093
S113010090E00E94121424E43BE84CE650E40C9482
S1130110C814089580E090E00E94121427EE30E0A5
S113012041EC5EE30C94C8140895CF92DF92EF92F1
S1130130FF92CF93DF9381E090911A06911180E0B2
S113014080931A0681E011D50E94E1136B017C01B2
S113015061E080E00E941F1080910301823049F029
S1130160833061F0813079F486E294E00E943A10A1
S11301700EC08AE294E00E943A1009C08EE294E034
S11301800E943A1004C082E394E00E943A1061E0B5
S113019084E00E941F1080911B068823E1F0809167
S11301A01D06882361F080911A06882321F08FE0D0
S11301B00E94381013C089E00E9438100FC080914B
S11301C01A06882321F087E00E94381007C089E0CE
S11301D00E94381003C080E20E94381061E087E07A
S11301E00E941F1080911E06882361F080911A06D8
S11301F0882321F081E20E94381007C080E20E9427
S1130200381003C082E00E94381062E085E00E944A
S11302101F1080910C01823031F4C6016BDF40E085
S11302200E944E1005C0C60165DF41E00E944E10D9
S113023063E083E00E941F1080911B06882309F469
S1130240DFC08091180690911906019690931906C3
S113025080931806CC9769F480911606909117063E
S11302600196909317068093160610921906109221
S113027018068091160690911706CC9769F4809120
S11302801406909115060196909315068093140612
S113029010921706109216064091140650911506F6
S11302A04831510549F48091120690911306019644
S11302B09093130680931206C0911606D0911706E8
S11302C0E6E3F4E09E01ADECBCEC0E94311596959A
S11302D0879596958795969587959C01220F331F50
S11302E0880F991F880F991F880F991F820F931FDA
S11302F09E01281B390BC901805D87839E010E94E2
S11303003115969587959695879596958795805DF1
S113031086839A010E9431159695879596958795BF
S1130320969587959C01220F331F880F991F880F7C
S1130330991F880F991F820F931F9A01281B390B4D
S1130340C901805D84839A010E9431159695879531
S11303509695879596958795805D8383409112063F
S1130360509113069A010E9431159695879596959A
S11303708795969587959C01220F331F880F991FA7
S1130380880F991F880F991F820F931F9A01281BAA
S1130390390BC901805D81839A010E9431159695BC
S11303A087959695879596958795805D8083CF01EF
S11303B00E943A10C6019EDE6B017C012091080167
S11303C03091090140910A0150910B010E94C4141B
S11303D018162CF424D581E080931D0611C02091B9
S11303E00401309105014091060150910701C701B4
S11303F0B6010E94751388231CF422D510921D06A1
S1130400DF91CF91FF90EF90DF90CF900895CF933D
S1130410C1E080910C01813009F0C0E062E085E028
S11304200E941F10609108017091090180910A01D6
S113043090910B014C2F0E944E1063E085E00E94C6
S11304401F10609104017091050180910601909143
S113045007014C2F0E944E10CF910895CF92DF9246
S1130460EF92FF9220E030E040E450E46091080114
S11304707091090180910A0190910B010E9411135E
S11304806B017C0120E030E84DE654E40E947513D2
S1130490181644F0C0920801D0920901E0920A01B2
S11304A0F0920B01FF90EF90DF90CF900895CF92E0
S11304B0DF92EF92FF9220E030E040E450E460915C
S11304C008017091090180910A0190910B010E9429
S11304D010136B017C0120910401309105014091BE
S11304E00601509107010E94C414882344F0C0926D
S11304F00801D0920901E0920A01F0920B01FF90E9
S1130500EF90DF90CF900895CF92DF92EF92FF9219
S113051020E030E040E450E4609104017091050172
S113052080910601909107010E9411136B017C01D7
S1130530209108013091090140910A0150910B0169
S11305400E947513882344F4C0920401D0920501DB
S1130550E0920601F0920701FF90EF90DF90CF90B8
S11305600895CF92DF92EF92FF9220E030E040E4D2
S113057050E460910401709105018091060190910D
S113058007010E9410136B017C0120E030E048EC6D
S113059052E40E94C414882344F0C0920401D0920F
S11305A00501E0920601F0920701FF90EF90DF90C1
S11305B0CF900895CF92DF92EF92FF9220E030E047
S11305C040EF51E4609108017091090180910A01A2
S11305D090910B010E9411136B017C0120E030E823
S11305E04DE654E40E947513181644F0C0920801B5
S11305F0D0920901E0920A01F0920B01FF90EF9072
S1130600DF90CF900895CF92DF92EF92FF9220E097
S113061030E040EF51E4609108017091090180914C
S11306200A0190910B010E9410136B017C0120912F
S113063004013091050140910601509107010E9487
S1130640C414882344F0C0920801D0920901E092B6
S11306500A01F0920B01FF90EF90DF90CF90089584
S1130660CF92DF92EF92FF9220E030E040EF51E42E
S11306706091040170910501809106019091070138
S11306800E9411136B017C01209108013091090132
S113069040910A0150910B010E947513882344F480
S11306A0C0920401D0920501E0920601F092070184
S11306B0FF90EF90DF90CF900895CF92DF92EF926A
S11306C0FF9220E030E040EF51E46091040170912A
S11306D0050180910601909107010E9410136B019E
S11306E07C0120E030E048EC52E40E94C4148823EA
S11306F044F0C0920401D0920501E0920601F09208
S11307000701FF90EF90DF90CF900895CF92DF9292
S1130710EF92FF9220E030E046E953E46091080153
S11307207091090180910A0190910B010E941113AB
S11307306B017C0120E030E84DE654E40E9475131F
S1130740181644F0C0920801D0920901E0920A01FF
S1130750F0920B01FF90EF90DF90CF900895CF922D
S1130760DF92EF92FF9220E030E046E953E460919B
S113077008017091090180910A0190910B010E9476
S113078010136B017C01209104013091050140910B
S11307900601509107010E94C414882344F0C092BA
S11307A00801D0920901E0920A01F0920B01FF9036
S11307B0EF90DF90CF900895CF92DF92EF92FF9267
S11307C020E030E046E953E46091040170910501B2
S11307D080910601909107010E9411136B017C0125
S11307E0209108013091090140910A0150910B01B7
S11307F00E947513882344F4C0920401D092050129
S1130800E0920601F0920701FF90EF90DF90CF9005
S11308100895CF92DF92EF92FF9220E030E046E914
S113082053E4609104017091050180910601909157
S113083007010E9410136B017C0120E030E048ECBA
S113084052E40E94C414882344F0C0920401D0925C
S11308500501E0920601F0920701FF90EF90DF900E
S1130860CF90089580910C018230E1F581E080936E
S11308700C0124E43BE84CE650E4609108017091DB
S1130880090180910A0190910B010E94791327EECE
S113089030E041EC5EE30E94C81460930801709359
S11308A0090180930A0190930B0124E43BE84CE690
S11308B050E46091040170910501809106019091CA
S11308C007010E94791327EE30E041EC5EE30E94B9
S11308D0C8146093040170930501809306019093FA
S11308E00701089582E080930C0127EE30E041EC8B
S11308F05EE3609108017091090180910A01909171
S11309000B010E94791324E43BE84CE650E40E9476
S1130910C814609308017093090180930A019093AD
S11309200B0127EE30E041EC5EE36091040170912D
S1130930050180910601909107010E94791324E436
S11309403BE84CE650E40E94C814609304017093A1
S11309500501809306019093070108951F93CF9397
S1130960DF93EC01162F80E00E941F108091C903D1
S11309709091CA030E943A10612F80E00E941F10D8
S1130980CE010E943A10DF91CF911F910895FF92FA
S11309900F931F93CF93DF9363E080E494E0DEDF53
S11309A080E090ECA2E1B0E00197A109B1090097C1
S11309B0A105B105C9F763E08DE494E0CFDF81E0E0
S11309C087D2C0910201CC23C9F0F12C00EC12E1D2
S11309D0D0E063E087E00E941F108C2F90E00E941B
S11309E091108F2D902FA12FBD2F0197A109B1092F
S11309F00097A105B105C9F7C15059F763E08BE52C
S1130A0094E0ACDF81E057D2C0910101CC23C9F05E
S1130A10F12C00EC12E1D0E063E087E00E941F10AB
S1130A208C2F90E00E9491108F2D902FA12FBD2F1D
S1130A300197A109B1090097A105B105C9F7C150F2
S1130A4059F782E038D263E089E694E087DF80E0FA
S1130A5090E8A5E2B0E00197A109B1090097A105CA
S1130A60B105C9F763E087E794E078DF81E080931C
S1130A701B06DF91CF911F910F91FF900895FF9274
S1130A800F931F93CF93DF9380911D06882319F052
S1130A90D7D110921D0663E080E00E941F1063E02E
S1130AA08DE794E05BDF10921B0680E004D280E0C7
S1130AB090ECA2E1B0E00197A109B1090097A1056A
S1130AC0B105C9F7C0910001CC23C9F0F12C00ECA9
S1130AD012E1D0E063E087E00E941F108C2F90E0C9
S1130AE00E9491108F2D902FA12FBD2F0197A10946
S1130AF0B1090097A105B105C9F7C15059F763E0E1
S1130B0089E894E02BDF80E0E3D180E090E4A8E37F
S1130B10B0E00197A109B1090097A105B105C9F792
S1130B2063E086E994E01ADF10921C06DF91CF910E
S1130B301F910F91FF900895E1E6F0E080818C7F92
S1130B40808386E886B980E187B935980895369A16
S1130B50349BFECF86EF8A95F1F724B185B190E0FE
S1130B60982F8827820F911D0895CF92DF92EF92DC
S1130B70FF92CF93833089F028F4813041F08230A2
S1130B8049F037C0843061F0853069F032C080E1CB
S1130B9087B92FC084E087B92CC085E087B929C004
S1130BA086E087B926C087E087B923C0D0DFBC01BF
S1130BB080E090E00E9412149B01AC01C701B601D1
S1130BC00E9411136B017C01C15081F720E030E0D9
S1130BD040E05EE30E94C81420E030E040E85AE3BD
S1130BE00E94C81420E030E04AE754E40E94C8148C
S1130BF005C0C8E0C12CD12C7601D8CFCF91FF908D
S1130C00EF90DF90CF90089580910F0190911001A3
S1130C1020E1E5E6F0E0992314F4C59A01C0C598F3
S1130C20880F991F38E13A95F1F700C03081386098
S1130C30308338E13A95F1F700C03081377F308353
S1130C4038E13A95F1F700C0215029F7C79A88E1B5
S1130C508A95F1F700C0C798089587B3806E87BB63
S1130C60E4E6F0E0808188618083E5E6F0E080815D
S1130C70877F8083C798808180618083C698C4CF32
S1130C800895813198F421E030E0A90102C0440FB5
S1130C90551F8A95E2F7CA0120910F013091100186
S1130CA0822B932B9093100180930F01ADCF089565
S1130CB08131A8F421E030E0A90102C0440F551F9E
S1130CC08A95E2F7CA018095909520910F013091A1
S1130CD01001822393239093100180930F0194CFEA
S1130CE0089580912406811128C080912206909154
S1130CF02306892B11F58091200690912106892BDA
S1130D00E1F480E0D5DF81E080931F068091220624
S1130D1090912306019690932306809322063091A6
S1130D200E012DEC329F212D112426952695269512
S1130D3030E082179307B1F527C040911F06442382
S1130D40B9F0809122069091230601969093230690
S1130D508093220630910E012DEC329F212D112417
S1130D6026952695269530E082179307D9F40AC074
S1130D7080912006909121060196909321068093FC
S1130D80200610C0413071F4809124067ADF10925D
S1130D901F061092230610922206809124068F5F6C
S1130DA08093240620910D0184E6289F900111244C
S1130DB080912006909121062817390771F48091BB
S1130DC01F0681110AC08091240672DF81E080939E
S1130DD01F0610922106109220068091240680316D
S1130DE0E9F4109224061092210610922006109223
S1130DF023061092220680912D0690912E060196CC
S1130E0090932E0680932D0680912506811106C0AD
S1130E1081E796E00E94150F80E03DC0089580911F
S1130E20250681110BC081E08093250634D06AE049
S1130E3070E081E796E0A4D780E0089581E008950A
S1130E4080912506882321F01092250680E00895DC
S1130E5081E00895B89AE1E6F0E0808188608083BB
S1130E60E4E6F0E08081816080838F9A8E9A8D9A87
S1130E708C9AC09AE2E6F0E0808188608083E5E69F
S1130E80F0E080818E7F808382B38F7082BB84B3D5
S1130E90807F84BB0895882339F0E2E6F0E0808106
S1130EA0877F8083979A0895E2E6F0E080818860E6
S1130EB0808397980895813019F4969A95980895A7
S1130EC0823019F49698959A08959598969808956D
S1130ED0813011F4949A08959498089583B382FB11
S1130EE0882780F991E0892708950E94151061E010
S1130EF080E00E941F1080912F06909130060E947E
S1130F003A1062E080E00E941F10809131069091B7
S1130F1032060E943A1063E080E00E941F10809124
S1130F203306909134060E943A1064E080E00E94F7
S1130F301F1080913506909136060E943A10409118
S1130F40390660913806809137060C94D8110895BB
S1130F5020911101309112012817390759F0E9E263
S1130F60F1E021E030E0B90140815181481759078F
S1130F7091F402C060E070E0CB01880F991F680F04
S1130F80791FCB01880F991F880F991F880F991F0C
S1130F908F5E9E4F08952F5F3F4F78962D31310518
S1130FA011F780E090E00895E0912806F091290679
S1130FB080819181823020E3920709F48FC2E0F5A9
S1130FC0813020E2920709F471C1D0F4823020E12B
S1130FD0920709F4CBC040F4009709F46BC0813048
S1130FE0904109F49BC027C5843020E1920709F49D
S1130FF00DC108F4E3C08530904109F42FC11BC52D
S1131000843020E2920709F4C9C150F4823020E20E
S1131010920709F473C18330904209F497C10BC558
S1131020863020E2920709F409C208F4DFC1813056
S1131030904309F42BC2FFC4843021E3920709F4DE
S11310408CC3E0F4853020E3920709F4BFC250F466
S1131050833020E3920709F469C28430904309F491
S11310608DC2E9C4823021E3920709F40CC308F06D
S11310703FC38130914309F4D1C2DDC4833121E3FC
S1131080920709F400C450F4813121E3920709F472
S11310908FC38231914309F4C1C3CDC4853121E3A7
S11310A0920709F45CC408F424C48631914309F41A
S11310B08CC4C1C48091C9039091CA039093300633
S11310C080932F068091CB039091CC0390933206AA
S11310D08093310680911B06882349F08091CD03CB
S11310E09091CE03909334068093330608C0809188
S11310F0090490910A0490933406809333068091F6
S1131100CF039091D00390933606809335061092C6
S11311103706109238061092390608958091D30349
S11311209091D4039093300680932F068091D50339
S11311309091D60390933206809331068091D70321
S11311409091D803909334068093330680910104E0
S113115090910204909336068093350610923706D8
S113116081E0809338061092390608958091D30364
S11311709091D4039093300680932F068091D503E9
S11311809091D60390933206809331068091D703D1
S11311909091D80390933406809333068091010490
S11311A09091020490933606809335061092370688
S11311B082E0809338061092390608958091D30313
S11311C09091D4039093300680932F068091D50399
S11311D09091D60390933206809331068091D70381
S11311E09091D80390933406809333068091010440
S11311F09091020490933606809335061092370638
S113120083E0809338061092390608958091D903BB
S11312109091DA039093300680932F068091DB033C
S11312209091DC0390933206809331068091C90338
S11312309091CA03909334068093330680910104FD
S113124090910204909336068093350610923706E7
S113125081E0809338061092390608958091D9036D
S11312609091DA039093300680932F068091DB03EC
S11312709091DC0390933206809331068091C903E8
S11312809091CA03909334068093330680910104AD
S11312909091020490933606809335061092370697
S11312A082E0809338061092390608958091DD0318
S11312B09091DE039093300680932F068091DF0394
S11312C09091E00390933206809331068091E1037C
S11312D09091E20390933406809333068091010445
S11312E09091020490933606809335061092370647
S11312F081E0809338061092390608958091DD03C9
S11313009091DE039093300680932F068091DF0343
S11313109091E00390933206809331068091E1032B
S11313209091E203909334068093330680910104F4
S113133090910204909336068093350610923706F6
S113134082E0809338061092390608958091DD0377
S11313509091DE039093300680932F068091DF03F3
S11313609091E00390933206809331068091E103DB
S11313709091E203909334068093330680910104A4
S113138090910204909336068093350610923706A6
S113139083E0809338061092390608958091E30320
S11313A09091E4039093300680932F068091E50397
S11313B09091E60390933206809331068091E7037F
S11313C09091E8039093340680933306809101044E
S11313D09091020490933606809335061092370656
S11313E081E0809338061092390608958091E303D2
S11313F09091E4039093300680932F068091E50347
S11314009091E60390933206809331068091E7032E
S11314109091E803909334068093330680910104FD
S11314209091020490933606809335061092370605
S113143082E0809338061092390608958091E30380
S11314409091E4039093300680932F068091E503F6
S11314509091E60390933206809331068091E703DE
S11314609091E803909334068093330680910104AD
S113147090910204909336068093350610923706B5
S113148083E0809338061092390608958091E90329
S11314909091EA039093300680932F068091EB039A
S11314A09091EC0390933206809331068091ED0382
S11314B09091EE0390933406809333068091010457
S11314C09091020490933606809335061092370665
S11314D081E0809338061092390608958091E903DB
S11314E09091EA039093300680932F068091EB034A
S11314F09091EC0390933206809331068091ED0332
S11315009091EE0390933406809333068091010406
S11315109091020490933606809335061092370614
S113152082E0809338061092390608958091E90389
S11315309091EA039093300680932F068091EB03F9
S11315409091EC0390933206809331068091ED03E1
S11315509091EE03909334068093330680910104B6
S113156090910204909336068093350610923706C4
S113157083E0809338061092390608958091EF0332
S11315809091F0039093300680932F068091F1039D
S11315909091F20390933206809331068091C903AF
S11315A09091CA039093340680933306809101048A
S11315B09091020490933606809335061092370674
S11315C081E0809338061092390608958091EF03E4
S11315D09091F0039093300680932F068091F1034D
S11315E09091F20390933206809331068091C9035F
S11315F09091CA039093340680933306809101043A
S11316009091020490933606809335061092370623
S113161082E0809338061092390608958091030180
S1131620813049F48091F3039091F4039093300650
S113163080932F0608C08091F5039091F603909350
S1131640300680932F068091F7039091F8039093CE
S11316503206809331068091F9039091FA039093B6
S11316603406809333068091010490910204909390
S11316703606809335061092370681E0809338064B
S113168010923906089580910301813049F48091C4
S1131690F3039091F4039093300680932F0608C0CF
S11316A08091F5039091F6039093300680932F0672
S11316B08091F7039091F80390933206809331065A
S11316C08091F9039091FA03909334068093330642
S11316D0809101049091020490933606809335061C
S11316E01092370682E080933806109239060895E6
S11316F080910301813049F48091F3039091F403C4
S11317009093300680932F0608C08091F503909142
S1131710F6039093300680932F068091F7039091FF
S1131720F80390933206809331068091F9039091E7
S1131730FA039093340680933306809101049091C8
S1131740020490933606809335061092370683E0A0
S11317508093380610923906089580910C018230E6
S113176049F480910304909104049093300680938B
S11317702F060AC0813041F480910504909106043B
S11317809093300680932F068091C9039091CA03E9
S113179090933206809331069093340680933306F7
S11317A01092370681E08093380610923906089526
S11317B080910301813049F48091F3039091F40303
S11317C09093300680932F0608C08091F503909182
S11317D0F6039093300680932F068091F70390913F
S11317E0F80390933206809331068091F903909127
S11317F0FA03909334068093330680910104909108
S1131800020490933606809335061092370682E0E0
S11318108093380681E0809339060895809103010E
S1131820813049F48091F3039091F403909330064E
S113183080932F0608C08091F5039091F60390934E
S1131840300680932F068091F7039091F8039093CC
S11318503206809331068091F9039091FA039093B4
S1131860340680933306809101049091020490938E
S11318703606809335061092370682E08093380648
S113188080933906089580910301813049F4809151
S1131890F3039091F4039093300680932F0608C0CD
S11318A08091F5039091F6039093300680932F0670
S11318B08091F7039091F803909332068093310658
S11318C08091F9039091FA03909334068093330640
S11318D0809101049091020490933606809335061A
S11318E01092370682E08093380683E080933906AD
S11318F0089580910301813049F48091F30390911C
S1131900F4039093300680932F0608C08091F5036A
S11319109091F6039093300680932F068091F703FD
S11319209091F80390933206809331068091F903E5
S11319309091FA03909334068093330680910104C6
S113194090910204909336068093350610923706E0
S113195083E08093380684E080933906089580916B
S11319600301813049F48091F3039091F40390933F
S1131970300680932F0608C08091F5039091F603FA
S11319809093300680932F068091F7039091F8038B
S113199090933206809331068091F9039091FA0373
S11319A0909334068093330680910104909102044D
S11319B090933606809335061092370683E0809321
S11319C0380685E0809339060895809103018130BB
S11319D049F48091F3039091F4039093300680933B
S11319E02F0608C08091F5039091F603909330067A
S11319F080932F068091F7039091F8039093320619
S1131A00809331068091F9039091FA039093340600
S1131A1080933306809101049091020490933606DA
S1131A20809335061092370683E08093380686E06B
S1131A308093390608958091070490910804909347
S1131A40300680932F068091C9039091CA03909326
S1131A5032068093310690933406809333061092B5
S1131A603906089580E090E073DA90932906809314
S1131A70280631D4E0912806F09129060688F789D2
S1131A80E02DF0932706E09326060995E0912806B9
S1131A90F091290668EE73E08689978971D184DA1A
S1131AA024DA40E060E080E083C4089579D2823093
S1131AB071F038F4882309F43AC0813009F44FC036
S1131AC07EC08330E1F0843009F461C078C0E091D5
S1131AD02806F09129060288F389E02D309709F051
S1131AE00995E0912806F09129068085918530DAE0
S1131AF0909329068093280657DAF7D962C0E091BB
S1131B002806F09129060088F189E02D309709F024
S1131B100995E0912806F09129068681978118DAC3
S1131B2090932906809328063FDADFD94AC0E091D2
S1131B302806F09129060484F585E02D309709F0F4
S1131B400995E0912806F09129068281938100DAB3
S1131B50909329068093280627DAC7D932C0E091EA
S1131B602806F09129060684F785E02D309709F0C0
S1131B700995E0912806F091290684819581E8D998
S1131B8090932906809328060FDAAFD91AC0E09102
S1131B902806F09129060488F589E02D309709F08C
S1131BA00995E0912806F091290682859385D0D97C
S1131BB09093290680932806F7D997D902C08F3FBE
S1131BC0D1F080912606909127062FD1E091280626
S1131BD0F09129060688F789E02DF0932706E09313
S1131BE02606309741F0099568EE73E08091260649
S1131BF090912706C5D072D98823C1F080911C0624
S1131C0081112DC080E090EEA1E0B0E00197A10920
S1131C10B1090097A105B105C9F760D981111FC0A9
S1131C2081E080931C060C94C704089580911B06E0
S1131C30882389F080E090EEA1E0B0E00197A1094B
S1131C40B1090097A105B105C9F748D9882339F02E
S1131C500C943F05089580E02ED980E039C9089599
S1131C60E2E4F6E082E796E01182108213821282A7
S1131C70158214823696E817F907B1F7EAE3F6E01D
S1131C8082E496E02FEF2193E817F907E1F713BEFA
S1131C9083B7876083BF88EB82BF86B7816086BFC6
S1131CA087B7826087BF789408951F920F920FB60A
S1131CB00F9211240BB60F920F931F932F933F9300
S1131CC04F935F936F937F938F939F93AF93BF9340
S1131CD0CF93DF93EF93FF9388EB82BFC2E4D6E008
S1131CE002E716E088819981892B81F08C819D819E
S1131CF02A813B818217930731F41D821C82E8817B
S1131D00F981099503C001969D838C832696C0179B
S1131D10D10741F780912A0690912B069C012F5FF1
S1131D203F4F30932B0620932A068436910589F47D
S1131D30EAE3F6E082E496E0208121502E3F08F4A5
S1131D4020833196E817F907B9F710922B06109201
S1131D502A06FF91EF91DF91CF91BF91AF919F91AF
S1131D608F917F916F915F914F913F912F911F912F
S1131D700F910F900BBE0F900FBE0F901F901895F0
S1131D80CF93DF936A30710510F46AE070E0C0917C
S1131D904206D0914306C817D90709F43EC0A2E70A
S1131DA0B6E0E8E4F6E04081518148175907B9F1FB
S1131DB03696EA17FB07B9F7CD2B51F0E8E4F6E0C5
S1131DC041E050E0EA01A081B181AB2BF9F402C0FB
S1131DD0C0E0D0E0AE01440F551FFA01EC0FFD1F27
S1131DE0EE0FFF1FEE5BF94F918380839B01ADECF7
S1131DF0BCEC37D696958795969587959695879555
S1131E00938382831582148281E00CC04F5F5F4FFD
S1131E10369648305105B1F604C081E003C081E034
S1131E2001C080E0DF91CF91089520914206309166
S1131E3043062817390759F0E8E4F6E021E030E0DA
S1131E40B9014081518148175907E1F402C060E0AB
S1131E5070E0CB01880F991FFC01E60FF71FEE0F0E
S1131E60FF1FEE5BF94F1182108213821282680FFA
S1131E70791FFB01EE0FFF1FEE5BF94F15821482F1
S1131E8081E008952F5F3F4F369628303105C1F623
S1131E9080E0089580913A068F3F51F0EBE3F6E03D
S1131EA021E030E0822FA90191919F3F51F403C0BA
S1131EB040E050E080E0FA01E65CF94F10828F5F69
S1131EC008952F5F3F4F2830310561F780E0089572
S1131ED01ABA8FEF8BBBEAE6F0E0808188608083DA
S1131EE089B7826089BF8998919A7894D3DF809367
S1131EF07206089589B3809580FD15C081FD15C0D3
S1131F0082FD15C083FD15C084FD15C085FD15C077
S1131F1086FD15C08823D4F414C09093110481E085
S1131F2080932C06089595E00DC097E00BC094E0D3
S1131F3009C096E007C092E005C093E003C090E0BA
S1131F4001C091E080912C06882339F308951F92F3
S1131F500F920FB60F9211240BB60F922F933F934B
S1131F604F935F936F937F938F939F93AF93BF939D
S1131F70EF93FF93F894BEDF7894FF91EF91BF91B4
S1131F80AF919F918F917F916F915F914F913F910D
S1131F902F910F900BBE0F900FBE0F901F901895AE
S1131FA0F89480912C06882329F0809111041092D2
S1131FB02C0601C08FEF7894089598E01B9888232D
S1131FC014F41C9A01C01C98880F00000000000043
S1131FD01B9A00000000915089F7089580E090E07A
S1131FE00196883B9105E1F70895CF93C82F1E9A77
S1131FF08AEFE3DF8C2F807FE0DF8C2F8295807F58
S1132000DCDF1E98EBDFCF910895CF93C82F1E9A83
S113201088EFD3DF8C2F807FD0DF8C2F8295807F59
S1132020CCDFDCDF1E98CF91089581E0EEDF80E005
S113203090E00196811520E39207D9F70895623064
S113204089F018F4613031F00BC0633029F064304A
S113205029F006C090E807C098E805C098E903C0D5
S113206098E901C090E9813110F4892BCECF08950D
S1132070BCCF08951F93CF93DF93EC01888188230D
S113208049F010E0B2DF1F5FFE01E10FF11D808116
S11320908111F8CFDF91CF911F9108958F929F9274
S11320A0AF92BF92CF92DF92EF92FF92CF934B0108
S11320B05C01C42F86D36B017C014AE060E176E0C9
S11320C0C601DED480E196E0D5DFCC2301F18EE2B7
S11320D08CDFB601882777FD8095982FA5D39B01C7
S11320E0AC01C501B4019CD2F12C20E030E040E207
S11320F051E44ED4F394FC12F8CF63D3DC01CB014A
S11321004AE060E176E0BCD480E196E0B3DFCF91B1
S1132110FF90EF90DF90CF90BF90AF909F908F9003
S113212008954AE06DE076E0ABD48DE096E0A2CF6E
S11321300895DF92EF92FF920F931F93CF93DF9353
S1132140D82F142F653008F064E0662309F4B6C074
S1132150C1E02111C0E0C195623099F018F46130FA
S113216091F505C06330C1F0643009F12CC08D2FA6
S113217086956894FF24F7F8F80E6894EE24E7F83F
S113218024C08D2F86956894FF24F7F8F80E0F2E3F
S1132190F0E9EF2EF02D19C08D2F86950F2EF8E85B
S11321A0FF2EF02DF80E6894EE24E7F80EC08D2F64
S11321B086950F2EF8E8FF2EF02DF80E0F2EF0E97D
S11321C0EF2EF02D02C0E12CF12C84E31EDF8D2FC5
S11321D08170912F9170D12BD0FD16C0169500E01F
S11321E0D12C802F8E0D11DF8F2D0FDF112341F0A5
S11321F0DD2D8C2FFADE8C2FF8DEDF5FD113F9CFC3
S11322000F5F003171F757C081111DC0992309F484
S113221052C0169500E0D12C802F8E0DF6DE8F2D46
S1132220F4DE112341F0DD2D8C2FDFDE8C2FDDDE7B
S1132230DF5FD113F9CF8C2FD8DE8D2DD6DE0F5F63
S1132240003151F738C091111EC01695115000E0AD
S1132250802F8E0DDADE8F2DD8DE80E0C6DE8C2F47
S1132260C4DE112341F0D0E08C2FBFDE8C2FBDDE05
S1132270DF5F1D13F9CF8C2FB8DE80E0B6DE0F5F71
S1132280003131F718C0169500E0802F8E0DBDDEA9
S11322908F2DBBDE80E0A9DE8C2FA7DE112341F059
S11322A0D0E08C2FA2DE8C2FA0DEDF5FD113F9CF1C
S11322B00F5F003151F780E3A8DE05C0C1E02111B2
S11322C0C0E0C19554CFDF91CF911F910F91FF9042
S11322D0EF90DF9008951F93CF93DF9384E395DE0F
S11322E0D0E810E18D2F91DE80E88FDEC12F80E0F1
S11322F07CDE80E07ADEC150D1F7DF5FD03991F720
S113230010E18D2F82DE80E880DEC12F80E06DDE5B
S113231080E06BDEC150D1F7DF5FD03A91F7D0E8AF
S113232010E18D2F72DE88E870DEC12F80E05DDE63
S113233080E05BDEC150D1F7DF5FD03991F710E167
S11323408D2F63DE88E861DEC12F80E04EDE80E001
S11323504CDEC150D1F7DF5FD03A91F780E355DE10
S1132360DF91CF911F91089582B1886F82B91D9832
S113237080E090E00196811520EF9207D9F71D9A2D
S11323801F9880E090E00196811520E39207D9F729
S113239080E33BDE8CE039DE81E037DE82E035DE4F
S11323A080E833DE84E031DE8CE02FDE94CF0895C4
S11323B01F93CF93DF93C82F162FD42F809113042C
S11323C0C81731F1CC2319F0C13089F01FC020E0C7
S11323D044E064E080E0ADDE20E044E064E086E0D8
S11323E0A8DE20E044E064E08CE0A3DE0FC020E03F
S11323F044E064E080E09DDE21E044E064E086E0C7
S113240098DE21E044E064E08CE093DEC0931304A2
S1132410123051F0133071F0113089F461E080E032
S11324200EDE8AE2E2DD0BC062E080E008DE8AE2D2
S1132430DCDD05C063E080E002DE8AE2D6DD809167
S113244012048D1709F4E4C08D2F90E087309105B4
S113245008F0DCC0FC01EA5BFF4FFDC221E041E073
S113246062E08CE066DE21E041E062E08AE061DE69
S113247021E041E063E08DE05CDE21E041E063E0E7
S11324808CE057DE21E041E063E08AE052DE21E0A7
S113249041E062E08DE04DDEB9C021E041E062E060
S11324A08CE047DE21E041E062E08AE042DE21E0A8
S11324B041E063E08DE03DDE21E041E063E08CE05B
S11324C038DE21E041E063E08AE033DE20E041E0F1
S11324D062E08DE02EDE9AC021E041E062E08DE012
S11324E028DE21E041E062E08AE023DE21E041E0F1
S11324F063E08DE01EDE21E041E063E08CE019DE64
S113250021E041E063E08AE014DE20E041E062E0A3
S11325108CE00FDE7BC021E041E062E08DE009DE6B
S113252021E041E062E08CE004DE21E041E063E090
S11325308DE0FFDD21E041E063E08CE0FADD21E0A5
S113254041E063E08AE0F5DD20E041E062E08AE01A
S1132550F0DD5CC021E041E062E08DE0EADD21E0F5
S113256041E062E08CE0E5DD21E041E062E08AE008
S1132570E0DD21E041E063E08CE0DBDD21E041E0EF
S113258063E08AE0D6DD20E041E063E08DE0D1DD68
S11325903DC021E041E062E08DE0CBDD21E041E09F
S11325A062E08CE0C6DD21E041E062E08AE0C1DD6A
S11325B021E041E063E08DE0BCDD21E041E063E047
S11325C08AE0B7DD20E041E063E08CE0B2DD1EC0CC
S11325D021E041E062E08DE0ACDD21E041E062E039
S11325E08CE0A7DD21E041E062E08AE0A2DD21E0A9
S11325F041E063E08DE09DDD21E041E063E08CE0BB
S113260098DD20E041E063E08AE093DDD09312049A
S113261086E3FBDC80E3F9DCDF91CF911F91089521
S11326205058BB27AA270ED075C166D130F06BD1A4
S113263020F031F49F3F11F41EF45BC10EF4E095D9
S1132640E7FB51C1E92F77D180F3BA17620773070B
S11326508407950718F071F49EF58FC10EF4E09588
S11326600B2EBA2FA02D0B01B90190010C01CA0148
S1132670A0011124FF27591B99F0593F50F4503EF3
S113268068F11A16F040A22F232F342F4427585FE5
S1132690F3CF469537952795A795F0405395C9F7FD
S11326A07EF41F16BA0B620B730B840BBAF09150B5
S11326B0A1F0FF0FBB1F661F771F881FC2F70EC054
S11326C0BA0F621F731F841F48F487957795679527
S11326D0B795F7959E3F08F0B3CF9395880F08F010
S11326E09927EE0F979587950895D9D008F481E03E
S11326F008950CD00FC107D140F0FED030F021F482
S11327005F3F19F0F0C0511139C1F3C014D198F3EF
S11327109923C9F35523B1F3951B550BBB27AA275E
S113272062177307840738F09F5F5F4F220F331FD0
S1132730441FAA1FA9F333D00E2E3AF0E0E830D09C
S113274091505040E695001CCAF729D0FE2F27D09F
S1132750660F771F881FBB1F261737074807AB076D
S1132760B0E809F0BB0B802DBF01FF2793585F4FE2
S11327702AF09E3F510568F0B6C000C15F3FECF3FC
S1132780983EDCF3869577956795B795F7959F5FA7
S1132790C9F7880F911D9695879597F90895E1E0FB
S11327A0660F771F881FBB1F621773078407BA075A
S11327B020F0621B730B840BBA0BEE1F88F7E095B5
S11327C0089504D06894B111D9C00895BCD088F09C
S11327D09F5790F0B92F9927B751A0F0D1F0660F09
S11327E0771F881F991F1AF0BA95C9F712C0B13024
S11327F081F0C3D0B1E00895C0C0672F782F882737
S1132800B85F39F0B93FCCF3869577956795B39562
S1132810D9F73EF490958095709561957F4F8F4FD1
S11328209F4F0895E89409C097FB3EF490958095D6
S1132830709561957F4F8F4F9F4F9923A9F0F92F82
S113284096E9BB279395F695879577956795B79500
S1132850F111F8CFFAF4BB0F11F460FF1BC06F5FE6
S11328607F4F8F4F9F4F16C0882311F096E911C0F8
S1132870772321F09EE8872F762F05C0662371F019
S113288096E8862F70E060E02AF09A95660F771F2D
S1132890881FDAF7880F9695879597F90895990F09
S11328A00008550FAA0BE0E8FEEF16161706E80716
S11328B0F907C0F012161306E407F50798F0621B37
S11328C0730B840B950B39F40A2661F0232B242B0C
S11328D0252B21F408950A2609F4A140A6958FEF2B
S11328E0811D811D089597F99F6780E870E060E07D
S11328F008959FEF80EC089500240A941616170695
S113290018060906089500240A94121613061406DC
S113291005060895092E0394000C11F4882352F03F
S1132920BB0F40F4BF2B11F460FF04C06F5F7F4FF7
S11329308F4F9F4F089557FD9058440F551F59F0DE
S11329405F3F71F04795880F97FB991F61F09F3F98
S113295079F087950895121613061406551FF2CFC1
S11329604695F1DF08C0161617061806991FF1CF11
S113297086957105610508940895E894BB27662738
S11329807727CB0197F908958ADF08F48FEF08952C
S11329900BD0C0CFB1DF28F0B6DF18F0952309F0D3
S11329A0A2CFA7CF1124EACFC6DFA0F3959FD1F31E
S11329B0950F50E0551F629FF001729FBB27F00DE9
S11329C0B11D639FAA27F00DB11DAA1F649F66273E
S11329D0B00DA11D661F829F2227B00DA11D621F8D
S11329E0739FB00DA11D621F839FA00D611D221F47
S11329F0749F3327A00D611D231F849F600D211D2B
S1132A00822F762F6A2F11249F5750408AF0E1F0CD
S1132A1088234AF0EE0FFF1FBB1F661F771F881F16
S1132A2091505040A9F79E3F510570F05CCFA6CF5E
S1132A305F3FECF3983EDCF3869577956795B79501
S1132A40F795E7959F5FC1F7FE2B880F911D96952B
S1132A50879597F90895EE0FFF1F0590F491E02DE7
S1132A600994A29FB001B39FC001A39F700D811D63
S1132A701124911DB29F700D811D1124911D089583
S1132A80BB274A3031F4992322F4BDE29095819515
S1132A909F4F01C0BB27FB015527AA27880F991F09
S1132AA0AA1FA41710F0A41B83955051B9F7A05D79
S1132AB0AA3308F0A95DA193009779F7B111B193F6
S1132AC01192CB0100C0DC01FC01672F71917723C7
S1132AD0E1F7329704C07C916D9370836291AE17D5
S10D2AE0BF07C8F30895F894FFCF70
S1132AEA050505010000FA4300009644020164FF4B
S1132AFAFF000000000000000000000110000000B8
S1132B0A00000000000000950001100110021000EE
S1132B1A0001100120000000000000000000000075
S1132B2A000210011003100000021001300000001E
S1132B3A000000000000000000031002100410004E
S1132B4A0003100310000000000000000000000051
S1132B5A0004100310051000000410041000000003
S1132B6A0000000000000000000510041005100019
S1132B7A0005100000000000000000000000000032
S1132B8A0001200120022001100120012000000080
S1132B9A00000000000000000002200120032001C0
S1132BAA10022002200000000000000000000000C3
S1132BBA0003200220042001100320032000000047
S1132BCA000000000000000000042003200520018A
S1132BDA100420042000000000000000000000008F
S1132BEA000520042005200110052005200000000E
S1132BFA0000000000000000000130013002300231
S1132C0A1001300131000000000000000000000043
S1132C1A0002300130033002100230013200000099
S1132C2A00000000000000000003300230043002FB
S1132C3A100330013300000000000000000000000F
S1132C4A0004300330043002100430043000000061
S1132C5A00000000000000000001310431023101CB
S1132C6A30013101310000000000000000000007BB
S1132C7A0202310131033101300231113100000005
S1132C8A0000000000000007020331023104310190
S1132C9A3003311431000000000000000000000776
S1132CAA02043103310131013004310431000000DE
S1132CBA00000000003204000011311131113112F8
S1132CCA31133102312E02570200000000000007BE
S1132CDA02123112311231133111310231DA020383
S1132CEA03000000000000070213311331133111ED
S1132CFA31123102318603AF0300000000000007DD
S1132D0A021431143114311531163103318402B1EC
S1132D1A02000000000000070215311531153116B2
S1132D2A311431033130035D030000000000000751
S1132D3A02163116311631143115310331DC030907
S1132D4A0400000000000007020000000000000068
S1132D5A0000000000000000000000000000000065
S1132D6A0000000000000000000000000000000055
S1132D7A0000000000000000000000000000000045
S1132D8A0000000000000000000000000000000035
S1132D9A0000000000000000000000000000000025
S1132DAA00000000000000000014049F047704A936
S1132DBA04BA04BF04CA04D504E004EB04F6040507
S1132DCA0510051B05260531053A05470554056115
S1132DDA0570057F058A0593059E05A905BA05C9E7
S1132DEA05D805E905F4050106960400000000006B
S1132DFA00FFFFFF20202020202020202020202048
S1132E0A2020202000005B315D005B325D005B33D3
S1132E1A5D005B585D0030306430306830306D00DE
S1132E2ACFB5CDB3C6F4B6AF2E2E2E2000D0B6BB86
S1132E3AD2B7A7C6F4B6AF2E2E2E00B7E7BBFAC692
S1132E4AF4B6AF535441522000B7E7BBFAC6F4B6FE
S1132E5AAF44454C544100CAB1BCE43A00B7E7BB9D
S1132E6AFACDA3BBFA2E2E2E00D0B6BBD2B7A7CD6D
S1132E7AA3D6B9A3A100CFB5CDB3CDA3BBFA00B5F0
S1132E8AB1C7B0D1B9B2EE3A00D7B4CCAC2020B2B3
S1132E9ACBB5A52020B1A8BEAF00B7B5BBD8003EBC
S1132EAA20CFB5CDB3D7B4CCAC003E20B9A4D7F764
S1132EBAC4A3CABD003E20C5E7B4B5C9E8D6C30059
S1132ECA3E20B1A8BEAFC9E8D6C3003E20CDCBB3DD
S1132EDAF6B2CBB5A5003E20CFB5CDB3D4CBD0D076
S1132EEACAB1BCE4003E20C5E7B4B5B4CECAFD00FD
S1132EFA3E20B9D8D3DAB1BEBBFA003E20C9E8D61F
S1132F0AC3CBF8B6A8003E20B5A5CEBBC9E8D6C344
S1132F1A003E20C0A9D5B9B0E5003E20D1B9B2EE31
S1132F2AC4A3CABDD2BB003E20D1B9B2EEC4A3CA5F
S1132F3ABDB6FE003E20D1B9B2EEC4A3CABDC8FDD7
S1132F4A003E20CAB1D0F2BFD8D6C6C4A3CABD00B7
S1132F5A3E20B1E0B3CCC5E7B4B5C4A3CABD003EB4
S1132F6A20D5FDD4DAC6F4D3C3003E20B9D8B1D5EE
S1132F7AD6D0003E20D1B9B2EEC9CFCFDE003E2072
S1132F8AD1B9B2EECFC2CFDE003E20D1B9B2EECF74
S1132F9AC2CFDEB0D9B7D6B1C8003E20D7EED0A191
S1132FAAC5E7B4B5C6B5C2CA003E20C5E7B4B5CABA
S1132FBAB1BCE4BCE4B8F400B7B5BBD82020C8B7A8
S1132FCAC8CF2020B0EFD6FA003E20B5A5CEBB3A32
S1132FDA205061003E20B5A5CEBB3A206D6D5747FF
S1132FEA003E20BDA8C9E8D6D02E2E2E00202020CF
S1052FFA2000B1
S9030000FC
